:020000040800F2
:1000000068050020C5000008B9160008E1130008C3
:1000100000000000000000000000000000000000E0
:10002000000000000000000000000000BD160008F5
:100030000000000000000000BB160008BF1600080A
:10004000D700000800000000D7000008D700000813
:10005000D7000008D7000008D7000008D700000824
:1000600000000000D7000008D7000008F9010008D0
:10007000D7000008D7000008D700000800000000E3
:10008000D70000080000000000000000D7000008B2
:1000900000000000D7000008D7000008D7000008C3
:1000A00000000000D700000800000000D91A000876
:1000B0000348854600F08EF800480047011F0008FD
:1000C000680500200448804704480047FEE7FEE733
:1000D000FEE7FEE7FEE7FEE71D170008B100000897
:1000E00030B50B46014600202022012409E00D46D0
:1000F000D5409D4205D31D469540491B2546954058
:1001000040191546521E002DF1DC30BDF0B51FB46C
:100110000646002082B005464024019100901BE075
:10012000019922460F46304600F020F8049A059BBC
:10013000801A994110D310461946224600F039F82A
:10014000361A8F410197224601200021009F00F0BE
:1001500030F838184D4100902046641E0028DFDC3E
:10016000019B00982946324607B0F0BD10B5202A01
:1001700004DB0846203AD040002110BD0B46D34096
:10018000D0402024A21A91400843194610BDD2B293
:1001900001E00270401C491EFBD270470022F6E7C6
:1001A00010B513460A4604461946FFF7F0FF2046ED
:1001B00010BD10B5202A04DB0146203A91400020F2
:1001C00010BD914020239C1A0346E3401943904000
:1001D00010BD0000064C0125064E05E0E36807CC83
:1001E0002B430C3C98471034B442F7D3FFF764FF1D
:1001F000702000089020000810B5024800F04FF869
:1002000010BD00002401002010B504460068054917
:1002100040181421FFF764FF800020640248E06367
:1002200010BD0000F8FFFDBF0000024030B5056CB6
:100230000124AC40C56B6C60046863604368102B9C
:10024000036803D099600068C26030BD9A6000689E
:10025000C16030BD704770B50024014620314A7836
:10026000022A03D004218163012416E00268136886
:100270000E25AB431360026813685B085B001360D4
:100280000122056C1346AB40C56B6B604A700022BF
:100290000A70416B002900D08847204670BDF0B439
:1002A000C16B0D6801680C680422066C1346B340EC
:1002B0002B420DD063070BD50B689B0602D40B684D
:1002C00093430B60016C8A40C16B4A60C16A19E0BC
:1002D0000227B74002462F4001232032002F15D0BD
:1002E000A70713D50C68A40604D40C680A25AC43F0
:1002F0000C605370036C02219940C36B596000215C
:100300001170816A002916D0F0BC08470827B74051
:100310002F4210D024070ED50C680E25AC430C607C
:10032000046C1946A140C46B616083635370002163
:100330001170016BE6E7F0BC7047000070B5040077
:1003400021D00221204620300546417022681168E4
:100350000E48A3680140606826691843E368334388
:10036000184363691843A3691843E36918430843B2
:1003700010602046FFF748FF0021A163012068704C
:100380002970084670BD012070BD00000FC0FFFF3E
:10039000F8B504468C46203001780025012909D0A3
:1003A0000126067041780027012905D00770022533
:1003B0002846F8BD0220F8BD02214170A7632068DD
:1003C000016849084900016061462046FFF72EFF99
:1003D000E06A00282068016802D00E22114306E07E
:1003E0000A221143016020680168042291430160E0
:1003F0002068016831430160DAE7000070B5044607
:1004000000F0B2F80546601C02D0044800782418B9
:1004100000F0AAF8401BA042FAD370BD00000020F3
:10042000F8B500238DE001249C40A44622407DD0F5
:100430004C68022C01D0122C0CD1DC08A400271827
:100440003C6A5D07ED0E0F26AE40B4430E69AE4028
:1004500026433E6205685E000324B4400F79A5433D
:10046000BF07BF0FB7402F4307604D68012D05D070
:10047000022D03D0112D01D0122D0ED18568CF6829
:10048000A543B7402F43876047686546AF430D7962
:10049000ED06ED0F9D403D434560C568A5438C6862
:1004A000B4402C43C4604C68E40049D5284CA5698D
:1004B00001263543A561A4699D0834400094254C6C
:1004C000AD002F19BC689D072E0F0F25B540AC431A
:1004D0000925ED06A84201D100250FE01E4DA842D6
:1004E00001D101250AE01D4DA84201D1022505E0F8
:1004F0001B4DA84201D1032500E00525B540254349
:10050000BD60184C25684E689543F60300D5154329
:10051000256065684E689543B60300D51543656050
:10052000A5684E689543F60202D500E008E0154341
:10053000A560E5684E689543B60200D51543E560B1
:100540005B1C0A681446DC4000D06CE7F8BD000074
:10055000001002400000014000040048000800486C
:10056000000C00480004014001488068704700000A
:100570000000002070B5024640325378202B1CD179
:100580001378012B19D001231370242454700468AC
:1005900025689D432560046825681E03B5432560D2
:1005A000046825680D4325600068016819430160EF
:1005B000202050700020107070BD022070BD70B5FA
:1005C000024640325378202B1BD11378012B18D0D0
:1005D000012414702423537003681D68A5431D6013
:1005E00005682B680F263602B343090219432960B8
:1005F00000680168214301602020507000201070C5
:1006000070BD022070BD000070B5040006D0254604
:10061000403568780026002802D005E0012070BD32
:100620002E70204600F09AF9242068702068016836
:100630004908490001600F21606809068843216864
:10064000086121688A680120C00382438A60E168EA
:100650000129A16808D021229202114322689160E9
:10066000E168022902D005E00143F7E70121226891
:10067000C902516021684A680F4B1A434A602168D9
:10068000CA688243CA60616920690843A169090296
:1006900008432168C860216AE0690843216808604E
:1006A000206801680122114301606664202068709F
:1006B0002663AE70002070BD00800002FFB50546C5
:1006C00004464035687883B0202875D10C980028FE
:1006D00014D00D98002811D0287801286CD0012062
:1006E0002870FFF741FF0746012200901923D1032C
:1006F000204600F033FF002874D103E001204002BF
:1007000060646FE0222068704020A8700026666454
:100710000C9860620D98608566630E980090019752
:1007200004A90EC9204600F0A5FE002801D02E70B5
:1007300058E0618D3448FF2905D9FF222285012325
:100740001B06009006E0618D21850090208D01231D
:10075000C2B25B062046049900F0ECFE009700222E
:10076000042120460E9B00F0F9FE00283AD12068B3
:10077000406A616A0870606A401C6062208D401E99
:1007800081B22185608D401E6085608D00281FD05C
:1007900000291DD100970022802120460E9B00F0E9
:1007A000DDFE00281ED1608DFF2806D9FF2222859C
:1007B00001231B06009607E024E0608D208500964B
:1007C000208D0123C2B25B062046049900F0B2FEE0
:1007D000608D0028C2D13A4620460E9900F0E5FE11
:1007E000002802D0012007B0F0BD20682021C1619F
:1007F00020684268054B1A4042606970AE702E70E6
:100800000020F0E70220EEE70024008000E800FE70
:10081000FFB5054604464035687883B0202872D17C
:100820000C98002814D00D98002811D028780128A1
:1008300069D001202870FFF797FE0746012200903B
:100840001923D103204600F089FE002871D103E06E
:100850000120400260646CE0212068704020A87094
:10086000002666640C9860620D98608566630E9839
:100870000090019704A90EC9204600F02BFE002825
:1008800001D02E7055E0608DFF2805D9FF2222850A
:1008900001231B06009606E0608D20850096208DC2
:1008A0000123C2B25B062046049900F043FE3A469B
:1008B00020460E9900F09FFE00283AD1606A216818
:1008C00000788862606A401C6062608D401E6085AE
:1008D000208D401E80B22085618D00291FD0002808
:1008E0001DD100970022802120460E9B00F036FE8D
:1008F00000281ED1608DFF2806D9FF222285012302
:100900001B06009607E024E0608D20850096208D70
:100910000123C2B25B062046049900F00BFE608DF5
:100920000028C4D13A4620460E9900F03EFE002829
:1009300002D0012007B0F0BD20682021C1612068ED
:100940004268054B1A4042606970AE702E700020FC
:10095000F0E70220EEE7000000E800FE10B586B0E8
:10096000044614216846FFF719FC134920688842A1
:1009700020D1124C61690120400401436161616929
:1009800001400320059140020090122001900120B7
:100990000290032003900420049009206946C006B9
:1009A000FFF73EFDE169012040050143E161E16996
:1009B0000140059106B010BD0054004000100240F7
:1009C0000248816802788918816070470000002021
:1009D00010B506480168102211430160002000F0A4
:1009E00007F800F027F8002010BD000000200240AA
:1009F00070B504460D4D7D202978C000FFF770FBCF
:100A000001460B480068FFF76BFB00F043FB002832
:100A100009D1042C07D200222146401E00F02AF8FA
:100A200000206C6070BD012070BD0000000000203F
:100A30000C00002008B5084881690122114381613A
:100A4000816911400091C26901040A43C261C06911
:100A50000840009008BD000000100240002805DB9F
:100A6000C106C90E01208840014908607047000096
:100A700000E100E010B501F063F810BDF8B50546DF
:100A80000068354CC00352D5E0690026C00007D489
:100A9000E16920040143E161E1690140012600911F
:100AA0002E480168C90510D4016882151143016000
:100AB000FFF75AFD074604E0FFF756FDC01B642808
:100AC00024D826480068C005F6D5206A03273F02CF
:100AD000384020D06968394081421CD0206A226A9F
:100AE000B843012109040A432262226A8A4322622E
:100AF0002062C0070FD0FFF737FD009008E0FFF736
:100B000033FD0099411A1648814201D90320F8BDEE
:100B1000206A8007F3D5206A6968B84308432062D9
:100B2000002E04D0E169012000078143E1612878AB
:100B3000C00705D0206BA9688008800008432063A7
:100B40002878800605D5206B10218843E968084382
:100B500020630020F8BD000000100240007000403B
:100B600088130000F8B50F46060059D03A4D2868A2
:100B7000C007C00FB84209D2286840084000384377
:100B800028602868C007C00FB84249D13068334C8C
:100B900081070CD5400704D5606807210902084386
:100BA00060606068F0218843B16808436060307815
:100BB000C00726D0706801280ED0216802280ED008
:100BC000890700292CDA616889088900014361607E
:100BD000FFF7CAFC00900DE021688903F1E7890165
:100BE000EFE7FFF7C1FC0099411A1D48814201D986
:100BF0000320F8BD60680C210840716889008842B4
:100C0000EFD12868C007C00FB8420BD92868400848
:100C10004000384328602868C007C00FB84201D0A0
:100C20000120F8BD3078400706D560680721090229
:100C30008843F1680843606000F028F86168094A59
:100C40000906090F515CC840074908600020FFF7FA
:100C5000CFFE0020F8BD000000200240001002403E
:100C600088130000582000080C00002004480549A3
:100C700000684968044A4905490F515CC8407047FB
:100C80000C000020001002406820000810B514A3DA
:100C90000FCB88B06C460FC415A30FCB0FC4184AF6
:100CA00051680C200B4603401648042B16D0082B25
:100CB00014D18B021B0F6C46E45CD26A04AB1207A2
:100CC000120F9A5CC90305D500231946FFF71EFAD7
:100CD000214601E020460C4900F01AFF08B010BD83
:100CE00002030405060708090A0B0C0D0E0F10106D
:100CF0000102030405060708090A0B0C0D0E0F106C
:100D00000010024000127A0000093D00FEB5040008
:100D100070D02078DC4DC0074AD068680007800F8B
:100D2000012807D068680007800F022809D1686889
:100D3000C00306D5286880033AD560680028E7D04C
:100D400036E06168012914D001208004002901D017
:100D5000052914D02A68012109048A432A602968D8
:100D6000814329606068002816D0FFF7FDFB064626
:100D70000EE028680121090408432860F2E7296889
:100D800001432960F5E7FFF7EFFB801B64286ED86D
:100D900028688003F7D50BE0FFF7E6FB064604E082
:100DA000FFF7E2FB801B6428F1D828688003F7D4A2
:100DB00020780126800700283CDA68680007800F49
:100DC00007D068680007800F022809D16868C0034F
:100DD00006D42868800716D5E06801280AD112E0F9
:100DE000E0680028286816D030432860FFF7BCFB75
:100DF000074605E043E1FFF7B7FBC01B0228C6D852
:100E000028688007F7D52868F82188432169C90038
:100E1000084328600EE0400840002860FFF7A4FB6C
:100E2000074604E0FFF7A0FBC01B0228AFD82868E4
:100E30008007F7D42078000722D5E0690028686A87
:100E40000ED030436862FFF78FFB074604E0FFF7E0
:100E50008BFBC01B02289AD8686A8007F7D50FE081
:100E6000400840006862FFF77FFB074605E09DE011
:100E7000FFF77AFBC01B022889D8686A8007F7D47D
:100E8000207804274007002860DA00200190E869F4
:100E9000C00008D4E969B8060143E961E969014085
:100EA00001200091019079480168C90511D40168B9
:100EB000821511430160FFF757FB009005E0FFF733
:100EC00053FB0099401A642870D870480068C00528
:100ED000F5D5A06801280AD0002801D0052810D037
:100EE000286A400840002862286AB84301E0286A5E
:100EF00030432862A068002812D0FFF735FB00902D
:100F00000AE0286A38432862F1E7FFF72DFB0099D1
:100F1000411A5F48814249D8286A8007F5D50DE01B
:100F2000FFF722FB009006E0FFF71EFB0099411A35
:100F3000574881423AD8286A8007F5D4019800289A
:100F400004D0E969012000078143E9612078C006E7
:100F500035D5606901280CD0401D686B23D038431B
:100F60006863686B400840006863FFF7FDFA064657
:100F700022E0686B38436863686B30436863FFF74F
:100F8000F3FA064604E0FFF7EFFA801B02285BD86D
:100F9000686B8007F7D5686BF8218843A169C900A1
:100FA000084368630BE0B8436863F4E74CE0FFF77D
:100FB000DBFA801B022847D8686B8007F7D4206AC9
:100FC00000285ED069680907890F022942D00126EE
:100FD00036060228286805D0B0432860FFF7C4FA17
:100FE000044633E0B0432860FFF7BEFA074604E04A
:100FF000FFF7BAFAC01B022826D828688001F7D468
:10100000E86AE16A000900010843E862616AA06ACF
:10101000084369683D2212049143084368602868C8
:1010200030432860FFF7A0FA044604E0FFF79CFA7B
:10103000001B022808D828688001F7D521E0FFF7B7
:1010400093FA001B022801D90320FEBD2868800105
:10105000F5D416E00128F8D06868E96A0122120484
:10106000636A02409A420AD10907E26A090F914273
:1010700005D10F2189040840A16A884201D00120CE
:10108000FEBD0020FEBD00000010024000700040C8
:1010900088130000094910B5401E884201D901207B
:1010A00010BD074C60610321081F00F049FD0020BE
:1010B000A06107202061002010BD0000FFFFFF009D
:1010C00000E000E070470000F8B502680446D0690F
:1010D000116893684C4D06462E402025002E68D09E
:1010E000DE07F60FFF2721370F40374375D0C707BC
:1010F00006D0CF0504D501271762E26F3A43E267B5
:10110000820708D5DA0706D0276802223A62E26F22
:1011100004273A43E267420708D5DA0706D0236876
:1011200004221A62E26F02231A43E267020709D51A
:101130000A462A40324305D0236808221A62E36F28
:101140001343E367020508D54A0106D50122236847
:10115000D2021A62E26F2A43E267E26F002A30D0BD
:10116000800606D5880604D5216E002901D02046C8
:101170008847E06F21688968490602D4282108421F
:1011800024D0204600F0AAFB20688168490619D5C2
:101190008168402291438160E06E002812D01B4993
:1011A0004163E06EFFF757F800280AD0E06E416B0C
:1011B00006E0830611D58B060FD5216E12E020467E
:1011C0008847F8BD2046FFF77DFFF8BD2046FFF7B2
:1011D00079FF0020E067F8BDFFE7030605D50B06A1
:1011E00003D5616E0029EAD1F5E74006F3D548063C
:1011F000F1D51168204640239943116065670021AD
:10120000616600F0EBF8E6E70F08000049180008F7
:1012100010B5040003D0606F002802D007E0012061
:1012200010BD002170200155204600F027F8242031
:10123000606720680168490849000160204600F0A5
:1012400065FB0128ECD0606A002802D0204600F03F
:1012500066FA206841680122D20291434160206809
:10126000816808229143816020680168012211434E
:101270000160204600F0B8FA10BD000070B586B0DD
:10128000064614216846FEF789FF244930688842E3
:1012900041D123498A690120800302438A618A6916
:1012A000024005924A69C00002434A61496900252B
:1012B000014005910C200090022001900320039032
:1012C00001200490092002956946C006FFF7A8F89E
:1012D000154C144820601020A56060602561656190
:1012E0008020A561E0608001E0612046FFF726F8DC
:1012F000002801D0FEF7AEFF0C48016842151143EB
:101300000160B466002211461B206662FFF7B2FB43
:101310001B20FFF7A3FB06B070BD000000380140A2
:10132000001002404400024024010020000001405F
:10133000F8B50446406F202847D100290BD0002A79
:1013400009D00123A0681B03984206D12069002818
:1013500003D1C80701D00120F8BD25466035287C9F
:10136000012832D00120287420464030E1640282F6
:1013700042820026E66721206067A06E002819D00F
:1013800013498162A16E1348C862A16E12480863B6
:10139000A06E134646632768E16C3A462832A06E79
:1013A000FEF7F6FF002805D01020E0672E742020FD
:1013B0006067D0E72168402008622E742068816849
:1013C0008022114381600020F8BD0220F8BD00009A
:1013D000A5180008D31800085D180008704770476A
:1013E000FEE701688A69D243920701D400228A622B
:1013F00000688169C943C90703D08169012211438B
:1014000081617047F7B5044600680E468069C043A5
:10141000C0062BD420272546403520688069C0436C
:10142000800612D5701CF8D0FFF79EF80299401A7A
:10143000B04201D8002EF0D1606C384360646F7008
:101440000020A87028700120FEBD21681020C8610E
:101450002068C7612046FFF7C4FF20684168044A3E
:1014600011404160606C04210843E7E70020FEBDA5
:1014700000E800FEF8B50446164615481D46DAB2E7
:101480000090079F0023204600F054F83A4620467B
:10149000069900F0B0F8002818D12846F5B20128C6
:1014A00009D02168300A88623A462046069900F041
:1014B000A2F800280AD12068856200970022402106
:1014C0002046069B00F04AF8002800D00120F8BD15
:1014D00000200080F8B50446164615481D46DAB2CD
:1014E000C3020090079F204600F024F83A462046A9
:1014F000069900F080F8002818D12846F5B2012896
:1015000009D02168300A88623A462046069900F0E0
:1015100072F800280AD12068856200970022802195
:101520002046069B00F01AF8002800D00120F8BDE4
:1015300000200080F0B50668059C7568064F600DB8
:10154000384385438805800D110408431843204320
:1015500005437560F0BD0000FF63FF03F8B51D464D
:1015600017460E46044609E0681C07D0FEF7FCFF4C
:101570000699401AA8420BD8002D09D0206881692D
:10158000304688430FD00020B842EDD00020F8BD8F
:10159000616C202001436164403460700020A070C1
:1015A00020700120F8BD0120EEE770B516460D460B
:1015B00004460FE0324629462046FFF723FF002865
:1015C00001D0012070BDFEF7CFFF801BA84208D8D4
:1015D000002D06D020688069C0438006EAD4002030
:1015E00070BD616C20200143616440346070002054
:1015F000A0702070E5E770B516460D46044611E070
:10160000324629462046FFF7FDFE002801D0012082
:1016100070BD681C06D0FEF7A7FF801BA84208D843
:10162000002D06D020688069C0438007E8D40020E0
:1016300070BD616C20200143616440346070002003
:10164000A0702070E3E7000010B50D480B49016061
:101650000C49416000218160016141618161012289
:10166000C161C2600162FEF7CFFF00210448FEF7AE
:1016700081FF00210248FEF7A2FF10BD0054004088
:10168000100000200E09002010B50A48084901602A
:10169000E1214902416000218160C16001618161F5
:1016A000C1610C22016242614162FFF7B1FD10BDD0
:1016B000003801405C00002070477047704710B54B
:1016C000FFF77EF910BD10B594B030216846FEF7E3
:1016D00065FD00240F9402200D94009012940120C7
:1016E00003900E94139410200C9404901094119471
:1016F00008946846FFF70AFB07200C900D940E949F
:1017000000210F940CA8FFF72DFA212010901294BD
:10171000139410A8FFF7B2F914B010BD704710B5BC
:10172000818CC90707D001684A6801235B049A438A
:10173000836A1A434A60818C890707D501684A6821
:1017400001231B049A43C36A1A434A60818C4907E8
:1017500007D501684A6801239B049A43036B1A4327
:101760004A60818C090707D501684A680123DB03B9
:101770009A43436B1A434A60818CC90607D50268B5
:10178000916801231B039943836B19439160818CFA
:10179000890607D501688A6801235B039A43C36BF6
:1017A0001A438A60818C490612D503685A68012160
:1017B0000905046C8A4322435A60026C8A4207D1AD
:1017C0000268516803235B059943436C19435160D8
:1017D000818C090607D501684A680123DB04806C07
:1017E0009A4302434A6010BDF8B500260446C66716
:1017F000FEF7BAFE054620680068124F000709D5BB
:1018000001212B46002249052046009700F016F9D9
:1018100000280DD12068006840070BD501212B4618
:10182000002289052046009700F008F9002801D021
:101830000320F8BD20206067A06760342674002074
:10184000F8BD0000FFFFFF0110B5406A002201460D
:1018500040314A834A82FFF735FC10BD70B5446AB7
:10186000606FA56F2168896800260906002906DADD
:10187000212804D152200653204600F03FF820686A
:101880008068400606D5222D04D15A2006532046F2
:1018900000F024F8E06F10210843E0672046FFF7CE
:1018A00011FC70BD10B501468969406A20290DD030
:1018B000002252210A5201688A6880239A438A6072
:1018C0000068016840221143016010BDFFF786FDEA
:1018D00010BD10B5406AFFF782FD10BD01680A68AF
:1018E000FF2321339A430A6001688A685208520034
:1018F0008A602021816700210166704701680A68BB
:10190000C0239A430A6020214167704770B504469E
:1019100080682169E26908436169002511432268F2
:1019200008431168404B1940014311602168486821
:10193000032212039043E26810434860A169206AC1
:101940002268084391680B231B029943014391606D
:101950003648006B8007800F06D0012815D002287A
:1019600015D003280FD010200122E169D203304E98
:1019700091422ED100280CD002280DD004281DD071
:1019800008284AD120E00220EEE70420ECE70820F6
:10199000EAE7FFF76BF913E06168264A4808801808
:1019A000FEF79EFB80B201461039B14235D820497E
:1019B000491C01400007400F084321E0FFF766F98A
:1019C000616840004A08EAE7616801224808120499
:1019D000E5E7002806D0022807D0042813D00828FD
:1019E0001BD116E0FFF742F90FE06168124A480880
:1019F00011E0FEF775FB80B201461039B1420CD8F8
:101A00002168C8600AE0FFF741F961684A081018C8
:101A1000EFE7616848088018EBE7012500202066A1
:101A20006066284670BD0000F369FFFF00100240A9
:101A3000EFFF00000024F40000127A00FFB581B02F
:101A400005460F46044660350A9E38E0701C36D0C5
:101A5000FEF78AFD0499401AB04221D8002E1FD00B
:101A60002068016849072AD5C069C043000526D40B
:101A700001202168C002086220680168FF22A132AB
:101A800091430160206881684908490081602020F5
:101A90006067A067E06700202874032005B0F0BDF0
:101AA00020680168FF22A1329143016020688168AB
:101AB00049084900816020206067A067EBE7206843
:101AC000C1693846884305D0002103988142BDD0C2
:101AD0000020E3E70121F8E710B50248FFF7F4FA28
:101AE00010BD00005C0000200FB410B504A9074B26
:101AF00002AA039800F056F8044602A9002000F05C
:101B0000F9F9204610BC08BC04B01847F51E0008BF
:101B1000F8B5040C8BB2264682B25E430D0C10461B
:101B2000370C5843360480190021794116466E431C
:101B3000370C36048019794126466E438919F8BD61
:101B40008307FF22DB0E9A408907090E994000287F
:101B500008DB830809489B001B181868904308435A
:101B6000186070470007000F0838830804489B007E
:101B70001B18D86990430843D861704700E400E01F
:101B800000ED00E002E008C8121F08C1002AFAD1E7
:101B900070477047002001E001C1121F002AFBD1ED
:101BA00070470000FFB58FB00546002606E02528E7
:101BB0000AD0129A119990476D1C761C287800283B
:101BC000F5D1304613B0F0BD002402940121B54A8E
:101BD000009400E004436D1C2B780846203B98409D
:101BE0001042F7D128782A280ED002222878014600
:101BF0003039092916D802990A2359433039401837
:101C000014436D1C0290F1E7109802C802911090E5
:101C1000002904DA012040030443484202900220D4
:101C200004436D1C28782E2817D1042004436878BB
:101C30006D1C2A280CD110986D1C02C800911090C0
:101C40000BE000990A225143303940186D1C009076
:101C50002878014630390929F3D928786C2810D022
:101C600006DC4C281AD068280ED06A2817D104E068
:101C7000742813D07A2812D110E0012040050443C3
:101C80000CE00121090501E0032109050C436978F5
:101C9000814203D10120000524186D1C6D1C287899
:101CA000692874D006DC00288BD0632827D06428EC
:101CB00006D16CE06E2808D073282CD0752878D017
:101CC000129A11999047761C5FE06002400F02283B
:101CD00009D003280DD00428109801680DD00E609B
:101CE000001D109051E01098F21701680E604A60D4
:101CF000F6E7109801680E80F2E70E70F0E7109892
:101D00006A4601781173001D10900020507303A8DB
:101D10000190012005E0109802C801911090002068
:101D2000C04361070CD5002700E07F1C00998F425B
:101D30000FDA8742F9DB0199C95D0029F5D108E086
:101D4000002700E07F1C8742FCDB0199C95D002968
:101D5000F8D102982146C01B0290129B119A00F004
:101D6000B3F88019C61907E0019801990078491C59
:101D70000191129A119990477F1EF5D22146129B2C
:101D8000119A029800F090F886196D1C16E70A2047
:101D90000190109901C910916102490F032900D1E6
:101DA00000B2042900D140B2002803DA40422D21BC
:101DB00003E00DE0210504D52B216A4611730121B2
:101DC00003E0E10711D02021F7E70CAF0C9114E0FC
:101DD0000A200190109901C910916102490F03294D
:101DE00000D180B2042900D1C0B20021EDE70199F1
:101DF000FEF776F930317F1E39700028F7D104A83C
:101E0000C01B20300190600704D5012000048443EA
:101E1000009801E0012000900199884201DD401AFC
:101E200000E00020411800900C9809180298401A10
:101E30000290E00306D42146129B119A029800F00A
:101E400043F8861900200D9008E003A9085C129A57
:101E5000119990470D98401C761C0D900C99884262
:101E6000F3DBE0030CD52146129B119A029800F097
:101E70002BF8861904E0129A302011999047761CAD
:101E80000099481E00900029F5DC05E03878129A88
:101E90007F1C11999047761C0199481E01900029DA
:101EA000F4DC6BE709280100F8B5044600251E465E
:101EB0001746880404D405E039462020B0476D1C3D
:101EC000641EF9D52846F8BDFFB50446002581B04B
:101ED0001E46C80301D5302700E02027880404D51A
:101EE00005E038460399B0476D1C641EF9D52846B5
:101EF00005B0F0BD0A68531C0B60107070470000FD
:101F00000EB5FEF765FDFFF7DEFB41484269012192
:101F100049040A43426142690A4000924169012230
:101F200011434161406910400022009011460B208E
:101F3000FEF7A0FD0B20FEF791FDFFF785FBFFF7F5
:101F4000A3FB344A0020014630311154401CC0B27A
:101F50000A28F8D30A2400920194022302946422EE
:101F6000A0212D48FEF754FC2A4D0A3D00282DD013
:101F700028482AA13C38FFF7B7FD264982B23C39F0
:101F800008468038FFF7D4F90028F1D1FF27F5374C
:101F900009263846FEF732FA02236422A0211E48A1
:101FA000019600950294FEF789FB00281DD0194880
:101FB0001DA13C38FFF798FD164982B23C3908460E
:101FC0008038FFF7B5F90028F1D1E2E711481AA1EE
:101FD0003C38FFF789FD0F4982B23C39084680380A
:101FE000FFF7A6F90028F1D1D0E700206872094A6E
:101FF00016A10A3A10463238FFF776FD054982B23B
:102000003C3908468038FFF793F90028EFD1C0E744
:102010000010024018010020100000204932632007
:102020004572726F720D0A005265616420657272AA
:102030006F720D0A0000000049326320537563631C
:1020400065737366756C0D0A00000000526561646B
:102050003A25730D0A000000000000000000000097
:10206000010203040607080900000000010203043E
:10207000902000080000002010000000841B0008D1
:10208000A02000081000002058050000941B000844
:1020900001000000040000000000000000127A00AF
:04000005080000B13E
:00000001FF
