:020000040800F2
:1000000038050020010100081719000865140008D0
:100010001519000875010008ED1B0008000000001C
:100020000000000000000000000000003F19000870
:10003000AD010008000000003D190008411900084A
:100040001B0100081B0100081B0100081B01000820
:100050001B0100081B0100081B0100081B01000810
:100060001B0100081B0100081B0100081B01000800
:100070001B0100081B010008790100081B01000892
:100080001B0100081B0100081B0100081B010008E0
:100090001B0100081B0100081B0100081B010008D0
:1000A0001B0100081B0100081B0100081B010008C0
:1000B0001B0100081B0100081B0100081B010008B0
:1000C0001B0100081B0100081B0100081B010008A0
:1000D0001B010008E11B00081B0100081B010008B0
:1000E0001B0100081B0100081B010008DFF80CD0F1
:1000F00000F02EF800480047F11B000838050020EA
:100100000648804706480047FEE7FEE7FEE7FEE7B1
:10011000FEE7FEE7FEE7FEE7FEE7FEE791190008CF
:10012000ED00000830B50B460146002020220124D6
:1001300009E021FA02F59D4205D303FA02F5491BB5
:1001400004FA02F52844151EA2F10102F1DC30BDCB
:10015000064C074D06E0E06840F0010394E8070014
:1001600098471034AC42F6D3FFF7C4FFEC200008E8
:100170000C210008FEE70000014800F05BB800BF5A
:100180005800002010B5D0E90FCE012404FA0EF477
:10019000CCF804400468636040681028084608BF33
:1001A0001046A06008BF0A46E26010BD7047704765
:1001B00090F8211002291BD10268694B11689A42FC
:1001C00021F00E011160116821F0010111606349F5
:1001D00012D0644B9A4211D0634B9A4210D0634BB9
:1001E0009A4210D0624B9A4210D14FF4803315E0FE
:1001F000042181630120704701230FE010230DE0EB
:100200004FF480730AE04FF4805307E001F1680C6B
:100210004FF08073624508BF4FF480130B604FF4BA
:1002200080710184416B19B180B58847002080BD81
:100230000020704710B5D0E90FCEDCF8002001682F
:100240000B685C071ED5042404FA0EF4144019D080
:100250000A68434B92065EBF0A6822F004020A60F5
:1002600099423E4A5AD03F4B994246D03E4B994222
:1002700045D03E4B994245D03D4B994245D14FF434
:1002800080234CE09C0721D5022404FA0EF414408C
:100290001CD00A68920606D40A6822F00A020A6094
:1002A000012280F821202E4B2C4A99423AD02D4B26
:1002B000994239D02C4B994238D02C4B994238D0A6
:1002C0002B4B994238D14FF400333DE01B0744D506
:1002D000082303FA0EF31A4008BF10BD0A6822F083
:1002E0000E020A60012101FA0EF2CCF804208163AB
:1002F0004FF480710184016B2BE040230FE04FF439
:1003000080630CE04FF4804309E002F168044FF091
:100310008063A14208BF4FF4800300E00423136010
:10032000C16A16E002230FE020230DE04FF40073B2
:100330000AE04FF4005307E002F168044FF0007345
:10034000A14208BF4FF400130021136080F8201071
:10035000816A11B1BDE81040084710BD0400024099
:10036000080002401C0002403000024044000240ED
:100370005800024040B32DE9F043154990E80C01C4
:10038000144F00F10C0E9EE870508946174414215A
:10039000B7FBF1F143F6F0778900C0E90F911168DE
:1003A000B943194341EA080121432943314341EA52
:1003B0000C0141EA0E01116000214FF4807281634B
:1003C0000284BDE8F04300E001210846704700BF09
:1003D00000000240F8FFFDBF10B5044690F8200071
:1003E000012820D0012084F8200094F82100012861
:1003F00016D10020A063022084F82100D4F800C0A8
:10040000DCF8000020F00100CCF800002046FFF7E7
:10041000B9FE2068E26A01683AB141F00E010AE0D3
:10042000002084F82000022010BD21F004010160AA
:10043000016841F00A010160016841F001010160B9
:10044000002010BDB0B5044600F0DEF805460548B2
:10045000611C007818BF044400F0D6F8401BA0428D
:10046000FAD3B0BD000000202DE9FC4F594A042307
:100470004FF0000B4FF001084FF00F0E4FF0000946
:100480000025904208BF03230093102D08BFBDE84C
:10049000FC8F0A6808FA05F73A4200F096804A682D
:1004A000032A16D9112A24D0122A26D04D4B9A425B
:1004B00013D04D4B9A4210D04C4B9A420DD04C4B1E
:1004C0009A420AD04B4B9A4207D04B4B9A4204D0E7
:1004D00020E0DFE802F00216191D8A6832B1012A15
:1004E0004FF0080914BF4761076113E04FF004099A
:1004F00010E0CA6802F104090CE0CA6802F10C09B4
:1005000008E0D1F80C9005E0CA6802F1080901E0A2
:100510004FF00009082D5A46044628BF203A28BF4C
:10052000043426680EFA02F309FA02F226EA0303FB
:100530001A432260CA79D20647D5294A0BF00C0C1F
:100540001346126842F001021A601A680EFA0CF3A0
:1005500002F001020192204A019CAC08A2F57E76CD
:1005600056F8242022EA030A244A904208D0244A5A
:10057000904207D0234A009B904208BF022302E02A
:10058000002300E0012303FA0CF242EA0A0246F8D3
:100590002420114E4A68D303336854BFBB433B4306
:1005A00033609303736854BFBB433B437360D30210
:1005B000B36854BFBB433B439202084AB36013463F
:1005C000126854BFBA433A431A600BF1040B013569
:1005D0005BE700BF00140140000401400C0401402F
:1005E000181002400000111000001210000021102D
:1005F00000002210000031100000321000080140FD
:10060000000C01400010014001480068704700BF25
:1006100030010020B0B520B3044690F83D0028B961
:10062000002084F83C00204600F056FA242084F88C
:100630003D002068016821F00101016000F0C0FB6D
:100640003A493B4A00233B4D88424FF0000138BFF6
:100650000121904238BF01236268AA4238BF0B468D
:100660000BB10120B0BD3449344DB0FBF1F321682A
:10067000AA424B600CD8520001380133B0FBF2F0B3
:100680000B6201306FF31F30042898BF042033E061
:100690004FF49675A0F1010C6B434FF47A75B3FBE0
:1006A000F5F301330B62A36843B1192004255043CD
:1006B000BCFBF0F0013065F31F3006E002EB4200B6
:1006C000BCFBF0F001306FF31F30000509D053B1CF
:1006D000192050430422BCFBF0F0013062F31F30BC
:1006E00008E0012008E002EB4200BCFBF0F0013022
:1006F0006FF31F3040F40040C861D4E90702104393
:100700000860D4E9030210438860D4E9050210436D
:10071000C860086840F001000860002020212064C3
:1007200084F83D10206384F83E00B0BD80841E0034
:1007300000093D00A186010040420F00A086010093
:100740002DE9FF471F4616460D460446FFF75CFF9E
:10075000814694F83D0020280CD1DD492046012235
:100760001923CDF8009000F094FF18B994F83C00DC
:10077000012803D1022004B0BDE8F0870DF1300854
:1007800001224FF0000A98E8030184F83C20226817
:100790001368DB0702BF136843F00103136013689B
:1007A00023F40063136022223B4684F83D2040225C
:1007B00084F83E20C4F840A06185C6493246E16213
:1007C00060622946608D20852046CDE9008900F0D1
:1007D0005FFE38B184F83CA00320216C042908BFD7
:1007E0000120C8E7218D01290DD001BB0020039015
:1007F000206841690391816903910399016841F47B
:100800000071016033E02068016821F480610160BB
:10081000002072B6039020684169039181690391B9
:100820000399016841F40071016062B61FE020681D
:100830000229026811D142F400610160002072B601
:1008400003902068416903918169039103990168CC
:1008500021F48061016062B609E042F480610160C8
:100860000021039141690391806903900398208DD1
:100870004A4F7EE085B2032D09D8012D20D12046B4
:1008800041464A4600F084FF002866D07DE02046BD
:1008900041464A4600F07CFF002876D12068006976
:1008A000616A4A1C62620870208D01382085618D62
:1008B0000139618521684A6952075AD508694EE0B5
:1008C0002046394600224346CDF8009000F0E1FE74
:1008D000022D14D100285ED172B62068016841F45F
:1008E000007101600069616A4A1C62620870208DB3
:1008F00001382085608D0138608562B62DE00028C2
:1009000049D120684346016821F48061016072B6D4
:1009100020680069616A4A1C6262087039460022D8
:10092000208D01382085608D013860852046CDF806
:10093000009000F0AEFE70BB2068016841F40071C9
:1009400001600069616A4A1C62620870208D01388A
:100950002085608D0138608562B620680069616A13
:100960004A1C62620870208D01382085618D013932
:10097000618501047FF47EAF202084F83D000020D3
:1009800084F83C0084F83E00F5E6216C0120202923
:1009900008BF0320EFE60320EDE600BF04000100DE
:1009A0002DE9FC47994616460F460446FFF72CFEF4
:1009B000054694F83D0020280BD1454920460122E8
:1009C0001923009500F065FE18B994F83C00012841
:1009D00003D1022002B0BDE8F0870DF12808012202
:1009E0004FF0000A98E8030184F83C20226813685D
:1009F000DB0702BF136843F001031360136823F49D
:100A00000063136021224B4684F83D20402284F885
:100A10003E20C4F840A061852E493246E162606202
:100A20003946608D20852046CDE9008500F0B0FD77
:100A300038B184F83CA00320216C042908BF0120B0
:100A4000C8E7208D21E0204641462A4600F0C7FE37
:100A500018BB626A2168501C606210780861238D9F
:100A6000581E20850604678DA7F1010767854F6929
:100A700018BF17F0040708D0901C60625078086116
:100A8000981E2085618D013961850004DBD12046E7
:100A900041462A4600F0D6FD58B1206C042806D104
:100AA0002068016841F400710160012092E7032091
:100AB00090E72068016841F400710160202084F80B
:100AC0003D00002084F83C0084F83E0082E700BF2F
:100AD000020010000000FFFF10B586B00021CDE934
:100AE0000411CDE9021101681548814226D13F4C1D
:100AF00000F53840616841F400116160616801F4FB
:100B0000001101910199216841F0080121602168DB
:100B100001F008010191019912210391C021029174
:100B20000321059102A9FFF79FFC606840F40010C3
:100B30006060606800F400100190019806B010BD7C
:100B4000005400401A48034900780A6810440860BD
:100B5000704700BF3001002080B59748016841F020
:100B600010010160032000F06FF8002000F004F88D
:100B700000F020F8002080BD70B50D4E04464FF403
:100B80007A713078B1FBF0F097490968B1FBF0F069
:100B900000F0D8FA01250F2C08D838B94FF0FF30F3
:100BA00021460022002500F031F87460284670BD0F
:100BB0000000002082B00D480222016841F00101CE
:100BC0000160016801F0010101910199416841F062
:100BD00080514160406800F08050009000980448C7
:100BE000016862F31A61016002B070471810024098
:100BF0000400014000F01F010122400902FA01F146
:100C0000014A42F82010704700E100E080B5144B23
:100C10001B68C3F3022CBCF1030E8CF007034FF0EA
:100C2000FF3C38BF4FF0000E042B28BF04230CFA02
:100C300003F399430CFA0EF301FA0EF19A431143B0
:100C4000BDE8804000F068BE05494FF6FF030A6822
:100C50001A4060F30A22034810430860704700BF3F
:100C60000CED00E00000FA052DE9F8430D4652496D
:100C70000446086800F00700A84209D2086820F07E
:100C8000070028430860086800F00700A84253D115
:100C90002068654F8946810711D5410742BF3968F1
:100CA00041F4E0613960010742BF396841F46051A5
:100CB00039603968A26821F0F00111433960C0073A
:100CC00033D1D9F8000000F00700A8420CD9D9F8B8
:100CD000000020F007002843C9F80000D9F8000000
:100CE00000F00700A84227D12068410705D53968E0
:100CF000E26821F4E06111433960000706D53868E5
:100D0000216920F4605040EAC100386000F070F8BA
:100D100039682A4A0024C1F30311515CC8403249A2
:100D200008600020FFF728FF07E06068012808D16D
:100D300057F8041C89030DD40124204601B0BDE8F6
:100D4000F08357F8041C022802D18901F4D501E090
:100D50008907F1D5396821F0030108433860FFF7AE
:100D600053FC0646606841F2883801280CD00228FE
:100D700015D1386800F00C000828A2D0FFF744FC19
:100D8000801B4045F5D914E0386800F00C000428B9
:100D900097D0FFF739FC801B4045F5D909E038684A
:100DA00010F00C0F3FF48DAFFFF72EFC801B404579
:100DB000F5D90324C1E700BF00200240D420000879
:100DC000DE481949094A00680968C1F30221515CEB
:100DD000C8407047D9481449044A00680968C1F3FB
:100DE000C221515CC840704708000020E420000880
:100DF00010B50D4C0D48226802F00C03082B18BFEB
:100E000010BDC2F383430AA1CB5CD10302D40D48C9
:100E1000584310BD21680AA25843C1F34041515CB8
:100E2000B0FBF1F010BD00BF0410024000127A00C8
:100E300002030405060708090A0B0C0D0E0F10101B
:100E40000102000000093D002DE9FC410446007844
:100E5000B84EC00749D0706800F00C00042817D0C5
:100E6000706800F00C00082802D17068C0030FD42D
:100E7000606898B1B0F5803F06D03168B0F5A02F1A
:100E800020D141F480203060306840F480301FE091
:100E90003068800329D5606838BB07E1306820F4EA
:100EA00080303060306820F480203060FFF7ACFB89
:100EB00005463068800318D5FFF7A6FB401B642861
:100EC000F7D9E2E021F480303060306820F48020EF
:100ED0003060FFF799FB05463068800305D4FFF7C3
:100EE00093FB401B6428F7D9CFE0207880072BD5EF
:100EF000706810F00C0F07D0706800F00C00082824
:100F000009D17068C00306D43068800715D5206900
:100F1000012812D0CAE02169874800297CD001212C
:100F20000160FFF771FB05463068800705D4FFF7C5
:100F30006BFB401B0228F7D9A7E03068616920F0FD
:100F4000F80040EAC1003060207800072ED5A06983
:100F500078B179480121C0F88014FFF755FB0546A8
:100F6000706A800715D4FFF74FFB401B0228F7D9A2
:100F70008BE071480021C0F88014FFF745FB05465F
:100F8000706A800712D5FFF73FFB401B0228F7D994
:100F90007BE06A484FF4FA510068B0FBF1F0019031
:100FA00000BF0198411E00280191F9D12078400727
:100FB00074D5F069C0000BD4F0694FF0010840F01F
:100FC0008050F061F06900F080500090009801E0DE
:100FD0004FF000085A4F3868C0050FD4386840F405
:100FE00080703860FFF710FB05463868C00505D4EF
:100FF000FFF70AFB401B6428F7D946E0E068D0B150
:10100000012805D0316A05282BD141F00400306257
:10101000306A40F001002AE000210160FFF7F4FA95
:101020000546306880077FF58FAFFFF7EDFA401B6C
:101030000228F6D929E0306A20F001003062306AD7
:1010400020F004003062FFF7DFFA054641F28837EE
:10105000306A80071BD5FFF7D7FA401BB842F7D993
:1010600013E021F001003062306A20F004003062A9
:10107000FFF7CAFA054641F28837306A800706D47E
:10108000FFF7C2FA401BB842F7D903204FE0B8F18E
:10109000000F1EBFF06920F08050F061E769002F5B
:1010A00044D0706800F00C00082801D101203EE017
:1010B0002149002088460866FFF7A6FA0546022F58
:1010C0000AD147463068800110D5FFF79DFA411BD1
:1010D00003200229F6D92AE03068800126D5FFF7DF
:1010E00093FA411B03200329F6D320E0206AB0F5D0
:1010F000803F05D17168A26821F40031114371600D
:101100007168626A104321F4741108437060012011
:101110003866FFF779FA04463068800106D4FFF795
:1011200073FA011B03200229F6D900E0002002B067
:10113000BDE8F0810010024000004242080000209B
:1011400000700040411E0020B0EB116F1CBF012059
:101150007047044AF023516003490B7007219060E7
:101160001160704710E000E023ED00E070470000E0
:1011700070B50646006802680146C36851F8144F0E
:101180005FEA027C50D003F4907504F001042D193D
:1011900053D0D0071FBF13F48070F06B40F00100F4
:1011A000F063500704D51CB1F06B40F00200F0630F
:1011B000900704D51CB1F06B40F00400F063BCF163
:1011C000000F04D51CB1F06B40F00800F063F06B29
:1011D00000286CD003EA0200800605D5304600F0F6
:1011E00050FC306800F114010868F16B00F0400019
:1011F00001F0080140184BD0304600F035FC306853
:10120000416949063FD5416921F040014161706B58
:10121000C8B32C494163FEF7CBFF002847D0706B61
:10122000416BBDE87040084703EA02018A0606D513
:101230003046BDE8704000F024BC03EA02010A0613
:101240000DD4490633D5C16821F04001C16020208A
:1012500086F839003046BDE8704000F001B996F8D4
:101260003910212923D1B268316AB2F5805F15D1D6
:101270000A886FF35F2242603269002A14BF01318D
:10128000023131620EE03046BDE87040FFF76EBFBC
:101290003046FFF76BFF0020F06370BD4A1C3262DE
:1012A00009784160F18C0139F184090400D070BDE6
:1012B000C16821F08001C160C16841F04001C16096
:1012C00070BD00BFDD19000850B310B5044690F89A
:1012D000390028B9002084F83800204600F022F8B0
:1012E000242084F839002068C16821F40051C160CD
:1012F000204600F003FC2068016921F4904101615F
:10130000416921F02A014161C16841F40051C16085
:1013100000202021E06384F8391084F83A1010BDD1
:1013200001207047F0B585B000270446284DCDE96F
:101330000377CDE90177216805F54050814245D119
:10134000244801AE016841F480410160016801F464
:10135000804100910099016841F00401016031462B
:10136000006800F0040000900098022002904FF402
:1013700000700190032004902846FFF775F84FF4A1
:10138000806002973146019028460397FFF76CF87A
:10139000114D1249102080224FF40053C5E900106E
:1013A0002846C5E90272C5E90477C5E90673FEF768
:1013B000E1FF08B1FEF7FBFE252000210022256396
:1013C0006C62FFF723FC2520FFF714FC05B0F0BD8D
:1013D000000801401810024058000020440002405C
:1013E00070470000B0B5054690F83900202806D1B6
:1013F00039B113462AB195F83800012803D10224E7
:1014000025E0012423E000240120EB84DFF844C020
:10141000114ADFF848E0EC63296285F838002120A2
:10142000AB8485F83900286B00F1280787E8045061
:1014300044632A680432FEF7CFFF28686FF040014A
:10144000016085F83840416941F0800141612046E2
:10145000B0BD00BF631A00083D1A0008E919000872
:1014600070477047FEE700000268516949054FF078
:1014700000010AD5C54B536104220264016380F860
:101480003C10202180F83D1001210846704700BF24
:101490002DE9FC47044600680F460A9EDDF82C80C3
:1014A0001D46914600220168334641F48061016087
:1014B000016841F48071016020464FF00111CDF8C0
:1014C000008000F0E6F808B103203FE007F0FE0AD4
:1014D00020685B4F32464346C0F810A0204639468C
:1014E00000F00CF928B1216C0320042908BF012069
:1014F0002CE000204246019020684169019131466C
:10150000806901900198204600F069F9A8B9206827
:10151000012D09D04FEA192142460161204631468A
:1015200000F05DF948B920685FFA89F1424601612F
:101530002046314600F053F958B1206C0428C3D13D
:101540002068016841F400710160012002B0BDE82B
:10155000F087206800223346016841F48071016001
:1015600020464FF00111CDF8008000F092F80028DD
:10157000AAD120684AF00101324643460161204663
:10158000394600F0BBF80028ADD10020DEE700BFEF
:101590002DE9FE43044600680E460A9D0B9F9946BE
:1015A0009046002201682B4641F48071016020467C
:1015B0004FF00111009700F06CF808B103200FE024
:1015C000206806F0FE012A463B4601611C49204680
:1015D00000F094F838B1216C0320042908BF0120E1
:1015E00003B0BDE8F08300203A46029020684169CC
:1015F00002912946806902900298204600F0EFF897
:1016000048B1206C0428D9D12068016841F40071E8
:1016100001600120E4E72068B9F1010F0AD04FEA28
:1016200018213A4601612046294600F0D8F80028E2
:10163000E7D120685FFA88F101610020D0E700BFA0
:1016400002000100F8B515460E4604464F1C2068FE
:101650004069400718D42046FFF706FFB0B9002FB5
:10166000F5D026B1FEF7D0FF401BB042EFD9206C79
:1016700040F0200020640020206384F83C002020FB
:1016800084F83D00032002E0002000E0012001B0CA
:10169000F0BD2DE9F047DDF820909A4690460446CB
:1016A0008FB201F47F065D1CB6F5803F4FF0180045
:1016B00008BF1420216808583840C01BB0FA80F0D9
:1016C000400940451CBF0020BDE8F087002DEBD04D
:1016D000BAF1000F05D0FEF797FFA0EB09005045C7
:1016E000E2D900202021206384F83D1084F83C00DA
:1016F00084F83E000320BDE8F08700002DE9F843A0
:101700009846164681468FB201F47F05541CD9F8DD
:101710000000B5F5803F06D1014651F8142F3A403C
:10172000BA4206D11BE081693940B94217D000F1B5
:1017300014010968490514D4002CE8D02EB1FEF735
:1017400063FFA0EB0800B042E1D90020C9F83000E7
:1017500089F83C00202089F83D00032013E0002098
:1017600011E0016841F40071016008494161042001
:10177000C9F840000020C9F8300089F83C0020205A
:1017800089F83D00012001B0BDE8F083FFFBFFFFB9
:1017900070B515460E46044620684169490644BFA7
:1017A000002070BD4169C9060BD426B1FEF72CFF9D
:1017B000401BB042F0D9206C40F020002064032090
:1017C00006E06FF0100141610020206420630120D9
:1017D000002184F83C10202184F83D1070BDF8B53C
:1017E00015460E4604464F1C20684069000618D472
:1017F0002046FFF739FEB0B9002FF5D026B1FEF72D
:1018000003FF401BB042EFD9206C40F02000206461
:101810000020206384F83C00202084F83D00032051
:1018200002E0002000E0012001B0F0BDE0B50A4870
:101830000022016841F0010101600021006800F010
:101840000100019001980E20FFF7E0F90E20BDE89D
:101850008C40FFF7CFB900BF1410024083B00F488F
:10186000016841F020010160016801F0200102914E
:101870000299016841F004010160016801F004016E
:1018800001910199016841F008010160006800F0D0
:1018900008000090009803B0704700BF1810024085
:1018A00080B50C480C490D4A00234FF4804C03626C
:1018B000C0E90021C0E90233C0E904C3C0E906332E
:1018C000FEF7A8FE002814BFBDE8804080BDFEF7EB
:1018D0006EBC00BF9C000020A086010000540040A8
:1018E00080B5C148BB4A4FF4E13100234FF00C0CE6
:1018F000C0E90021C0E90233C0E9043CC0E9063375
:10190000FFF7E2FC002814BFBDE8804080BDFEF771
:101910004EBC00BFFEE7704710B5064A064C00F00B
:101920000F03002802444FEA0110B8BF1A191070C3
:1019300010BD00BF00E400E014ED00E07047704708
:10194000FFF700B9B0B590B000244FF4803001210A
:101950000225CDE90B44CDE909440790069108948E
:101960000A91CDE90D504FF4E0100F9006A8FFF753
:101970006BFA0F200221CDE901054FF4806003943A
:10198000CDE9040401A8FFF76FF910B0B0BD000065
:101990000E480F4A016841F00101016041681140A1
:1019A0000C4A4160016811400160016821F4802106
:1019B0000160416821F4FE0141604FF41F01816024
:1019C00005484FF000610160704700BF0010024001
:1019D0000000FFF8FFFFF6FE08ED00E0406A00217E
:1019E000C185C184FFF7C2BB10B5446A2068416954
:1019F00094F83920212A0BD111F0800108D0002160
:101A0000E184C16821F0C001C160202184F839104F
:101A1000406994F83A10222907D110F0400004D010
:101A20000020E085204600F01FF8E06B40F0100039
:101A3000E0632046BDE81040FFF798BB0168406AAC
:101A40000968890648BFFFF70BBD0021C184006803
:101A5000416921F080014161C16841F04001C160EC
:101A60007047406AFFF7FDBC0168CA6822F49072B3
:101A7000CA604A6922F001024A61202180F83A10C6
:101A8000704790F83A10222918BF704781680368A0
:101A90000269B1F5805F06D1816A5B688AB1DAB20A
:101AA00021F8012B11E0D3F804C0836A002A03F166
:101AB000010181621ABF0CF07F01197083F800C028
:101AC00004E06FF35F2321F8023B8162C18D01398D
:101AD000C185090400D070470168CA6822F020025D
:101AE000CA60CA6822F48072CA604A6922F00102A0
:101AF0004A61202180F83A10FFF772BC2DE9F047C7
:101B00000446006841F20C660169E26821F4405124
:101B100011430161A168D4E90423C7681143B743A5
:101B200019433943C1604169A26921F440711143ED
:101B300041612849884214BFDFF89CA0DFF89CA0CF
:101B4000D047D4F804908046D04767680646D0470F
:101B500061681925BF00684306FB05F38900B3FBE4
:101B6000F7F3B0FBF1F06421B0FBF1F202FB1102DC
:101B7000181A4FEA89031044322202EB001008FBC6
:101B800005F2B0FBF1F0B2FBF3F200F0F000B2FBB3
:101B9000F1F100EB0116D047616868438900B0FBA2
:101BA000F1F7D0476168684364228900B0FBF1F027
:101BB000B0FBF2F3391A03FB12000844322101EBA7
:101BC00000102168B0FBF2F000F00F003043886095
:101BD000BDE8F08700380140C10D0008D50D0008B0
:101BE0004A48FFF7C5BA00BFF0000020FEE700003A
:101BF00084B0DFF804A1002004E000F130010AF80D
:101C0000001001300A28F8D1FEF7A6FFFFF79AFE70
:101C1000FFF724FEFFF70AFEFFF742FEFFF760FE24
:101C20000A20A02164221023CDE900A002903348AD
:101C3000FEF7B6FE80B132A0314D344CD0E90167D9
:101C4000514620460B2241F8145FC1E90167FFF7B6
:101C5000C9FB0028F4D115E02DA0DFF8B480DFF82F
:101C6000AC90D0E90167C568047C51464846102213
:101C700041F8148FC1E90167CD600C74FFF7B2FB26
:101C80000028F2D127A00AF10A0457460AF11406E7
:101C90001E4DDFF890A0D0E901B890F80C904FF4F9
:101CA000FA70FEF7CFFB0920A021642210230094D4
:101CB00001900A2002901148FEF742FD68B13946B2
:101CC00028460C2241F814AFC1E901B881F80C9004
:101CD000FFF788FB0028F2D1E1E70020F8743046D6
:101CE00014A1224600F02CF882B228463146FFF7B4
:101CF00079FB0028F3D1D2E7100000209C000020DF
:101D0000493263204572726F720D0A00F0000020A4
:101D1000493263205375636365737366756C0D0A8E
:101D20000000000052656164206572726F720D0AD6
:101D300000000000526561643A25730D0A0000003E
:101D40000FB4084B10B504A902AA039800F01CF8C0
:101D5000044602A9002000F0B8F9204610BC5DF846
:101D600014FB0000CB20000802E008C8121F08C1C5
:101D7000002AFAD170477047002001E001C1121F0C
:101D8000002AFBD1704700002DE9FF4F8BB0884639
:101D90000546002606E025280BD0DDE90D12904708
:101DA0006D1C761C28780028F5D10FB03046BDE8B0
:101DB000F08F0024A146A2460122AE4900E0044370
:101DC00015F8013F203B02FA03F00842F7D12878CA
:101DD0002A2810D06FF02F022878A0F130010929AD
:101DE00015D809EB890102EB410144F0020400EB34
:101DF00001096D1CF0E758F8041B5FEA010903D5DF
:101E000044F40054C9F1000944F002046D1C287820
:101E10002E2817D115F8010F44F004042A280ED0FB
:101E20006FF02F022878A0F1300109290AD80AEBB7
:101E30008A0102EB410100EB010A6D1CF2E758F840
:101E400004AB6D1C28786C280FD006DC4C2817D00A
:101E500068280DD06A2814D104E0742810D07A289C
:101E60000FD10DE044F400140AE044F4801401E0C2
:101E700044F440146978814202D104F580146D1C49
:101E80006D1C2878692865D006DC00288DD0632871
:101E900027D0642806D15DE06E2808D073282AD0A8
:101EA000752877D0DDE90D129047761CE0E0C4F389
:101EB0000250022809D003280DD0D8F800100428B9
:101EC0000DD00E6008F10408D2E0D8F80010F21727
:101ED000C1E90062F6E7D8F800100E80F2E70E7054
:101EE000F0E718F8041B8DF8001000208DF80100B1
:101EF000EB46012003E058F804BB4FF0FF306107C8
:101F00004FF0000701D40AE07F1C57450DDA8742E5
:101F1000FADB1BF807100029F6D106E07F1C874288
:101F2000FCDB1BF807100029F8D1DDE90D23A9EB34
:101F300007008146214600F0B1F83044C61904E09C
:101F4000DDE90D121BF8010B90477F1EF8D22146E8
:101F5000484688E058F8040BC4F302514FF00A0BCE
:101F6000032900D100B2042900D140B2002802DACE
:101F700040422D2102E0210505D52B218DF82410AA
:101F8000012104E006E0E10710D02021F6E708AFC8
:101F9000089113E058F8040BC4F302514FF00A0BF8
:101FA000032900D180B2042900D1C0B20021EEE79C
:101FB0005946FEF7B7F8303107F8011D0028F7D170
:101FC000ADEB070000F1200B600702D524F480344C
:101FD00001E04FF0010ADA4502DDAAEB0B0000E058
:101FE0000020824600EB0B0108980144A9EB010098
:101FF0000A90E00306D4DDE90D2321460A9800F09B
:102000004DF806444FF0000908E009A911F809004D
:10201000DDE90D12904709F10109761C08998945FF
:10202000F3DBE0030CD5DDE90D2321460A9800F02F
:1020300035F8064404E0DDE90D1230209047761CA7
:10204000BAF10001AAF1010AF5DC05E0DDE90D12A3
:1020500017F8010B9047761CBBF10001ABF1010BA7
:10206000F4DC0A982146DDE90D2300F005F806446A
:102070006D1C97E6092801002DE9F0410446002572
:102080001E461746880404D405E039462020B04790
:102090006D1C641EF9D52846BDE8F0812DE9F0419C
:1020A000044600251E469046C80301D5302700E0AF
:1020B0002027880404D505E041463846B0476D1C0A
:1020C000641EF9D52846BDE8F0810A68531C0B60F0
:1020D00010707047000000000000000001020304BF
:1020E000060708090000000001020304102100088F
:1020F0000000002010000000681D000820210008DA
:102100001000002028050000781D000800000000D5
:10211000010000001000000000A24A0400000000BE
:04000005080000ED02
:00000001FF
