:020000040800F2
:10000000A8040020C5000008E10D00086D0D0008DF
:1000100000000000000000000000000000000000E0
:100020000000000000000000000000002B0E00088F
:100030000000000000000000290E00082D0E00083E
:10004000D700000800000000D7000008D700000813
:10005000D7000008D7000008D7000008D700000824
:1000600000000000D7000008D7000008D7000008F3
:10007000D7000008D7000008D700000800000000E3
:10008000D70000080000000000000000D7000008B2
:1000900000000000D7000008D7000008D7000008C3
:1000A00000000000D700000800000000D700000892
:1000B0000348854600F076F800480047A914000878
:1000C000A80400200448804704480047FEE7FEE7F4
:1000D000FEE7FEE7FEE7FEE7A50E0008B100000818
:1000E00030B50B46014600202022012409E00D46D0
:1000F000D5409D4205D31D469540491B2546954058
:1001000040191546521E002DF1DC30BD10B5202AD5
:1001100004DB0846203AD040002110BD0B46D340F6
:10012000D0402024A21A91400843194610BD032153
:10013000001D401E037812021A43491EF9D51046CD
:100140007047F0B51FB40646002082B00546402433
:10015000019100901BE0019922460F463046FFF7BF
:10016000D5FF049A059B801A994110D31046194671
:10017000224600F029F8361A8F41019722460120C5
:100180000021009F00F020F838184D4100902046D3
:10019000641E0028DFDC019B00982946324607B028
:1001A000F0BD0000064C0125064E05E0E36807CCD3
:1001B0002B430C3C98471034B442F7D3FFF77CFF35
:1001C000401500086015000810B5202A04DB014620
:1001D000203A9140002010BD914020239C1A0346F4
:1001E000E3401943904010BDF7B50024164605467C
:1001F000570809E00198A1000818FFF798FF10219F
:10020000C84129680860641CA742F3D8F00704D0ED
:100210000198A100405A2968088028680068FEBD3E
:10022000FEB505460024900816460F4601900EE0E4
:10023000A000C0190090FFF77AFF00BA010A0098E9
:100240000902C0780143286801600198641CA0423B
:10025000EED8B00721D0B007800F012803D1A1004C
:100260002A68795C1170022808D1A000C119487869
:10027000097800020843296840BA0880F0438007E3
:100280000BD1A000C01941780278090211432A68F5
:1002900049BA118029688078087028680068FEBD16
:1002A0000020704770B504460020257F0346012DCD
:1002B0000BD00125257702266677266A012E10D0FD
:1002C000022E12D0032E14D106E0022070BD83004E
:1002D0002668CB583360401C9042F8D320680368EE
:1002E00007E02046FFF79CFF02E02046FFF77CFF77
:1002F0000346657700202077184670BD10B50400CE
:100300000DD0607F002803D12077204600F024F82C
:10031000022060772046FFF7C3FF002801D00120AC
:1003200010BD6079002814D0206921680861216817
:1003300088686022904362691043886021688868F9
:1003400080229043A26910438860012060770020DA
:1003500010BD0020C043E8E708B5006805498842A1
:1003600007D10548426940210A434261406908407B
:10037000009008BD003002400010024031B500F08E
:10038000B5F8009C0546601C00D0641C00F0AEF877
:10039000401BA042FAD338BDF8B500238DE00124FC
:1003A0009C40A44622407DD04C68022C01D0122CE7
:1003B0000CD1DC08A40027183C6A5D07ED0E0F265F
:1003C000AE40B4430E69AE4026433E6205685E000F
:1003D0000324B4400F79A543BF07BF0FB7402F4395
:1003E00007604D68012D05D0022D03D0112D01D0DD
:1003F000122D0ED18568CF68A543B7402F43876083
:1004000047686546AF430D79ED06ED0F9D403D43CE
:100410004560C568A5438C68B4402C43C4604C68F3
:10042000E40049D5284CA56901263543A561A46996
:100430009D0834400094254CAD002F19BC689D07E1
:100440002E0F0F25B540AC430925ED06A84201D17A
:1004500000250FE01E4DA84201D101250AE01D4DE7
:10046000A84201D1022505E01B4DA84201D1032578
:1004700000E00525B5402543BD60184C25684E6851
:100480009543F60300D51543256065684E6895438E
:10049000B60300D515436560A5684E689543F6021E
:1004A00002D500E008E01543A560E5684E68954375
:1004B000B60200D51543E5605B1C0A681446DC40B3
:1004C00000D06CE7F8BD00000010024000000140C1
:1004D0000004004800080048000C004800040140E7
:1004E000002A01D08161704781627047014800682D
:1004F000704700000400002002480168491C0160A8
:10050000704700000400002010B506480168102262
:1005100011430160002000F007F800F017F80020F8
:1005200010BD00000020024010B5044600F038F96C
:100530007D21C900FFF7D4FD00F03CFB00222146DD
:10054000501E00F01FF8002010BD000008B50C4838
:10055000816901221143816180691040002200906D
:100560001146501F00F00EF800221146901E00F0B8
:1005700009F800221146501E00F004F808BD0000E2
:100580000010024010B500F02DFC10BDF8B5054676
:100590000068354CC00352D5E0690026C00007D47E
:1005A000E16920040143E161E16901400126009114
:1005B0002E480168C90510D40168821511430160F5
:1005C000FFF794FF074604E0FFF790FFC01B642885
:1005D00024D826480068C005F6D5206A03273F02C4
:1005E000384020D06968394081421CD0206A226A94
:1005F000B843012109040A432262226A8A43226223
:100600002062C0070FD0FFF771FF009008E0FFF7EE
:100610006DFF0099411A1648814201D90320F8BDA7
:10062000206A8007F3D5206A6968B84308432062CE
:10063000002E04D0E169012000078143E1612878A0
:10064000C00705D0206BA96880088000084320639C
:100650002878800605D5206B10218843E968084377
:1006600020630020F8BD0000001002400070004030
:1006700088130000F8B5054644480E460068C007D8
:10068000C00FB0420AD241480168490849003143CD
:1006900001600068C007C00FB0425CD128783C4CB4
:1006A000800705D56068F0218843A9680843606029
:1006B0002878C0073FD06868012813D02168022835
:1006C00013D08907002946DA616889088900014347
:1006D0006160FFF70BFF6968074601290DD0022909
:1006E00017D024E021688903ECE78901EAE7FFF7E6
:1006F000FDFEC11B2748814217D860680007800FA4
:100700000128F4D117E0FFF7F1FEC11B2148814217
:100710000BD860680007800F0228F4D10BE0FFF7C8
:10072000E5FEC11B1B48814201D90320F8BD60686A
:100730000007800FF3D115480168C907C90FB142FE
:100740000BD9016849084900314301600068C007BE
:10075000C00FB04201D00120F8BD2878400706D56F
:100760006068072109028843E9680843606000F077
:100770002DF86168084A0906090F515CC84007490D
:1007800008600020FFF7D0FE0020F8BD00200240E6
:1007900000100240881300002815000808000020FF
:1007A000014800687047000008000020044805491F
:1007B00000684968044A4905490F515CC8407047C0
:1007C00008000020001002403815000810B512A3E0
:1007D0000FCB88B06C460FC413A30FCB0FC41649C0
:1007E0004A680C20134603401448042B0FD0082BF2
:1007F0000DD193021B0F6C46E45CC96A04AB090778
:10080000090F595CD20304D5FFF76AFC604308B0B6
:1008100010BD0B486043FAE7020304050607080908
:100820000A0B0C0D0E0F1010010203040506070839
:10083000090A0B0C0D0E0F100010024000127A0076
:1008400000093D00FEB504460078D04DC00747D0F2
:1008500068680007800F012807D068680007800FCC
:10086000022809D16868C00306D52868800337D5F7
:10087000606800287ED033E0012062680004012A0D
:1008800011D08100002A01D0052A10D02A688243A5
:100890002A602868884328606068002814D0FFF721
:1008A00025FE06460CE0296801432960F4E72A6822
:1008B0000A432A60F7E7FFF719FE801B64286FD808
:1008C00028688003F7D50BE0FFF710FE064604E02A
:1008D000FFF70CFE801B6428F1D828688003F7D44A
:1008E00020780126800700283BDA68680007800F1F
:1008F00007D068680007800F022809D16868C00324
:1009000006D42868800715D5E068012832D111E0A7
:10091000E0680028286815D030432860FFF7E6FD1E
:10092000074604E0FFF7E2FDC01B0228C7D828688D
:100930008007F7D52868F82188432169C900084352
:1009400028600EE0400840002860FFF7CFFD074612
:1009500004E0FFF7CBFDC01B0228B0D82868800751
:10096000F7D42078000724D5E0690028686A10D001
:10097000304300E008E16862FFF7B8FD074604E095
:10098000FFF7B4FDC01B022899D8686A8007F7D525
:100990000FE0400840006862FFF7A8FD074605E049
:1009A0009DE0FFF7A3FDC01B022888D8686A800776
:1009B000F7D4207804274007002860DA002001904F
:1009C000E869C00008D4E969B8060143E961E9694A
:1009D00001400120009101906D480168C90511D4C2
:1009E0000168821511430160FFF780FD009005E06A
:1009F000FFF77CFD0099401A642870D864480068AD
:100A0000C005F5D5A06801280AD0002801D0052826
:100A100010D0286A400840002862286AB84301E0E4
:100A2000286A30432862A068002812D0FFF75EFDD4
:100A300000900AE0286A38432862F1E7FFF756FD84
:100A40000099411A5348814249D8286A8007F5D550
:100A50000DE0FFF74BFD009006E0FFF747FD009922
:100A6000411A4C4881423AD8286A8007F5D4019847
:100A7000002804D0E969012000078143E96120785A
:100A8000C00635D5606901280CD0401D686B23D0A5
:100A900038436863686B400840006863FFF726FDD1
:100AA000064622E0686B38436863686B30436863CE
:100AB000FFF71CFD064604E0FFF718FD801B022827
:100AC0005BD8686B8007F7D5686BF8218843A1690C
:100AD000C900084368630BE0B8436863F4E74CE07F
:100AE000FFF704FD801B022847D8686B8007F7D406
:100AF000206A002846D069680907890F022943D077
:100B0000012636060228286805D0B0432860FFF782
:100B1000EDFC044633E0B0432860FFF7E7FC0746EE
:100B200004E0FFF7E3FCC01B022826D828688001F8
:100B3000F7D4E86AE16A000900010843E862616AE3
:100B4000A06A084369683D22120491430843686023
:100B5000286830432860FFF7C9FC044604E0FFF72B
:100B6000C5FC001B022808D828688001F7D509E0D9
:100B7000FFF7BCFC001B022801D90320FEBD28683A
:100B80008001F5D40020FEBD0120FEBD0010024012
:100B900000700040881300000422044904280869FA
:100BA00002D09043086170471043FBE700E000E08B
:100BB00070470000094910B5401E884201D9012044
:100BC00010BD074C60610321081F00F00BF90020E5
:100BD000A06107202061002010BD0000FFFFFF0082
:100BE00000E000E010B5FFF7E3FF10BD70B50400B2
:100BF00005D025466035687A002802D006E001203D
:100C000070BD00202872204600F026F8242068726B
:100C100020680168490849000160204600F0DEF9BB
:100C20000128EDD0606A002802D0204600F068F963
:100C3000206841680122D2029143416020688168A6
:100C400008229143816020680168012211430160FC
:100C5000204600F0BAF970BD00B500680F4987B0B2
:100C6000884218D10E488269012189030A438261B2
:100C70008069084005900320400200900220019006
:100C8000002002900320039001200490092069466F
:100C9000C006FFF781FB07B000BD0000003801402F
:100CA00000100240FFB5064604466036707A83B0F5
:100CB0000D46202858D1002D0CD00598002809D0C9
:100CC0000120A1680003814207D12069002804D1D6
:100CD000E80702D0012007B0F0BD307A012843D0E8
:100CE000012030720020E06621207072FFF7FEFBC9
:100CF000019027464037059838820598788218E099
:100D0000788A401E78820698009000228021204632
:100D1000019B00F0EDF9002818D10120A168000323
:100D2000814202D12069002812D0216828780885E4
:100D30006D1C788A0028E3D106980090002240219B
:100D40002046019B00F0D4F9002808D00320C2E718
:100D500028882168C005C00D0885AD1CE9E7202062
:100D6000707200203072B6E70220B4E7FEE70000A0
:100D700010B50C480A4901600021017141714161BF
:100D8000816101210162FFF7B9FA002800D0FEE776
:100D90000448FFF785FA002800D0FEE710BD0000E8
:100DA000003002401000002010B50C480A490160D4
:100DB0004B21C901416000218160C16001618161F5
:100DC000C1610C22016242614162FFF70FFF0028FE
:100DD00000D0FEE710BD00000038014034000020C4
:100DE000704700008307FF22DB0E9A408907090E37
:100DF000994000280BDA0007000F083883080848DC
:100E00009B001818C36993430B43C3617047830861
:100E100004489B001B1818689043084318607047EB
:100E200000ED00E000E400E07047704710B5FFF708
:100E300063FBFFF7D7FE10BD30B595B002200090E0
:100E40000125102003950024049008946846FFF7BC
:100E5000F9FC002800D0FEE707200C900D940E94BA
:100E600000210F940CA8FFF705FC002800D0FEE736
:100E700010A810951294FFF789FB002800D0FEE718
:100E8000FFF78EFC7D21C900FFF72AF9FFF792FEDC
:100E90000420FFF781FE00221146501EFFF772FB6F
:100EA00015B030BD1348016801221143016041684B
:100EB000114A114041600168104A11400160016807
:100EC000012292049143016041683F221204914340
:100ED0004160C16A09090901C162016BFF22143234
:100EE00091430163416B49084900416300218160DE
:100EF00070470000001002400CB8FF08FFFFF6FE2C
:100F000010B5818CC90707D001684A6801235B04CA
:100F10009A43836A1A434A60818C890707D501681E
:100F20004A6801231B049A43C36A1A434A60818CAE
:100F3000490707D501684A6801239B049A43036B5C
:100F40001A434A60818C090707D501684A68012362
:100F5000DB039A43436B1A434A60818CC90607D569
:100F60000268916801231B039943836B19439160C5
:100F7000818C890607D501688A6801235B039A433F
:100F8000C36B1A438A60818C490612D503685A687C
:100F900001210905046C8A4322435A60026C8A428B
:100FA00007D10268516803235B059943436C1943D9
:100FB0005160818C090607D501684A680123DB046A
:100FC000806C9A4302434A6010BD0021C166202212
:100FD000603042728272017208467047F8B504466A
:100FE0002369A268E6691A4363691021334300202C
:100FF00026681A4333680546394F3B401343336034
:1010000023685A6803263603B243E66832435A60BF
:10101000236AA26926681A43B3680B273F02BB43C1
:101020001343B3602F4A126B9207920F06D0012A26
:1010300008D0022A08D0032A07D101E0002104E0E9
:10104000022102E0042100E008210122E369D20329
:10105000934224D100290CD002290DD0042913D0A9
:10106000082917D00125010909010007400F08438D
:1010700032E0FFF79BFB09E061681B4A48088018D3
:10108000FFF72EF880B2EEE7FFF7A0FB61684000A3
:101090004A08F4E76168012248081204EFE70029D2
:1010A00008D0022909D004290BD008290ED0012527
:1010B0002846F8BDFFF77AFB05E061680B4A48084F
:1010C00006E0FFF783FB61684A0801E061684808B1
:1010D0008018FFF705F880B22168C860E8E70000D3
:1010E000F369FFFF001002400024F40000127A00B0
:1010F000FFB581B017460E4604460A9D1DE0681CE8
:101100001BD0002D05D0FFF7F1F90499401AA84231
:1011100013D920680168FF22A13291430160206841
:101120008168490849008160202060346072A072A3
:1011300000202072032005B0F0BD2068C169304650
:10114000884304D00020B842D9D00020F3E7012022
:10115000F9E700000FB410B503A9044B044A029844
:1011600000F018F810BC08BC04B018478D14000833
:101170000C00002002E008C8121F08C1002AFAD1A2
:1011800070477047002001E001C1121F002AFBD107
:1011900070470000FFB58FB00F460446002606E0FA
:1011A00025280AD0129A11999047641C761C207841
:1011B0000028F5D1304613B0F0BD00250121A14A29
:1011C000009500E00543641C23780846203B9840C6
:1011D0001042F7D120782E2815D1042005436078DD
:1011E000641C2A280AD101CF641C00900BE00099EE
:1011F0000A22514330394018641C0090207801467F
:1012000030390929F3D920786C280ED004DC4C2819
:1012100013D06A2812D104E074280ED07A280DD198
:101220000BE001204005054307E001210905627834
:101230000D43824201D16D18641C641C20788646DF
:1012400069284AD008DC0028B4D058286DD063281B
:1012500010D0642808D140E070286BD0732812D0D9
:10126000752860D0782860D0129A704611999047FE
:10127000761CE5E03878694608720020487202A8BA
:101280000190012003E0386801900020C0433F1D19
:1012900069070CD5002500E06D1C00998D420FDA1E
:1012A0008542F9DB0199495D0029F5D108E0002567
:1012B00000E06D1C8542FCDB0199495D0029F8D1F5
:1012C000761907E0019801990078491C0191129A5A
:1012D000119990476D1EF5D2B2E00A2002900021CC
:1012E0006802400F039102280CD001CFC117844639
:1012F00000290DDA62460846524200218141944697
:101300002D2008E0FF1DFF08FF0003CF8446EFE714
:10131000280504D52B206A46107401203CE0E8071C
:101320003AD02020F7E70A2000E0102000210391A6
:10133000029007E0102002900021042005430820BD
:10134000039100906802400F022810D001CF0021C5
:10135000844600200D9028071FD5704670280CD0B9
:10136000029A1020039B42401A430CD015E0FF1D47
:10137000FF08FF0003CF8446EBE740206A46107465
:1013800001200D900CE06046084306D030206A46EC
:1013900010747046507402200D907046582804D086
:1013A00029A001900DA80E900DE02CA0F9E7604651
:1013B000039B029AFEF7C5FE019B84469B5C0E9A36
:1013C000521E0E92137060460843F0D10E9805A984
:1013D000081A20300190680701D5009801E001202B
:1013E00000900199884203DD01460198081A00E047
:1013F00000200025009006E004A8129A405D119993
:1014000090476D1C761C0D988542F5DB04E0129A1E
:10141000302011999047761C0099481E00900029B1
:10142000F5DC08E00E980E990078491C0E91129A8E
:1014300011999047761C0199481E01900029F1DC12
:10144000641CB4E6092801003031323334353637B4
:101450003839616263646566000000003031323300
:1014600034353637383941424344454600000000A0
:1014700010B504460448FEF741FF03222146024806
:10148000FEF710FFC0B210BD1000002013B5044BD2
:10149000012269460348FFF705FC00981CBD0000C7
:1014A000FFFF00003400002086B0FFF72DF8FFF7A3
:1014B000C3FC19484269012189040A434261426917
:1014C0000A400592426949100A4342614069134C3F
:1014D00008400590002202212046FFF701F8022073
:1014E000009000210120029103910190694620465D
:1014F000FEF752FFFFF73CFCFFF756FC7D24E400AB
:101500000748FFF7B5FF014606A0FFF723FE204678
:10151000FEF734FFF4E7000000100240000400482A
:1015200000000020257800000000000000000000FE
:101530000102030406070809000000000102030479
:101540006015000800000020100000007411000861
:101550007015000810000020980400008411000895
:10156000010203000000000000127A0000000000E9
:04000005080000B13E
:00000001FF
