:020000040800F2
:10000000A0040020C5000008610D0008D30C000802
:1000100000000000000000000000000000000000E0
:10002000000000000000000000000000650D000856
:100030000000000000000000630D0008670D0008CC
:10004000D700000800000000D7000008D700000813
:10005000D7000008D7000008D7000008D700000824
:1000600000000000D7000008D7000008D7000008F3
:10007000D7000008D7000008D700000800000000E3
:10008000D70000080000000000000000D7000008B2
:1000900000000000D7000008D7000008D7000008C3
:1000A00000000000D700000800000000D700000892
:1000B0000348854600F08EF8004800474D110008BF
:1000C000A00400200448804704480047FEE7FEE7FC
:1000D000FEE7FEE7FEE7FEE7C10D0008B1000008FD
:1000E00030B50B46014600202022012409E00D46D0
:1000F000D5409D4205D31D469540491B2546954058
:1001000040191546521E002DF1DC30BDF0B51FB46C
:100110000646002082B005464024019100901BE075
:10012000019922460F46304600F020F8049A059BBC
:10013000801A994110D310461946224600F039F82A
:10014000361A8F410197224601200021009F00F0BE
:1001500030F838184D4100902046641E0028DFDC3E
:10016000019B00982946324607B0F0BD10B5202A01
:1001700004DB0846203AD040002110BD0B46D34096
:10018000D0402024A21A91400843194610BDD2B293
:1001900001E00270401C491EFBD270470022F6E7C6
:1001A00010B513460A4604461946FFF7F0FF2046ED
:1001B00010BD10B5202A04DB0146203A91400020F2
:1001C00010BD914020239C1A0346E3401943904000
:1001D00010BD0000064C0125064E05E0E36807CC83
:1001E0002B430C3C98471034B442F7D3FFF764FF1D
:1001F000BC110008DC110008F8B500238DE00124D3
:100200009C40A44622407DD04C68022C01D0122C88
:100210000CD1DC08A40027183C6A5D07ED0E0F2600
:10022000AE40B4430E69AE4026433E6205685E00B0
:100230000324B4400F79A543BF07BF0FB7402F4336
:1002400007604D68012D05D0022D03D0112D01D07E
:10025000122D0ED18568CF68A543B7402F43876024
:1002600047686546AF430D79ED06ED0F9D403D4370
:100270004560C568A5438C68B4402C43C4604C6895
:10028000E40049D5284CA56901263543A561A46938
:100290009D0834400094254CAD002F19BC689D0783
:1002A0002E0F0F25B540AC430925ED06A84201D11C
:1002B00000250FE01E4DA84201D101250AE01D4D89
:1002C000A84201D1022505E01B4DA84201D103251A
:1002D00000E00525B5402543BD60184C25684E68F3
:1002E0009543F60300D51543256065684E68954330
:1002F000B60300D515436560A5684E689543F602C0
:1003000002D500E008E01543A560E5684E68954316
:10031000B60200D51543E5605B1C0A681446DC4054
:1003200000D06CE7F8BD0000001002400000014062
:100330000004004800080048000C00480004014088
:10034000002A01D08161704781627047014880684E
:100350007047000000000020024881680278891878
:10036000816070470000002010B506480168102227
:1003700011430160002000F007F800F027F800208A
:1003800010BD00000020024070B504460D4D7D20D8
:100390002978C000FFF7A4FE01460B480068FFF76C
:1003A0009FFE00F037FB002809D1042C07D2002261
:1003B0002146401E00F01EF800206C6070BD012038
:1003C00070BD0000000000200C00002008B50848A7
:1003D0008169012211438161816911400091C269E3
:1003E00001040A43C261C0690840009008BD0000D2
:1003F0000010024010B500F077FE10BDF8B50546BC
:100400000068354CC00352D5E0690026C00007D40F
:10041000E16920040143E161E169014001260091A5
:100420002E480168C90510D4016882151143016086
:10043000FFF78CFF074604E0FFF788FFC01B642826
:1004400024D826480068C005F6D5206A03273F0255
:10045000384020D06968394081421CD0206A226A25
:10046000B843012109040A432262226A8A432262B4
:100470002062C0070FD0FFF769FF009008E0FFF788
:1004800065FF0099411A1648814201D90320F8BD41
:10049000206A8007F3D5206A6968B8430843206260
:1004A000002E04D0E169012000078143E161287832
:1004B000C00705D0206BA96880088000084320632E
:1004C0002878800605D5206B10218843E968084309
:1004D00020630020F8BD00000010024000700040C2
:1004E00088130000F8B50F46060059D03A4D286829
:1004F000C007C00FB84209D22868400840003843FE
:1005000028602868C007C00FB84249D13068334C12
:1005100081070CD5400704D560680721090208430C
:1005200060606068F0218843B1680843606030789B
:10053000C00726D0706801280ED0216802280ED08E
:10054000890700292CDA6168890889000143616004
:10055000FFF7FCFE00900DE021688903F1E78901B7
:10056000EFE7FFF7F3FE0099411A1D48814201D9D8
:100570000320F8BD60680C2108407168890088423A
:10058000EFD12868C007C00FB8420BD928684008CF
:100590004000384328602868C007C00FB84201D027
:1005A0000120F8BD3078400706D5606807210902B0
:1005B0008843F1680843606000F028F86168094AE0
:1005C0000906090F515CC840074908600020FFF781
:1005D000DBFE0020F8BD00000020024000100240B9
:1005E00088130000A41100080C00002004480549ED
:1005F00000684968044A4905490F515CC840704782
:100600000C00002000100240B411000810B514A323
:100610000FCB88B06C460FC415A30FCB0FC4184A7C
:1006200051680C200B4603401648042B16D0082BAB
:1006300014D18B021B0F6C46E45CD26A04AB120728
:10064000120F9A5CC90305D500231946FFF75EFD1A
:10065000214601E020460C4900F02EFD08B010BDF7
:1006600002030405060708090A0B0C0D0E0F1010F3
:100670000102030405060708090A0B0C0D0E0F10F2
:100680000010024000127A0000093D00FEB504008F
:1006900070D02078DC4DC0074AD068680007800F12
:1006A000012807D068680007800F022809D1686810
:1006B000C00306D5286880033AD560680028E7D0D3
:1006C00036E06168012914D001208004002901D09E
:1006D000052914D02A68012109048A432A6029685F
:1006E000814329606068002816D0FFF72FFE064678
:1006F0000EE028680121090408432860F2E7296810
:1007000001432960F5E7FFF721FE801B64286ED8BE
:1007100028688003F7D50BE0FFF718FE064604E0D3
:10072000FFF714FE801B6428F1D828688003F7D4F3
:1007300020780126800700283CDA68680007800FCF
:1007400007D068680007800F022809D16868C003D5
:1007500006D42868800716D5E06801280AD112E07F
:10076000E0680028286816D030432860FFF7EEFDC7
:10077000074605E043E1FFF7E9FDC01B0228C6D8A4
:1007800028688007F7D52868F82188432169C900BF
:10079000084328600EE0400840002860FFF7D6FDBF
:1007A000074604E0FFF7D2FDC01B0228AFD8286837
:1007B0008007F7D42078000722D5E0690028686A0E
:1007C0000ED030436862FFF7C1FD074604E0FFF733
:1007D000BDFDC01B02289AD8686A8007F7D50FE0D4
:1007E000400840006862FFF7B1FD074605E09DE064
:1007F000FFF7ACFDC01B022889D8686A8007F7D4D0
:10080000207804274007002860DA00200190E8697A
:10081000C00008D4E969B8060143E961E96901400B
:1008200001200091019079480168C90511D401683F
:10083000821511430160FFF789FD009005E0FFF785
:1008400085FD0099401A642870D870480068C0057A
:10085000F5D5A06801280AD0002801D0052810D0BD
:10086000286A400840002862286AB84301E0286AE4
:1008700030432862A068002812D0FFF767FD00907F
:100880000AE0286A38432862F1E7FFF75FFD009924
:10089000411A5F48814249D8286A8007F5D50DE0A2
:1008A000FFF754FD009006E0FFF750FD0099411A54
:1008B000574881423AD8286A8007F5D40198002821
:1008C00004D0E969012000078143E9612078C0066E
:1008D00035D5606901280CD0401D686B23D03843A2
:1008E0006863686B400840006863FFF72FFD0646A9
:1008F00022E0686B38436863686B30436863FFF7D6
:1009000025FD064604E0FFF721FD801B02285BD889
:10091000686B8007F7D5686BF8218843A169C90027
:10092000084368630BE0B8436863F4E74CE0FFF703
:100930000DFD801B022847D8686B8007F7D4206A1A
:1009400000285ED069680907890F022942D0012674
:1009500036060228286805D0B0432860FFF7F6FC69
:10096000044633E0B0432860FFF7F0FC074604E09C
:10097000FFF7ECFCC01B022826D828688001F7D4BA
:10098000E86AE16A000900010843E862616AA06A56
:10099000084369683D22120491430843686028684F
:1009A00030432860FFF7D2FC044604E0FFF7CEFC9A
:1009B000001B022808D828688001F7D521E0FFF73E
:1009C000C5FC001B022801D90320FEBD2868800158
:1009D000F5D416E00128F8D06868E96A012212040B
:1009E000636A02409A420AD10907E26A090F9142FA
:1009F00005D10F2189040840A16A884201D0012055
:100A0000FEBD0020FEBD000000100240007000404E
:100A100088130000094910B5401E884201D9012001
:100A200010BD074C60610321081F00F05DFB002032
:100A3000A06107202061002010BD0000FFFFFF0023
:100A400000E000E010B5040003D0606F002802D081
:100A500007E0012010BD002170200155204600F064
:100A600027F8242060672068016849084900016070
:100A7000204600F03BFA0128ECD0606A002802D042
:100A8000204600F09EF9206841680122D20291437D
:100A90004160206881680822914381602068016874
:100AA000012211430160204600F0F0F910BD000062
:100AB00010B586B0044614216846FFF76FFB134952
:100AC000206888421FD112488269012189030A43A4
:100AD000826182690A4005924269C9000A43426103
:100AE00040690840059003204002009002200190D8
:100AF0000020029003200390012004900920694601
:100B0000C006FFF779FB06B010BD000000380140B9
:100B100000100240FFB50446806F85B017460E46B0
:100B200020286AD1002E0AD0002F08D0A168C00169
:100B3000814207D12069002804D1F00702D00120AA
:100B400009B0F0BD204660300290007C012854D0EE
:100B50000298012101740020E0672220A067FFF7BE
:100B6000F5FB2546403504902F836F830120A16853
:100B70000003FF22814204D12369002B09D1204ABE
:100B800007E0002901D0002203E02369002B00D0F8
:100B90007F22AA8392B20192814202D12069002869
:100BA00002D03746002600E00027D0B20390688BC1
:100BB00000281CD008980090002220212046049B89
:100BC00000F02CFA002801D00320B9E72068002F9C
:100BD000808C07D00399084038707F1C688B401EBA
:100BE0006883E4E7019908403080B61CF6E72020CE
:100BF000A067029900200874A2E70220A0E7000085
:100C0000FF010000FFB50446406F83B017460D4654
:100C100020285CD1002D0AD0002F08D0A168C00187
:100C2000814207D12069002804D1E80702D00120C1
:100C300007B0F0BD204660300290007C012846D00D
:100C40000298012101740020E06721206067FFF70E
:100C50007DFB264640360190378277820120A168CD
:100C60000003814202D12069002802D02F460025CE
:100C700011E000270FE000228021204600F0CEF98D
:100C8000002815D1002F15D02168387808857F1CE1
:100C9000708A401E7082708A019B0028069800901E
:100CA000E9D100224021204600F0B8F9002808D000
:100CB0000320BDE728882168C005C00D0885AD1C4C
:100CC000E6E720206067029900200874B0E7022060
:100CD000AEE7FEE710B586B014216846FFF75EFA6E
:100CE00011484269012189040A43426142690A406C
:100CF0000592426949100A43426140690B4C084021
:100D00000590002202212046FFF71AFB02200090E6
:100D10000021012002910391019069462046FFF7CE
:100D20006BFA06B010BD000000100240000400483D
:100D300010B50A48084901604B21C90141600021F2
:100D40008160C16001618161C1610C220162426107
:100D50004162FFF777FE10BD00380140100000200F
:100D600070477047704710B5FFF7F6FA10BD30B501
:100D700095B030216846FFF711FA00240F94022045
:100D80000D940E94009012940125139410200C944D
:100D9000039504901094119408946846FFF776FC2C
:100DA00007200C900D940E9400210F940CA8FFF7CF
:100DB00099FB10A810951294FFF720FB15B030BDD9
:100DC000704710B5818CC90707D001684A680123B4
:100DD0005B049A43836A1A434A60818C890707D56A
:100DE00001684A6801231B049A43C36A1A434A6094
:100DF000818C490707D501684A6801239B049A43FF
:100E0000036B1A434A60818C090707D501684A6859
:100E10000123DB039A43436B1A434A60818CC90662
:100E200007D50268916801231B039943836B19431B
:100E30009160818C890607D501688A6801235B036C
:100E40009A43C36B1A438A60818C490612D50368A2
:100E50005A6801210905046C8A4322435A60026CD6
:100E60008A4207D10268516803235B059943436CAA
:100E700019435160818C090607D501684A6801232E
:100E8000DB04806C9A4302434A6010BDF8B500262B
:100E90000446C667FFF75AFA054620680068124FF5
:100EA000000709D501212B4600224905204600975D
:100EB00000F0B4F800280DD12068006840070BD579
:100EC00001212B46002289052046009700F0A6F854
:100ED000002801D00320F8BD20206067A06760349F
:100EE00026740020F8BD0000FFFFFF0170B5044626
:100EF00080682169E269084361690025114322681D
:100F000008431168404B194001431160216848684B
:100F1000032212039043E26810434860A169206AEB
:100F20002268084391680B231B0299430143916097
:100F30003648006B8007800F06D0012815D00228A4
:100F400015D003280FD010200122E169D203304EC2
:100F500091422ED100280CD002280DD004281DD09B
:100F600008284AD120E00220EEE70420ECE7082020
:100F7000EAE7FFF73BFB13E06168264A4808801860
:100F8000FFF7AEF880B201461039B14235D820499A
:100F9000491C01400007400F084321E0FFF736FBE2
:100FA000616840004A08EAE76168012248081204C3
:100FB000E5E7002806D0022807D0042813D0082827
:100FC0001BD116E0FFF712FB0FE06168124A4808D8
:100FD00011E0FFF785F880B201461039B1420CD814
:100FE0002168C8600AE0FFF711FB61684A08101821
:100FF000EFE7616848088018EBE7012500202066CC
:101000006066284670BD0000F369FFFF00100240D3
:10101000EFFF00000024F40000127A00FFB581B059
:1010200005460F46044660350A9E38E0701C36D0EF
:10103000FFF78CF90499401AB04221D8002E1FD036
:101040002068016849072AD5C069C043000526D435
:1010500001202168C002086220680168FF22A132D5
:10106000914301602068816849084900816020201F
:101070006067A067E06700202874032005B0F0BD1A
:1010800020680168FF22A1329143016020688168D5
:1010900049084900816020206067A067EBE720686D
:1010A000C1693846884305D0002103988142BDD0EC
:1010B0000020E3E70121F8E7F8B5040C8BB22646DF
:1010C00082B25E430D0C1046370C5843360480192B
:1010D0000021794116466E43370C36048019794158
:1010E00026466E438919F8BD8307FF22DB0E9A401E
:1010F0008907090E9940002808DB830809489B00EE
:101100001B18186890430843186070470007000FC9
:101110000838830804489B001B18D869904308438B
:10112000D861704700E400E000ED00E002E008C88C
:10113000121F08C1002AFAD170477047002001E051
:1011400001C1121F002AFBD170470000FFF70CF904
:10115000FFF70DFEFFF7BEFDFFF7EAFD7D240F4E02
:101160000F4DE4000D49234608460A228038FFF758
:10117000D1FC30784F28F5D10849642308460A226B
:101180008038FFF73FFD0A210448FFF707F80122E6
:1011900002212846FFF7D4F8E4E700009000002081
:1011A00000040048000000000000000001020304E9
:1011B000060708090000000001020304DC11000812
:1011C00000000020100000002C110008EC110008A5
:1011D00010000020900400003C11000801000000F5
:0C11E000040000000000000000127A0073
:04000005080000B13E
:00000001FF
