:020000040800F2
:10000000D0040020C5000008351700088D16000830
:1000100000000000000000000000000000000000E0
:100020000000000000000000000000007F17000832
:1000300000000000000000007D1700088117000884
:10004000D700000800000000D7000008D700000813
:10005000D7000008D7000008D7000008D700000824
:1000600000000000D7000008D7000008D7000008F3
:10007000D7000008D7000008D700000800000000E3
:10008000D70000080000000000000000D7000008B2
:1000900000000000D7000008D7000008D7000008C3
:1000A00000000000D700000800000000D700000892
:1000B0000348854600F0D6FA00480047E1230008CF
:1000C000D00400200448804704480047FEE7FEE7CC
:1000D000FEE7FEE7FEE7FEE7FD170008B1000008B7
:1000E00030B50B46014600202022012409E00D46D0
:1000F000D5409D4205D31D469540491B2546954058
:1001000040191546521E002DF1DC30BD10B5202AD5
:1001100004DB0846203AD040002110BD0B46D340F6
:10012000D0402024A21A91400843194610BD02462F
:1001300070B54A40D30FDB0740002DD04A002AD0CB
:10014000010E140E000212020919400A520A841804
:10015000E50104465443000A120A2E045043A41930
:100160004219200CC543AA18120C0125AD03521CDC
:10017000521912047F39240400D0521C104301D4B8
:100180004000491EC2B20C06C0092018401C40089D
:10019000802A02D003E0002070BD40084000002902
:1001A00000DA0020184370BD420005D04200120E54
:1001B00052428A4201DB00207047C9050818704787
:1001C00010B500229623114600F04DF810BDC20F65
:1001D000D207400040080BD0C10D0723DB01C9182E
:1001E00040020905400A1143C20840071143704705
:1001F000002001467047F0B51FB40646002082B0CB
:1002000005464024019100901BE0019922460F46CB
:100210003046FFF77BFF049A059B801A994110D363
:1002200010461946224600F02FFA361A8F410197E0
:10023000224601200021009F00F026FA38184D4187
:1002400000902046641E0028DFDC019B00982946B0
:10025000324607B0F0BD002904DA401C490001D144
:1002600040084000704770B40024050C05D11024EC
:10027000000402D1002921D01124050E01D1000271
:100280000834050F01D10001241D850F01D1800024
:10029000A41C002801DB4000641C002908D0202594
:1002A0002E1B0D46F540A14000D0012129430843F3
:1002B00001061B1B000ADB1D02D5002070BC704725
:1002C000DB05181880180029F8DA401C4900F5D120
:1002D00070BC400840007047F0B5074608465840DB
:1002E00087B0C00F049048000E46590040084908E6
:1002F000BC1A884105D2384631461E4617460B4681
:1003000002465800400810434CD0300D0390400581
:100310005900400D490D0590401A0290402872DAAC
:1003200018030121000B090508430190049800926D
:10033000002805D001995242002088410092019086
:10034000029840210A1A0199009800F09DF905468B
:100350000C466B4607CB00F0A7F9C0197141039A10
:100360000E0D0023D71756401A467A40164344D044
:10037000049A002A2DD0029A012A039A15DC12054C
:10038000C01A914101263605001C7141D20F059E0D
:10039000D2070093019202962A46234600F0A4F960
:1003A00007B0F0BD38463146FAE71605224A0F4637
:1003B000B218C01AB74101210905001C4F410018AD
:1003C0007F41114618187941E20F10436D196441BD
:1003D00013E0E2076D0815436408C2071443039A4B
:1003E00001261205C01A91413605001C7141CE0745
:1003F000400830434908C01851412A46234600F0BE
:1004000066F9CDE7FFE7049801224000C117121AF0
:1004100000238B4104983146C417381AA141EEE7F6
:1004200030B40124E407634030BC55E730B4012404
:10043000E407614030BC4FE70000E0FFF0B51FB4B7
:1004400088B00B990998002448400999C00F4900C9
:1004500049080991C0070B990090490049080B9180
:1004600009990898A64608431CD00B990A98084396
:1004700018D0099801244000420D4800410D099808
:1004800024050003000B204309900B980003000B88
:1004900020430B9050181C4940180022019014462C
:1004A000104605E0002001460DB0F0BD032801DA3A
:1004B000034600E003239C46C11A0AAE0AE05F002F
:1004C00008ADED5B4F00F75B7D430027AA187C4128
:1004D000491C5B1E6145F2DD410004AB5A52210408
:1004E000120C0A43240C401C0828DFDB0198029000
:1004F0000099704601910090059B049A079906980F
:1005000000F0F2F8D0E700000DFCFFFFF0B50C465C
:100510005C4085B0E40FE40703944C0000266408B7
:1005200059009446490802460296224321D0624669
:100530000A431ED06200570D4A000E032303550DD7
:10054000012402462C492405781B1B0B360B40184E
:1005500023432643614600901C46501AB44103D3FE
:100560000098401C009002E0921800985B4100281F
:1005700003DA0020014605B0F0BD00200121090585
:100580000746864611E064461D46141BB54106D356
:100590006546521BB341744607430C43A646CD073C
:1005A00040084908284392185B4105460D43EAD1AB
:1005B0001046184313D06046194650407140084316
:1005C00006D06046101AB34106D20122002306E08D
:1005D00000220123DB0702E00122D24353100098DE
:1005E00074460105381C6141029C039D0019694154
:1005F00000F06DF8BFE70000FD0300004A000903AA
:100600000123090B1B0519430A4B10B5520D9A42E1
:1006100002DA0020014610BD064B34339A4203DC57
:100620009A1AFFF773FD10BD034BD21800F02CF897
:1006300010BD0000FF030000CDFBFFFF10B5002937
:1006400004DB0124E40740428C412146002B04DBFB
:100650001C460123DB075242A341994200D190423C
:1006600010BD0000064C0125064E05E0E36807CCEE
:100670002B430C3C98471034B442F7D3FFF71CFDD2
:10068000A4240008C424000810B5202A04DB014675
:10069000203A9140002010BD914020239C1A03462F
:1006A000E3401943904010BD10B5202A06DBCB175C
:1006B0000846203A1041C1170B4306E00B46134190
:1006C000D0402024A21A91400843194610BD10B50D
:1006D000002B08DA0024401C614192185B411A4348
:1006E00001D14008400010BDF0B51FB482B00546EE
:1006F0000C0003D0084601F0E9F902E001F0E6F948
:1007000020300246009021462846FFF7BDFF049B9B
:10071000059A04460F4618431143084314D018465F
:1007200010431BD0009840210A1A18460599FFF77C
:10073000EDFC05460E46009A05990498FFF7A4FFC4
:10074000084305D0012004E02046394607B0F0BD3B
:100750000020C11705430E432C43374300990E98E0
:100760006305401A7905E40A00220C43FD0A0A30A9
:1007700002D500200146E9E70105101969410C9CEA
:100780000D9D00196941FFF7A2FFDFE7F8B50446A8
:1007900000200090206881688907890F012905D110
:1007A0000168C9072CD1C168090429D48168154A98
:1007B000102611400125002915D181682943816047
:1007C000124811490068FFF78BFC00E0401E0090C2
:1007D0000028FBD100F01AFB07460CE000F016FBE6
:1007E000C01B022807D9606C30436064A06C2843AA
:1007F000A0640120F8BD20680068C043C007EDD1A7
:100800000020F8BD1700008040420F0008000020C3
:10081000F8B505460446403528780026012808D05A
:1008200001202870206881688907890F012908D173
:1008300001E00220F8BD0168C90738D1C168090488
:1008400035D4616CFF22013291430222114361646D
:10085000C1688907890F0091C16889088900C16052
:100860002068816892071143816000F0CFFA074643
:100870000EE000F0CBFAC01B022809D9606C0221FF
:100880008843102108436064002028700120F8BDCF
:10089000206880680028ECDB2068C168009A11435A
:1008A000C160606C80088000401C606404E0606C83
:1008B0002021084360640126002028703046F8BDDE
:1008C000F8B500250446403400952278012A39D035
:1008D0000122227003689E68760767D4384F4E68FD
:1008E000BE424DD09E6A0F78BA4016439E620123E5
:1008F000826B1B079A421FD0012A1DD0022A1BD0EF
:10090000032A19D0042A17D0052A15D0062A13D095
:10091000072A11D002688B6856697607760FB342B2
:100920000AD05369DB08DB005361006842690B7A27
:100930005B075B0F1A4342610A68102A04D0112A30
:1009400002D038E00220F8BD1E488368102A07D084
:1009500001229205134383600868102803D02AE01F
:100960000122D205F6E7194817490068FFF7B8FBDE
:100970000A21484300E0401E00900028FBD11AE005
:10098000986A0E78B240904398620968102901D0A5
:10099000112910D10B488268102904D00121890542
:1009A0008A43826007E00121C905F9E7416C2022F2
:1009B000114341640125002020702846F8BD000045
:1009C000011000000027014040420F0008000020F5
:1009D0000068006C70470000F8B500250446002848
:1009E00003D0606C002802D008E00120F8BD002090
:1009F000A06440210855204600F0A8F8606C102241
:100A0000C006002870DB2068816849076CD4616CDF
:100A10001301994302231943616481688907890F8F
:100A2000012905D10168C9070FD1C16809040CD497
:100A3000C16818239943A3681943C16020680169FC
:100A4000636889008908194301612068C1683D4BCA
:100A50001940C160A069E1698003C9030843216AA4
:100A60004B031843636B012B02D001231B0300E0EF
:100A700000231843E36818432369022B09D000239D
:100A80001843236B666A5B0018430123012E02D0D2
:100A90000AE00423F4E7002927D0616C20263143C3
:100AA0006164A16C1943A164A16A0E46FF3EC23E77
:100AB00002D0E66A314308432168CE680643CE601F
:100AC0000126A16B3607B14213D0012911D00229AA
:100AD0000FD003290DD004290BD0052909D00629F0
:100AE00007D0072905D010E028E0012109040843B8
:100AF000DAE721684E69F608F6004E6121684E6912
:100B0000278F7F077F0F3E434E612168C9680E4ED5
:100B10003140814207D10020A064606C80088000D1
:100B2000401C606408E0606C0221884310436064EC
:100B3000A06C1843A06401252846F8BD606C1043E2
:100B40006064F8E71902FEFFE7FF3F8300B5006825
:100B50000B4987B0884211D10A48826941150A437E
:100B60008261806908400590022000900320019076
:100B7000002002906946044800F0A4F807B000BDC8
:100B8000002401400010024000040048F8B504466B
:100B90004069254640350E4608280BD02068C068BD
:100BA000C00709D0606C20210843606400202870D1
:100BB0000120F8BD082700E00C2700F027F900907D
:100BC00011E0701C0FD0002E05D000F01FF9009925
:100BD000401AB04207D9606C0421084360640020C9
:100BE00028700320F8BD206800683842E9D0606CA6
:100BF00001214902084360642068C16809058A0F21
:100C00000C21002A1AD1226A002A17D10268120781
:100C100014D5826853070122002B08DB43688B43FD
:100C20004360606C130298431043606406E0606C9C
:100C3000202318436064A06C1043A064A0690028BE
:100C400001D1206801600020F8BD000070B50446A5
:100C5000216800208968490721D425464035297834
:100C600001291CD001212970E169012904D0204605
:100C7000FFF78CFD002811D1616C0A4A1140FF2258
:100C80000132114361640021A164297022681C2192
:100C9000116021688A6804231A438A6070BD0220AB
:100CA00070BD0000FEF1FFFF31B500F0AFF8009C11
:100CB0000546601C00D0641C00F0A8F8401BA04250
:100CC000FAD338BDF8B500238DE001249C40A4463A
:100CD00022407DD04C68022C01D0122C0CD1DC08B3
:100CE000A40027183C6A5D07ED0E0F26AE40B44302
:100CF0000E69AE4026433E6205685E000324B440A0
:100D00000F79A543BF07BF0FB7402F4307604D685A
:100D1000012D05D0022D03D0112D01D0122D0ED1A1
:100D20008568CF68A543B7402F438760476865460D
:100D3000AF430D79ED06ED0F9D403D434560C5681D
:100D4000A5438C68B4402C43C4604C68E40049D58A
:100D5000284CA56901263543A561A4699D08344046
:100D60000094254CAD002F19BC689D072E0F0F2550
:100D7000B540AC430925ED06A84201D100250FE09E
:100D80001E4DA84201D101250AE01D4DA84201D106
:100D9000022505E01B4DA84201D1032500E00525F1
:100DA000B5402543BD60184C25684E689543F60351
:100DB00000D51543256065684E689543B60300D598
:100DC00015436560A5684E689543F60202D500E0BC
:100DD00008E01543A560E5684E689543B60200D566
:100DE0001543E5605B1C0A681446DC4000D06CE7E4
:100DF000F8BD00000010024000000140000400485F
:100E000000080048000C0048000401400148006848
:100E1000704700000000002002480168491C016082
:100E2000704700000000002010B50648016810223D
:100E300011430160002000F007F800F017F80020CF
:100E400010BD00000020024010B5044600F038F943
:100E50007D21C900FFF744F900F03CFB0022214648
:100E6000501E00F01FF8002010BD000008B50C480F
:100E70008169012211438161806910400022009044
:100E80001146501F00F00EF800221146901E00F08F
:100E900009F800221146501E00F004F808BD0000B9
:100EA0000010024010B500F047FC10BDF8B5054633
:100EB0000068354CC00352D5E0690026C00007D455
:100EC000E16920040143E161E169014001260091EB
:100ED0002E480168C90510D40168821511430160CC
:100EE000FFF794FF074604E0FFF790FFC01B64285C
:100EF00024D826480068C005F6D5206A03273F029B
:100F0000384020D06968394081421CD0206A226A6A
:100F1000B843012109040A432262226A8A432262F9
:100F20002062C0070FD0FFF771FF009008E0FFF7C5
:100F30006DFF0099411A1648814201D90320F8BD7E
:100F4000206A8007F3D5206A6968B84308432062A5
:100F5000002E04D0E169012000078143E161287877
:100F6000C00705D0206BA968800880000843206373
:100F70002878800605D5206B10218843E96808434E
:100F800020630020F8BD0000001002400070004007
:100F900088130000F8B5054644480E460068C007AF
:100FA000C00FB0420AD241480168490849003143A4
:100FB00001600068C007C00FB0425CD128783C4C8B
:100FC000800705D56068F0218843A9680843606000
:100FD0002878C0073FD06868012813D0216802280C
:100FE00013D08907002946DA61688908890001431E
:100FF0006160FFF70BFF6968074601290DD00229E0
:1010000017D024E021688903ECE78901EAE7FFF7BC
:10101000FDFEC11B2748814217D860680007800F7A
:101020000128F4D117E0FFF7F1FEC11B21488142EE
:101030000BD860680007800F0228F4D10BE0FFF79F
:10104000E5FEC11B1B48814201D90320F8BD606841
:101050000007800FF3D115480168C907C90FB142D5
:101060000BD9016849084900314301600068C00795
:10107000C00FB04201D00120F8BD2878400706D546
:101080006068072109028843E9680843606000F04E
:101090002DF86168084A0906090F515CC8400749E4
:1010A00008600020FFF7D0FE0020F8BD00200240BD
:1010B00000100240881300008C2400080800002063
:1010C00001480068704700000800002004480549F6
:1010D00000684968044A4905490F515CC840704797
:1010E00008000020001002409C24000810B512A344
:1010F0000FCB88B06C460FC413A30FCB0FC4164997
:101100004A680C20134603401448042B0FD0082BC8
:101110000DD193021B0F6C46E45CC96A04AB09074E
:10112000090F595CD20304D5FEF7DAFF604308B01B
:1011300010BD0B486043FAE70203040506070809DF
:101140000A0B0C0D0E0F1010010203040506070810
:10115000090A0B0C0D0E0F100010024000127A004D
:1011600000093D00FEB504460078D04DC00747D0C9
:1011700068680007800F012807D068680007800FA3
:10118000022809D16868C00306D52868800337D5CE
:10119000606800287ED033E0012062680004012AE4
:1011A00011D08100002A01D0052A10D02A6882437C
:1011B0002A602868884328606068002814D0FFF7F8
:1011C00025FE06460CE0296801432960F4E72A68F9
:1011D0000A432A60F7E7FFF719FE801B64286FD8DF
:1011E00028688003F7D50BE0FFF710FE064604E001
:1011F000FFF70CFE801B6428F1D828688003F7D421
:1012000020780126800700283BDA68680007800FF5
:1012100007D068680007800F022809D16868C003FA
:1012200006D42868800715D5E068012832D111E07E
:10123000E0680028286815D030432860FFF7E6FDF5
:10124000074604E0FFF7E2FDC01B0228C7D8286864
:101250008007F7D52868F82188432169C900084329
:1012600028600EE0400840002860FFF7CFFD0746E9
:1012700004E0FFF7CBFDC01B0228B0D82868800728
:10128000F7D42078000724D5E0690028686A10D0D8
:10129000304300E008E16862FFF7B8FD074604E06C
:1012A000FFF7B4FDC01B022899D8686A8007F7D5FC
:1012B0000FE0400840006862FFF7A8FD074605E020
:1012C0009DE0FFF7A3FDC01B022888D8686A80074D
:1012D000F7D4207804274007002860DA0020019026
:1012E000E869C00008D4E969B8060143E961E96921
:1012F00001400120009101906D480168C90511D499
:101300000168821511430160FFF780FD009005E040
:10131000FFF77CFD0099401A642870D86448006883
:10132000C005F5D5A06801280AD0002801D00528FD
:1013300010D0286A400840002862286AB84301E0BB
:10134000286A30432862A068002812D0FFF75EFDAB
:1013500000900AE0286A38432862F1E7FFF756FD5B
:101360000099411A5348814249D8286A8007F5D527
:101370000DE0FFF74BFD009006E0FFF747FD0099F9
:10138000411A4C4881423AD8286A8007F5D401981E
:10139000002804D0E969012000078143E961207831
:1013A000C00635D5606901280CD0401D686B23D07C
:1013B00038436863686B400840006863FFF726FDA8
:1013C000064622E0686B38436863686B30436863A5
:1013D000FFF71CFD064604E0FFF718FD801B0228FE
:1013E0005BD8686B8007F7D5686BF8218843A169E3
:1013F000C900084368630BE0B8436863F4E74CE056
:10140000FFF704FD801B022847D8686B8007F7D4DC
:10141000206A002846D069680907890F022943D04D
:10142000012636060228286805D0B0432860FFF759
:10143000EDFC044633E0B0432860FFF7E7FC0746C5
:1014400004E0FFF7E3FCC01B022826D828688001CF
:10145000F7D4E86AE16A000900010843E862616ABA
:10146000A06A084369683D221204914308436860FA
:10147000286830432860FFF7C9FC044604E0FFF702
:10148000C5FC001B022808D828688001F7D509E0B0
:10149000FFF7BCFC001B022801D90320FEBD286811
:1014A0008001F5D40020FEBD0120FEBD00100240E9
:1014B00000700040881300000422044904280869D1
:1014C00002D09043086170471043FBE700E000E062
:1014D00070470000094910B5401E884201D901201B
:1014E00010BD074C60610321081F00F025F90020A2
:1014F000A06107202061002010BD0000FFFFFF0059
:1015000000E000E010B5FFF7E3FF10BD70B5040088
:1015100005D025466035687A002802D006E0012013
:1015200070BD00202872204600F026F82420687242
:1015300020680168490849000160204600F0FAF976
:101540000128EDD0606A002802D0204600F084F91E
:10155000206841680122D20291434160206881687D
:1015600008229143816020680168012211430160D3
:10157000204600F0D6F970BD00B500680F4987B06D
:10158000884218D10E488269012189030A43826189
:1015900080690840059003204002009002200190DD
:1015A0000020029003200390012004900920694646
:1015B000C006FFF787FB07B000BD00000038014000
:1015C00000100240FFB5064604466036707A83B0CC
:1015D0000D46202858D1002D0CD00598002809D0A0
:1015E0000120A1680003814207D12069002804D1AD
:1015F000E80702D0012007B0F0BD307A012843D0BF
:10160000012030720020E06621207072FFF7FEFB9F
:10161000019027464037059838820598788218E06F
:10162000788A401E78820698009000228021204609
:10163000019B00F009FA002818D10120A1680003DD
:10164000814202D12069002812D0216828780885BB
:101650006D1C788A0028E3D1069800900022402172
:101660002046019B00F0F0F9002808D00320C2E7D3
:1016700028882168C005C00D0885AD1CE9E7202039
:10168000707200203072B6E70220B4E7FEE7000077
:101690000EB5194817490160002101228160D20767
:1016A000C160426001618161C161042201624261E5
:1016B000FF224162C2328262C16201210163416341
:1016C000FFF78AF9002800D0FEE70B48FFF7A0F8E3
:1016D000002800D0FEE709200090012000030190BF
:1016E0000004029069460448FFF7EAF8002800D099
:1016F000FEE70EBD002401401000002010B50C488C
:101700000A4901604B21C901416000218160C1602B
:1017100001618161C1610C22016242614162FFF796
:10172000F5FE002800D0FEE710BD000000380140A3
:101730005C000020704700008307FF22DB0E9A4008
:101740008907090E994000280BDA0007000F0838B6
:10175000830808489B001818C36993430B43C3616F
:101760007047830804489B001B181868904308437F
:101770001860704700ED00E000E400E0704770473B
:1017800010B5FFF749FBFFF7BDFE10BD30B595B0B2
:101790000125122005950090102003950490002447
:1017A000069008946846FFF7DDFC002800D0FEE7AD
:1017B00007200C900D940E9400210F940CA8FFF7B5
:1017C000E9FB002800D0FEE710A810951294FFF75F
:1017D0006DFB002800D0FEE7FFF772FC7D21C900F9
:1017E000FEF77EFCFFF776FE0420FFF765FE002281
:1017F0001146501EFFF756FB15B030BD1348016867
:101800000122114301604168114A114041600168A1
:10181000104A114001600168012292049143016065
:1018200041683F22120491434160C16A09090901DC
:10183000C162016BFF22143291430163416B49087D
:1018400049004163002181607047000000100240A0
:101850000CB8FF08FFFFF6FE10B5818CC90707D052
:1018600001684A6801235B049A43836A1A434A6009
:10187000818C890707D501684A6801231B049A43B4
:10188000C36A1A434A60818C490707D501684A68D0
:1018900001239B049A43036B1A434A60818C090716
:1018A00007D501684A680123DB039A43436B1A4357
:1018B0004A60818CC90607D50268916801231B0321
:1018C0009943836B19439160818C890607D5016820
:1018D0008A6801235B039A43C36B1A438A60818C35
:1018E000490612D503685A6801210905046C8A4328
:1018F00022435A60026C8A4207D10268516803236E
:101900005B059943436C19435160818C090607D5E7
:1019100001684A680123DB04806C9A4302434A60F1
:1019200010BD0021C16620226030427282720172B5
:1019300008467047F8B504462369A268E6691A4369
:10194000636910213343002026681A433368054633
:10195000394F3B401343336023685A6803263603EC
:10196000B243E66832435A60236AA26926681A4382
:10197000B3680B273F02BB431343B3602F4A126B7C
:101980009207920F06D0012A08D0022A08D0032A13
:1019900007D101E0002104E0022102E0042100E07F
:1019A00008210122E369D203934224D100290CD0FB
:1019B00002290DD0042913D0082917D001250109C7
:1019C00009010007400F084332E0FFF77FFB09E001
:1019D00061681B4A48088018FEF782FB80B2EEE778
:1019E000FFF784FB616840004A08F4E76168012260
:1019F00048081204EFE7002908D0022909D0042979
:101A00000BD008290ED001252846F8BDFFF75EFB54
:101A100005E061680B4A480806E0FFF767FB61686C
:101A20004A0801E0616848088018FEF759FB80B257
:101A30002168C860E8E70000F369FFFF001002407A
:101A40000024F40000127A00FFB581B017460E465C
:101A500004460A9D1DE0681C1BD0002D05D0FFF731
:101A6000D5F90499401AA84213D920680168FF22C9
:101A7000A132914301602068816849084900816072
:101A8000202060346072A07200202072032005B014
:101A9000F0BD2068C1693046884304D00020B842B8
:101AA000D9D00020F3E70120F9E700000FB410B50A
:101AB00003A9044B044A029800F0E8F810BC08BCE3
:101AC00004B01847C52300080C0000202021020C98
:101AD00001D010211046020A01D01046083902092F
:101AE00001D01046091F820801D01046891E420805
:101AF00001D0881E7047081A704702E008C8121FFC
:101B000008C1002AFAD170477047002001E001C1E6
:101B1000121F002AFBD17047F0B51FB486B0099898
:101B2000089A030D0021024314D05148514A181855
:101B3000504305141198012810981AD0281A401CF7
:101B400000264D4F4D49009601910490002812DA6D
:101B5000444211E01198012449A3012801D11098B1
:101B6000C1430698119A84600360C26041600BB063
:101B7000F0BD4042E4E70446210500203F4A001C36
:101B800051410391029012E0E00707D032463B46F4
:101B900001990098FEF752FC0191009032463B46B5
:101BA00010461946FEF74AFC06460F466410002C04
:101BB000EAD10498039B0028029A0999089806DA4A
:101BC000FEF73CFC019B009AFEF738FC05E0FEF7AF
:101BD0009DFC019B009AFEF799FC04460E460022EC
:101BE000284BFEF72BFD03D80020C043014607E039
:101BF0000022254B20463146FEF76EFBFEF7FEFC29
:101C0000102409E0002C0ADB0A220023FEF7F3FA75
:101C1000079B30321A55641E02460A43F2D1112244
:101C2000641C079B121B1C19119B012B03D0012361
:101C300008430ED10AE0084304D011201090002080
:101C4000119077E71098151A6D1E0BE010988242DC
:101C500002DD00236D1C03E0824201DA00236D1EC9
:101C6000002BEED0069811998260C16030C07EE7EB
:101C700001FCFFFF104D0000000014400000F03F89
:101C8000300000000000F0430000E03FFFB597B0D7
:101C90000646002518E2252877D100242746FD496D
:101CA000049400E00443761C32780120203A9040EE
:101CB0000842F7D130782A280ED002223078014627
:101CC0003039092916D804990A2359433039401864
:101CD0001443761C0490F1E7189802C804911890F8
:101CE000002904DA01204003044348420490022002
:101CF0000443761C30782E2814D1042004437078D5
:101D0000761C2A2809D11898761C80C8189009E0FA
:101D10000A214F43303FC719761C307801463039CD
:101D20000929F5D930786C2810D006DC4C281AD057
:101D300068280ED06A2817D104E0742813D07A28B6
:101D400012D110E00120400504430CE001210905F7
:101D500001E0032109050C437178814203D1012080
:101D600000052418761C761C3078119066280BD05C
:101D700013DC58287DD009DC00287BD04528F6D01C
:101D80004628F4D047281AD1A5E118E0632835D0B9
:101D9000642870D0652812D19DE170286CD008DCD1
:101DA0006728F1D069287BD06E280DD06F2806D126
:101DB000BAE073282ED0752871D0782859D01A9A95
:101DC000199990476D1C7EE16002400F022809D0EE
:101DD00003280DD00428189801680DD00D60001D4F
:101DE000189070E11898EA1701680D604A60F6E7EC
:101DF000189801680D80F2E70D70F0E718986A46B0
:101E000001781172001D18900020507202A80090F5
:101E1000012005E0189802C8189000200091C043E6
:101E200061070DD5002101E00199491C0191B942DA
:101E300012DA8142F8DB009A515C0029F4D10BE000
:101E4000002101E00199491C01918142FADB019ACC
:101E50000099895C0029F5D1019904981A9B471AC9
:101E600021463846199A00F097FA01994019451809
:101E70000BE04FE02CE113E04EE000980099007871
:101E8000491C00911A9A199990470198401E019097
:101E9000401CF2D1214638461A9B199A10E137E0CE
:101EA0000A200021009001916002410F022907D011
:101EB000189A01CA1892C2179446032908D00AE05A
:101EC0001898C01DC108C90005C91891944607E0BB
:101ED00000B2C2179446042902D140B2C1178C4601
:101EE00000226146944506DA0A46002140429141AB
:101EF0008C462D2102E0210504D52B216A46117361
:101F0000012103E0E10701D02021F7E7029155E02C
:101F10000A200AE0102008E0102000900021042090
:101F200004430191082703E008200021019100905B
:101F30006002410F022907D0189A01CA18920022A4
:101F40009446032908D008E01898C01DC108C900AC
:101F500005C91891944603E080B2042900D1C0B2AB
:101F600000210291210729D51199702906D0009AE4
:101F70001021019B4A401A4305D00EE040216A46D9
:101F80001173012108E06146014306D030216A4601
:101F900011731199517302210291009A0821019B3A
:101FA0004A401A430AD16146014301D1610705D570
:101FB00030216A46117301217F1E0291119958291F
:101FC00004D035A10E910DA90D910DE037A1F9E7CF
:101FD0006146019B009AFEF70EF90E9B8C469B5CB6
:101FE0000D9A521E0D92137061460143F0D10D9867
:101FF00005A9081A20300190600703D501200004CC
:10200000844300E001270198874201DD381A00E08F
:102010000020019900904118029809180498401A6C
:102020000490E00306D421461A9B199A049800F004
:10203000B3F94519002706E003A81A9AC05D19995B
:1020400090476D1C7F1C02988742F5DBE0030CD59E
:1020500021461A9B199A049800F09EF9451904E04C
:102060001A9A3020199990476D1C0099481E0090CB
:102070000029F5DC08E00D980D990078491C0D91B8
:102080001A9A199990476D1C0199481E01900029D0
:10209000F1DC63E109280100303132333435363761
:1020A00038396162636465660000000030313233A4
:1020B0003435363738394142434445460000000044
:1020C00000F05AF94519761C3078002800D0E2E576
:1020D00028461BB0F0BD600700D406271898C01D25
:1020E000C108C90048680A680831C30FDB071891A6
:1020F000190001D09CA108E0210501D59BA104E0B5
:10210000E10701D09AA100E09AA1430011985B0871
:10211000109165280CD006DC452809D046281DD032
:10212000472841D141E0662818D067283CD13CE0DF
:102130000021112F01DB112000E0781C019100909B
:1021400008A911A8FFF7E8FC139905910021119A3D
:1021500015927F1C12980197009150E00120C00752
:1021600003900120019008A9009711A8FFF7D4FC63
:10217000139A149905920022119B009212981593BC
:10218000059A0192002901D0104602E0791C4018FE
:102190000190381A01D5019804E04042401E009099
:1021A000781C0190C01B029043E0012F00DA012748
:1021B0000021112F01DD112000E03846019100902F
:1021C00008A911A8FFF7A8FC13990591119A0021FD
:1021D000129815920091019721070CD40599B942E4
:1021E00001DB019900E00191012904DD159A491EE6
:1021F000515C302906D0B84201DA011D05DA01210F
:10220000029115E00199491EEDE7002805DC0099CF
:10221000411800910199091A03E0019A411C914269
:1022200000DD01910099401A401C02900120C00776
:102230000390200706D402990198814202DB002016
:10224000C043029000206946C87707AF0121039878
:102250000337C907884224D0022011902B20129006
:10226000039800280CDA404203902D20129007E0DA
:102270000A210398FDF734FF30317F1E0390397037
:102280001199481E11900029F2DC03980028EFD123
:10229000791E129808703078202108404530BF1E02
:1022A000387006A8C01BC01D039010980078002845
:1022B00000D00120019941180298C017091803980D
:1022C00009180498401A401E0490E00306D42146E1
:1022D0001A9B199A049800F05FF845191098007835
:1022E000002803D01A9A199990476D1CE00324D551
:1022F00021461A9B199A049800F04EF845191CE0E3
:102300000098002807DB00990598884203DD15989E
:10231000405C199901E0199930201A9A9047009869
:102320006D1C401C00900298401E0290002804D1B1
:102330001A9A2E20199990476D1C0199481E0190F8
:102340000029DDDC05E038781A9A7F1C199990473E
:102350006D1C0399481E03900029F4DC21461A9B4A
:10236000199A0498ACE600002D0000002B00000034
:102370002000000000000000F8B5044600251E46BD
:102380001746880404D405E039462020B0476D1C68
:10239000641EF9D52846F8BDFFB50446002581B076
:1023A0001E46C80301D5302700E02027880404D545
:1023B00005E038460399B0476D1C641EF9D52846E0
:1023C00005B0F0BD13B5044B012269460348FFF781
:1023D000F9F800981CBD0000FFFF00005C00002021
:1023E00008B5FEF721FDFFF7D1F91E48426901212A
:1023F00089040A43426142690A40009242694910D5
:102400000A434261406908400090FFF777F9FFF7FF
:102410003FF90B26144C154DF6437D27FF00144859
:10242000FEF714FC64211248FEF7B0FB1048FEF7DB
:10243000CFFA20800FA0FFF739FB2088FDF7C0FE00
:102440002946FDF774FE3146FDF7AEFEFDF7BFFEEF
:1024500002460B460AA0FFF729FB3846FEF724FC8C
:10246000DDE70000001002400400002000404E455F
:102470001000002074657374202E2E2E00000000C2
:10248000252E32662056200D0A00000000000000B4
:102490000000000001020304060708090000000014
:1024A00001020304C4240008000000201000000002
:1024B000FA1A0008D424000810000020C00400000C
:1024C0000A1B0008000000000000000000127A0053
:0424D0000000000008
:04000005080000B13E
:00000001FF
