:020000040800F2
:10000000E8040020D900000829120008BF100008E9
:1000100000000000000000000000000000000000E0
:100020000000000000000000000000002D12000889
:1000300000000000000000002B1200082F12000832
:10004000EB000008EB000008EB000008EB000008E4
:10005000EB000008EB000008EB000008EB000008D4
:1000600000000000EB000008EB000008EB000008B7
:10007000EB000008EB00000800000000EB000008A7
:1000800000000000EB00000800000000000000007D
:10009000EB00000800000000EB000008EB00000887
:1000A000EB000008EB000008EB000008EB00000884
:1000B000EB000008EB00000800000000000000005A
:1000C0000448854600F0A2F8004800475D1A000881
:1000D000C046C046E8040020044880470448004762
:1000E000FEE7FEE7FEE7FEE7FEE7FEE7CD120008CB
:1000F000C100000830B50B46014600202022012433
:1001000009E00D46D5409D4205D31D469540491B4B
:100110002546954040191546521E002DF1DC30BD94
:10012000F0B51FB40646002082B005464024019178
:1001300000901BE0019922460F46304600F054F82B
:10014000049A059B801A994110D3104619462246FD
:1001500000F03AF8361A8F4101972246012000211B
:10016000009F00F031F838184D4100902046641E81
:100170000028DFDC019B00982946324607B0F0BD1D
:1001800003460B439B0703D009E008C9121F08C0B0
:10019000042AFAD203E00B780370401C491C521E5B
:1001A000F9D27047D2B201E00270401C491EFBD266
:1001B00070470022F6E710B513460A460446194672
:1001C000FFF7F0FF204610BD10B5202A04DB0146E2
:1001D000203A9140002010BD914020239C1A0346F4
:1001E000E3401943904010BD10B5202A04DB0846B7
:1001F000203AD040002110BD0B46D340D0402024EF
:10020000A21A91400843194610BD0000064C012572
:10021000064E05E0E36807CC2B430C3C98471034AE
:10022000B442F7D3FFF750FF301B0008501B000803
:10023000F0B5002294E00126964033407ED04C6811
:10024000012C05D0022C03D0112C01D0122C10D17E
:10025000856854000327A740BD43CF68A7402F43BC
:10026000876045680C79B543E406E40F94402C435D
:100270004460C66855000324AC408F68A643AF4075
:100280003743A646C7604C68022C01D0122C0ED111
:10029000D408A4002418276AA4465607F40E0F2693
:1002A000A640B7430E69A6403E43644626620468F2
:1002B0007646B4430E79B607B60FAE4026430660C5
:1002C0004C68E4004BD5294C656B012635436563CA
:1002D0009508274CAD002F19BD689407240F0F26F1
:1002E000A640B54305263607B04201D1002614E0EA
:1002F000204EB04201D101260FE01F4EB04201D185
:1003000002260AE01D4EB04201D1032605E01C4E34
:10031000B04201D1052600E00626A6402E43BE606D
:10032000184D2C684E689C43F60300D51C432C6086
:100330006C684E689C43B60302D500E00FE01C4396
:100340006C60AC684E689C43F60200D51C43AC6000
:10035000EC684E689C43B60200D51C43EC60521C0E
:100360000B681C46D44000D065E7F0BD0010024089
:10037000000001400004005000080050000C005034
:10038000001C005000040140002A01D08161704728
:1003900081627047014880687047000000000020BB
:1003A00070B5024640325378202B1CD11378012BB4
:1003B00019D0012414702423537003681D68A543C9
:1003C0001D6003681D682603B5431D6003681D6832
:1003D0000D431D60006801682143016020205070BA
:1003E0000020107070BD022070BD70B50246403212
:1003F0005378202B1BD11378012B18D001251570B1
:100400002423537003681C68AC431C6003681C6899
:100410000F263602B44309022143196000680168BF
:1004200029430160202050700020107070BD022010
:1004300070BD000070B5040006D0254640356878D0
:100440000026002802D005E0012070BD2E70204655
:1004500000F0DAF824206870206801684908490033
:1004600001600F21606809068843216808612068DF
:1004700082680121C9038A438260E0680128A0687C
:1004800008D021229202104322689060E06802287E
:1004900002D005E00843F7E701202268C00250605F
:1004A000206842680F4B1A4342602068C2688A4342
:1004B000C260616920690843A16909020843216893
:1004C000C860216AE0690843216808602068016803
:1004D0000122114301606664202068702663AE70BB
:1004E000002070BD00800002FFB50446002083B0EC
:1004F0002546403501906A781F46202A74D122682B
:100500009269D24312047BD52A78012A78D001223D
:100510002A7024226A7060648805800D0290E06869
:10052000012802980BD00521C90240180121890237
:10053000884321684860FFF72DFF06460AE03149ED
:10054000F3E7781C06D0FFF725FF801BB84219D8C7
:10055000002F17D02068816980698906C90FC006FD
:10056000C00F0143EDD0206880693B46C043C00600
:10057000009617D500222021204600F0A1FD00287A
:1005800030D107E020206870616C01436164002075
:10059000287027E021682020C8616870002028703A
:1005A00007B0F0BD00222021204600F089FD002880
:1005B00018D121681020C86121682020C8610199E4
:1005C0000598814214D120684168012292031143A9
:1005D00041603B46002220212046009600F070FD3D
:1005E000002802D00120DBE70AE021682020C86152
:1005F0000198401C01460190059881428FD3C1E7C4
:100600000220CDE70020000210B586B00446142178
:100610006846FFF7CEFD10492068884219D10F4C7B
:10062000E16A02200143E162E16A01400591C020D4
:100630000090122001210190032002910491039067
:1006400069460748FFF7F4FDA06B012149050843FF
:10065000A06306B010BD000000540040001002402E
:100660000004005002488168027889188160704750
:100670000000002010B50848002401684022114302
:100680000160204600F00AF8002801D0012401E0B2
:1006900000F026F8204610BD0020024070B5044648
:1006A0000D4D7D202978C000FFF724FD01460B4841
:1006B0000068FFF71FFD00F01DFC002809D1042C85
:1006C00007D200222146401E00F016F800206C6080
:1006D00070BD012070BD0000000000200C00002053
:1006E0000448416B012211434163816B02041143B1
:1006F000816370470010024010B501F005F810BD8D
:10070000F8B5044600780026574D800679D556483E
:100710004038806BC00006D453484038816B0204D7
:1007200011438163012651480168C90510D401684D
:10073000821511430160FFF72DFE074604E0FFF725
:1007400029FEC01B64283AD848480068C005F6D581
:100750004548403801680322120560681140024094
:100760008A420AD08103890F032906D13E494039C4
:100770000968890301D50120F8BD2A69032109040C
:100780000A4021D0084090421ED0207880061BD518
:1007900028692A6988430121C9040A432A612A6910
:1007A0008A432A612861C0050ED5FFF7F3FD07468D
:1007B00007E0FFF7EFFDC11B2D48814201D903205F
:1007C000F8BD28698005F4D560688103890F032985
:1007D00008D1254B403B1968032212059143104074
:1007E000014319602869032261681204114008431B
:1007F0002861002E05D01C484038826B01048A43D2
:1008000082632078C00705D0E868A168800880006E
:100810000843E8602078800705D5E8680C21884304
:10082000E1680843E8602078400706D5E8680321BE
:100830008902884321690843E8602078000706D5CB
:10084000E86803210903884361690843E860207868
:10085000000606D5E868032189048843A169084396
:10086000E8600020F8BD0000401002400070004029
:1008700088130000F8B50E46040038D05E480068C2
:10088000C007C00FB04214D25B4F38684008400028
:1008900030433860FFF77EFD054605E0FFF77AFD3F
:1008A000411B564881427AD83868C007C00FB04211
:1008B000F4D12078524F800705D5F868F02188439D
:1008C000A1680843F8602078C00752D06068022809
:1008D00006D0032807D0396801280AD0890504E02A
:1008E0003968890301E039688901002903DB0120A7
:1008F000F8BD4907F9E7F968890889000143F960FB
:10090000FFF748FD0546606802280AD0032814D086
:1009100001281ED029E0FFF73DFD411B37488142E9
:100920003DD8F8680007800F0228F4D121E0FFF7D6
:1009300031FD411B3148814231D8F8680007800FF2
:100940000328F4D115E0FFF725FD411B2B48814218
:1009500025D8F8680007800F0128F4D109E0FFF7D7
:1009600019FD411B2548814219D8F8680007800FFE
:10097000F5D121480168C907C90FB14217D90168EB
:100980004908490031430160FFF704FD054608E0CE
:1009900005E0FFF7FFFC411B1848814201D9032005
:1009A000F8BD15480068C007C00FB042F1D12078EB
:1009B000400706D5F868072109028843E168084323
:1009C000F8602078000707D5F8680721C902884336
:1009D0002169C9000843F86000F03AF8F968094A4B
:1009E0000906090F515CC8400749086007480068BC
:1009F000FFF754FEF8BD00000020024088130000FD
:100A0000001002400C1B00080C0000200400002015
:100A1000044805490068C968044A4905490F515C02
:100A2000C84070470C00002000100240251B000841
:100A3000044805490068C968044A8904490F515CA3
:100A4000C84070470C00002000100240251B000821
:100A500070B51B4EF2680C211046084019498B00F6
:100A600004280CD04D00082810D00C2810D0706835
:100A70000004410F0120C003491C884070BD30684C
:100A8000C00601D5084670BD184670BD284670BD29
:100A900090020D4C000F205C1202940FF268641C4F
:100AA000D20301D5294603E03268D20600D41946A4
:100AB00000F004FE22460023FFF732FB70BD000069
:100AC0000010024000093D001C1B0008FEB5040098
:100AD0007ED0FE4DEE680C20EF6806400120000439
:100AE00007402078C00747D0082E05D00C2E0AD129
:100AF00001200004874206D1286880033CD5606845
:100B00000028E5D038E0012061680004814203D16B
:100B100029680143296011E0052301221B04920486
:100B20009942296802D111432960F1E78143296084
:100B30002968014000912868904328606068002877
:100B40000DD0FFF727FC009005E0FFF723FC00998C
:100B5000401A64287BD828688003F6D50CE0FFF79C
:100B600019FC009005E0FFF715FC0099401A642875
:100B7000F0D828688003F6D42078800756D509215C
:100B8000E068042E0DD00C2E01D1002F09D00028D2
:100B90003CD02A688A4302432A60FFF7FBFB0746E2
:100BA00028E02A68520701D5002891D06A681F23DF
:100BB0001B029A4323691B021A436A602A688A430C
:100BC00002432A60FFF744FFE96809060A0F00E0C4
:100BD0008CE1BF49895CC840BE490860BE480068D6
:100BE000FFF75CFD002873D120E0FFF7D3FBC01BAB
:100BF0000228AFD828684007F7D568681F21090286
:100C0000884321690902084368600FE028684008AA
:100C100040002860FFF7BEFB074604E0FFF7BAFB81
:100C2000C01B022896D828684007F7D42078C00651
:100C300060D5002E0CD0A06900284AD02868FF217A
:100C4000013108432860FFF7A5FB07462EE0C2E00C
:100C50002868800502D5A0690028A6D06868072109
:100C600049038843216A084368606868217F00025D
:100C7000000A090608436860206A410B0120C0038E
:100C8000491C8840E96809060A0F9149895CC840F7
:100C90009049086090480068FFF700FD002817D1D0
:100CA00028E0FFF777FBC01B0228A2D82868800540
:100CB000F7D56868072149038843216A08436860BB
:100CC0006868217F0002000A09060843686011E095
:100CD000E3E02968FF20013081432960FFF75AFBD8
:100CE000074604E0FFF756FBC01B022873D82868AC
:100CF0008005F7D42078794F000724D56069002853
:100D0000386910D0012108433861FFF743FB009098
:100D100005E0FFF73FFB0099401A02285BD83869CD
:100D20008007F6D50FE0400840003861FFF732FB3E
:100D3000009005E0FFF72EFB0099401A02284AD8E0
:100D400038698007F6D42078400767D500200190E5
:100D5000A86BC00006D4A96B012000070143A9635A
:100D6000012001905E480168C90512D4024611684D
:100D7000801501431160FFF70DFB009005E0FFF7C0
:100D800009FB0099401A642825D855480068C00519
:100D9000F5D5FF20A2680130824203D139690143B1
:100DA000396111E001218902002A07D005231B02C5
:100DB0009A4203D13A690A433A61EFE73A698243BA
:100DC0003A61386988433861A06800280FD0FFF77E
:100DD000E1FA009007E05FE0FFF7DCFA0099411AC2
:100DE0004048814258D838698005F5D50EE0FFF7B4
:100DF000D1FA009007E0FFF7CDFA01460098091AF2
:100E00003848814248D838698005F4D401980028D0
:100E100004D0A86B012109078843A863606A0028F1
:100E200066D00C2E3ED001273F060228286805D048
:100E3000B8432860FFF7AEFA04462FE0B8432860B5
:100E4000FFF7A8FA064604E0FFF7A4FA801B022881
:100E500022D828688001F7D4E16AA06AEA680843CA
:100E6000216BFD231B049A4311430843E860286863
:100E700038432860FFF78EFA044604E0FFF78AFA49
:100E8000001B022808D828688001F7D530E0FFF75A
:100E900081FA001B022801D90320FEBD28688001C9
:100EA000F5D425E00128F8D0E86801210904A26AF8
:100EB000014091421AD10F218904E26A0140914216
:100EC00014D1032189050840216B0DE00010024078
:100ED0000C1B00080C000020040000204010024001
:100EE0000070004088130000884201D00120FEBD40
:100EF0000020FEBD094910B5401E884201D90120DD
:100F000010BD074C60610321081F00F0FDFB0020AD
:100F1000A06107202061002010BD0000FFFFFF003E
:100F200000E000E010B5040003D0A06F002802D05C
:100F300007E0012010BD002174200155204600F07B
:100F400027F82420A067206801684908490001604B
:100F5000204600F053FA0128ECD0606A002802D045
:100F6000204600F0B4F9206841680922D20291437A
:100F70004160206881682A2291438160206801686D
:100F8000012211430160204600F006FA10BD000066
:100F900010B586B0044614216846FFF70AF91149D6
:100FA000206888421CD11048416B012292031143F2
:100FB0004163C16A01221143C162C06A694610409F
:100FC0000590032040020090022001900020029032
:100FD000032003900420049005200007FFF728F960
:100FE00006B010BD0038014000100240FFB50446B5
:100FF000806F83B015460E4620285ED1002E0AD0A1
:10100000002D08D0A168C001814207D120690028C5
:1010100004D1F00702D0012007B0F0BD20466030B7
:101020000090007D012848D0009801210175002022
:10103000802108512120A067FFF7ACF927464037EF
:1010400001903D827D820120A1680003814202D18E
:101050002069002805D03546002600990020087533
:1010600011E00025F9E700228021204600F0C8FAAF
:10107000002815D1002D15D02168287888626D1CB4
:10108000788A401E7882788A019B00280698009012
:10109000E9D100224021204600F0B2FA002808D011
:1010A0000320B9E730882168C005C00D8862B61CEE
:1010B000E6E72020A0670020AEE70220ACE7FEE7CD
:1010C000F8B51C4617460E46054609E0601C07D0D9
:1010D000FFF760F90699401AA0420BD8002C09D0FE
:1010E00028688169304688430FD00020B842EDD08F
:1010F0000020F8BD696C20200143696440356870A8
:101100000020A87028700120F8BD0120EEE7000043
:10111000F0B587B014216846FFF74BF81C48C16A48
:1011200001252943C162C16A29400591C26A022191
:101130000A43C262C06A05260840360705900022AD
:10114000E4213046FFF720F9124F002203213846F0
:10115000FFF71AF9E42000240090029469460195F3
:1011600003943046FFF764F8FF20093000900194A3
:10117000694602943046FFF75BF803200090029422
:101180006946019503943846FFF752F807B0F0BD61
:10119000001002400004005010B5134811490160CE
:1011A0001249416000218160016141618161012238
:1011B000C161C2600162FFF73DF9002801D072B63B
:1011C000FEE700210848FFF7EBF8002801D072B6CF
:1011D000FEE700210448FFF708F9002801D072B6A5
:1011E000FEE710BD00540040140000205B3D3000BD
:1011F00010B50C480A490160E12149024160002113
:101200008160C16001618161C1610C220162426142
:101210004162FFF787FE002801D072B6FEE710BDDD
:101220000038014060000020FEE77047704710B5AD
:10123000FFF718FA10BD000010B59AB034216846C7
:10124000FEF7B7FF14210DA8FEF7B3FF1C2112A86B
:10125000FEF7AFFF1C4801680322D2029143C2147B
:10126000891801600121022003911021009004914E
:10127000099040040B90000100240C900A946846E9
:10128000FFF724FC002801D072B6FEE70F200D9076
:1012900003200E900120800210900F9401211194E0
:1012A0000DA8FFF7E7FA002801D072B6FEE7092083
:1012B00017941290149412A8FFF722FA002801D074
:1012C00072B6FEE71AB010BD00700040704710B54E
:1012D000818CC90707D001684A6801235B049A43DF
:1012E000836A1A434A60818C890707D501684A6876
:1012F00001231B049A43C36A1A434A60818C49073D
:1013000007D501684A6801239B049A43036B1A437B
:101310004A60818C090707D501684A680123DB030D
:101320009A43436B1A434A60818CC90607D501680A
:101330008A6801231B039A43836B1A438A60818C5A
:10134000890607D501688A6801235B039A43C36B4A
:101350001A438A60818C490612D501684B680122C4
:101360001205046C934323434B60016C914207D1F7
:1013700001684A6803235B059A43436C1A434A6039
:10138000818C090607D501684A680123DB04806C5B
:101390009A4302434A6010BDF8B5044600258030E8
:1013A0000560FEF7F7FF074620680068124E000749
:1013B00009D501213B46002249052046009600F050
:1013C0001FF900280DD12068006840070BD50121C6
:1013D0003B46002289052046009600F011F90028BE
:1013E00001D00320F8BD2020A067E06725666034A7
:1013F00025750020F8BD0000FFFFFF01F8B5044689
:101400002269A168E66911436269002500683243D8
:101410001143734B0268734E32400A4302602068E6
:101420004168032212039143E2681143416021683D
:10143000A069994201D0226A10438A680B263602BD
:10144000B24302438A606849226868488A420CD1E4
:10145000C0688007800F06D0012839D0022835D017
:10146000032821D11EE001271FE061498A420AD1E9
:10147000C0680C21084027D0042829D0082825D08E
:101480000C2811D10EE09A420ED1C06803218902C6
:10149000084019D001218902401A19D0401A15D0EC
:1014A000884201D1082700E01027504951484039AF
:1014B00086009A4232D1002F0CD0022F0DD0042F7B
:1014C00010D0082F71D126E00027EEE70227ECE7C5
:1014D0000427EAE7FFF79CFA06E00968C90605D485
:1014E000304603E0FFF7B4FA002874D06268510078
:1014F0005118814269D81103814266D3010E060258
:101500005008002330185941FEF70AFE0321090252
:10151000411A394A57E00120C003E7E70122E36995
:10152000D20393422DD13B0000F0E0F80906090CEC
:101530004F114F4F4F294F00FFF76AFA09E0FFF7AD
:1015400077FA06E00968C90605D4304603E0FFF7DC
:101550007FFA00283FD0616840004A088018FEF7F3
:10156000C9FD80B20146254A103991422DD8511C3F
:1015700001400007420F20680A43C2602BE010467A
:10158000E9E73B0000F0B2F80906090C211221211D
:1015900021232100FFF73CFA0AE0FFF749FA07E0B0
:1015A0000968C90606D4304604E00EE0FFF750FA99
:1015B000002810D061684A081018FEF79BFD80B221
:1015C00001460E4A1039914203D9012503E0104625
:1015D000F0E72168C86000206066A0662846F8BD74
:1015E00000480040F369FFEF00380140401002401E
:1015F0000044004000093D00FFFC0F00EFFF000029
:10160000FFB581B006461F46044660360A9D38E0A5
:10161000681C36D0FEF7BEFEC01BA84222D8002DA3
:1016200020D02068016849072BD5C069C043000558
:1016300027D401202168C002086220680168FF22C7
:10164000A1329143016020688168490849008160A6
:101650002020A067E06780342060002030750320E0
:1016600005B0F0BD20680168FF22A13291430160FE
:10167000206881684908490081602020A067E067F0
:10168000EBE72068C1690298884305D000200399E0
:101690008842BDD00020E3E70120F8E70FB410B581
:1016A00003A9044B044A029800F060F810BC08BC7F
:1016B00004B01847411A000810000020F8B5040CC7
:1016C0008BB2264682B25E430D0C1046370C58434F
:1016D000360480190021794116466E43370C3604D2
:1016E0008019794126466E438919F8BD30B4744695
:1016F000641E2578641CAB4200D21D46635D5B000E
:10170000E31830BC184700008307FF22DB0E9A4025
:101710008907090E9940002808DB830809489B00C7
:101720001818036893430B43036070470007000FCA
:101730000838830804489B001818C36993430B4377
:10174000C361704700E400E000ED00E002E008C87B
:10175000121F08C1002AFAD170477047002001E02B
:1017600001C1121F002AFBD170470000FFB58FB0E6
:101770000F460446002606E025280AD0129A119941
:101780009047641C761C20780028F5D1304613B0B1
:10179000F0BD002501219F4A009500E00543641C2F
:1017A00023780846203B98401042F7D120782E2815
:1017B00015D1042005436078641C2A280AD101CF82
:1017C000641C00900BE000990A2251433039401804
:1017D000641C00902078014630390929F3D920781B
:1017E0006C280ED004DC4C2813D06A2812D104E0F7
:1017F00074280ED07A280DD10BE001204005054356
:1018000007E00121090562780D43824201D16D187C
:10181000641C641C2078692849D008DC0028B5D0F5
:1018200058286CD063280FD0642808D13FE0702876
:101830006AD0732811D075285FD078285FD0129AAB
:1018400011999047761CE3E03878694608720020C9
:10185000487202A80190012003E03868019000203E
:10186000C0433F1D69070CD5002500E06D1C0099A1
:101870008D420FDA8542F9DB0199495D0029F5D1E6
:1018800008E0002500E06D1C8542FCDB0199495D04
:101890000029F8D1761907E0019801990078491CD0
:1018A0000191129A119990476D1EF5D2B0E00A206D
:1018B000029000216802400F039102280CD001CF52
:1018C000C117844600290DDA60460A4640420021CD
:1018D000914184462D2008E0FF1DFF08FF0003CF43
:1018E0008446EFE7280504D52B206A4610740120B2
:1018F0003DE0E8073BD02020F7E70A2000E0102079
:1019000000210391029007E01020029000210420A2
:1019100005430820039100906802400F022811D06F
:1019200001CF0021844600200D90280720D5207883
:10193000864670280CD0029A1020039B42401A431E
:101940000CD015E0FF1DFF08FF0003CF8446EAE737
:1019500040206A46107401200D900CE06046084358
:1019600006D030206A4610747046507402200D90E4
:101970002078582804D028A001900DA80E900DE0E2
:101980002AA0F9E76046039B029AFEF7C9FB019B78
:1019900084469B5C0E9A521E0E921370604608435A
:1019A000F0D10E9805A9081A20300190680701D4DB
:1019B0000120009000990198814201DD081A00E0A1
:1019C00000200025009006E004A8129A405D1199BD
:1019D00090476D1C761C0D988542F5DB04E0129A49
:1019E000302011999047761C0099481E00900029DC
:1019F000F5DC08E00E980E990078491C0E91129AB9
:101A000011999047761C0199481E01900029F1DC3C
:101A1000641CB8E6092801003031323334353637DA
:101A2000383961626364656600000000303132332A
:101A300034353637383941424344454600000000CA
:101A400013B5044B012269460348FFF7CFFA00980B
:101A50001CBD0000FFFF00006000002086B0FEF704
:101A600009FEFFF7E9FBFFF753FBFFF7C1FBFFF7A9
:101A700093FB182214A16846FEF782FB184B18222C
:101A800069461848FFF7B2FA17A0FFF707FE17A03C
:101A9000FFF704FE01241348022361001A464C3864
:101AA000FEF722FD002803D015A0FFF7F7FD03E0A5
:101AB000214614A0FFF7F2FD641CE4B2802CEAD3A7
:101AC00009A0FFF7EBFDFEE7436F6E6E656374657B
:101AD0006420746F20554152542054776F0D0A00D2
:101AE000FFFF0000600000200D0A00005363616EDC
:101AF0006E696E6720493243206275733A0D0A00A1
:101B00002E00000030782558000000000000000082
:101B10000000000001020304060708090304060888
:101B20000C10182030000000000102030400000027
:101B3000501B000800000020140000004C17000893
:101B4000641B000814000020D40400005C17000887
:101B50000100000004000000000000000000200060
:041B60000000000081
:04000005080000C12E
:00000001FF
