:020000040800F2
:10000000902100209D0100087F1200086D1100085A
:100010007D1200082D020008B51400080000000041
:1000200000000000000000000000000005010008C2
:10003000310200080000000049010008AD1200086C
:10004000B7010008B7010008B7010008B7010008B0
:10005000B7010008B7010008B7010008B7010008A0
:10006000B7010008B7010008B7010008B701000890
:10007000B7010008B7010008B7010008B701000880
:10008000B7010008B7010008B7010008B701000870
:10009000B7010008B7010008B7010008B701000860
:1000A000B701000841130008B7010008B7010008B4
:1000B000B7010008B7010008B7010008B701000840
:1000C000B7010008B7010008B7010008B701000830
:1000D000B7010008B7010008B7010008B701000820
:1000E000B7010008B7010008B7010008DFF810D019
:1000F00000F08AF800480047F5140008AFF30080CC
:1001000090210020224B19680868B0E8F00F80F3B6
:100110000988BFF36F8F4FF0000080F311884EF015
:100120000D0E70470000000006480068006880F36C
:10013000088862B661B6BFF34F8FBFF36F8F00DFE1
:1001400000BF00BF08ED00E0EFF30980BFF36F8F41
:100150000F4B1A6820E9F00F106008B54FF05000FF
:1001600080F31188BFF34F8FBFF36F8F02F040F918
:100170004FF0000080F31188BDE808401968086856
:10018000B0E8F00F80F30988BFF36F8F704700BFAE
:1001900020000020EFF305807047000006488047EC
:1001A00006480047FEE7FEE7FEE7FEE7FEE7FEE75C
:1001B000FEE7FEE7FEE7FEE73D130008ED0000085E
:1001C00040EA01039B0703D009E008C9121F08C0D9
:1001D000042AFAD203E011F8013B00F8013B521E59
:1001E000F9D27047D2B201E000F8012B491EFBD2D0
:1001F00070470022F6E710B513460A460446194632
:10020000FFF7F0FF204610BD064C074D06E0E06802
:1002100040F0010394E8070098471034AC42F6D34D
:10022000FFF768FFF02E0008102F0008FEE7704768
:10023000704700002DE9F84FDFF8B891002409F16C
:10024000040A0AF1040B23460F270BF1040EC9E040
:100250000125A5402A40AA427DD1674ED1F804C0AD
:10026000ACEB0608B44532D014DCBCF1030F3AD035
:1002700009DCBCF1000F2AD0BCF1010F1CD0BCF18D
:10028000020F31D11DE0BCF1110F17D0BCF1120FDC
:100290002AD119E0B8F5881F19D006DCB8F5803FDF
:1002A00015D0B8F5801F1FD111E0B8F5001F0ED092
:1002B000B8F5041F18D10AE0CB6815E0CB681B1D08
:1002C00012E0CB6808330FE0CB680C330CE08B688E
:1002D0002BB1012B4FF0080303D0456104E0042348
:1002E00002E0056100E00023FF2A01D8064601E094
:1002F00000F104064FEA840501D9A5F12005D6F8DE
:10030000008007FA05FC28EA0C0803FA05F548EA1C
:100310000508C6F800804D68ED0062D5374DAE691E
:1003200046F00106AE61AD6924F0030605F0010553
:100330000095334D06EB050CDCF80850A607360F88
:1003400007FA06F825EA0805DFF8B880404503D12A
:100350004FF0000817E044E0DFF8AC80404502D1E0
:100360004FF001080FE0DFF8A480404502D14FF0C4
:10037000020808E0DFF89880404502D14FF00308FA
:1003800001E04FF0040808FA06F848EA0508CCF83E
:1003900008804D68D9F80060ED034D4601D516433D
:1003A00000E096432E604D68DAF80060AD035546D4
:1003B00001D5164300E096432E604D68DBF80060DF
:1003C000ED025D4601D5164300E096432E604D6870
:1003D000DEF80060AD02754601D5164300E0964395
:1003E0002E60641C0D682A46E5407FF431AFBDE8FD
:1003F000F88F0000000401400000111000100240BE
:100400000000014000080140000C014000100140C4
:1004100000140140C26821EA02030A4043EA024193
:10042000016170470AB1016170470904FBE70000F0
:100430000148806870470000100000200248816871
:10044000027811448160704710000020074810B501
:10045000016841F010010160032000F095F80020D0
:1004600000F006F800F03EF8002010BD0020024029
:1004700000B5014687B00022192000F065F8192068
:1004800000F054F81348816941F40061816180698A
:1004900005A900F400600690684600F01DFA00F01F
:1004A0004BFA0D490D4AB0FBF1F10D48491E0260AF
:1004B000416040F2E7320021C0E90321816000F091
:1004C000D1FC10B1012007B000BD054800F0F8FCD8
:1004D000F9E700000010024040420F00002C0140EC
:1004E000740400200F4808B5816941F00101816161
:1004F000816901F001010091C16941F08051C16140
:10050000C069002200F0805000900F21901E00F082
:100510001BF80548416821F0E06141F0007141603D
:1005200008BD00000010024000000140002809DB67
:1005300000F01F02012191404009800000F1E020FD
:10054000C0F8001170470000F0B40E4B1B680C4659
:10055000C3F30223C3F10705042D00D90425191D97
:10056000072901D2002300E0DB1E012606FA05F16F
:10057000491E214099409E40761E16403143F0BCF2
:1005800000F099BF0CED00E0064900F00702086892
:100590004FF6FF03184040EA0220034A1043086068
:1005A000704700000CED00E00000FA052DE9F04175
:1005B00086B0040004D094F8A902002520B108E018
:1005C000012006B0BDE8F08184F8A852204600F072
:1005D0005BF8032084F8A902206800F062FF04F1B0
:1005E0001001142288466846FFF7EAFD94E80F00E0
:1005F00000F04AFF0226D0BB0021206800F058FF1F
:10060000002001270FE000BF00EB800104EBC101D7
:1006100081F8297001F8280FC881CD700D614D61F6
:10062000401CC0B28D6161688142EDD8002011E0AC
:1006300000EB800104EBC10181F8695181F8680188
:1006400081F86B51C1F87851C1F87C51401CC0B29F
:10065000C1F8805161688142EAD814224146684657
:10066000FFF7AEFD94E80F0000F012FF10B184F820
:10067000A962A5E784F8245084F8A972206800F0E4
:1006800005FF00209DE7000008B500680649884284
:1006900008D10648C16941F40001C161C06900F494
:1006A0000000009008BD0000005C00400010024007
:1006B0002DE9F84305460078354CC00754D0E06971
:1006C0000026C00008D4E06940F08050E061E06995
:1006D000012600F0805000902E480168C90512D410
:1006E0000168804641F480710160FFF7A1FE074672
:1006F00005E000BFFFF79CFEC01B642823D8D8F894
:100700000000C005F6D5206A10F4407021D0A988F9
:1007100001F4407181421CD0206A1F49012220F45B
:1007200040700A6000220A602062C00711D0FFF703
:100730007FFE074641F2883808E000BFFFF778FEE9
:10074000C11B414502D90320BDE8F883206A800718
:10075000F4D5206A696820F44070084320621EB115
:10076000E06920F08050E0612878800705D5606856
:10077000A96820F44040084360602878C00605D589
:100780006068E96820F48000084360600020DBE7CF
:1007900000100240007000404004424270470000D8
:1007A0002DE9F0470F46050061D0434E306800F058
:1007B0000700B84209D2306820F0070038433060A3
:1007C000306800F00700B84251D128683B4C8107DF
:1007D00012D5400703D5606840F4E0606060287877
:1007E000000703D5606840F4605060606068A968E5
:1007F00020F0F000084360602878C00728D06868BF
:10080000012810D02168022810D0890700292EDA8B
:10081000616821F0030101436160FFF709FE804632
:1008200041F288390DE021688903EFE78901EDE79E
:10083000FFF7FEFDA0EB0801494502D90320BDE802
:10084000F0876068696800F00C00B0EB810FEFD1B1
:10085000306800F00700B8420BD9306820F007007C
:1008600038433060306800F00700B84201D0012002
:10087000E5E72878400705D56068E96820F4E0607E
:10088000084360602878000706D56068296920F46D
:10089000605040EAC100606000F05EF86168084A9C
:1008A000C1F30311515CC84006490860064800685E
:1008B000FFF7DEFD0020C2E70020024000100240EA
:1008C000B02E00081C000020140000200149012067
:1008D000C8647047000042420F2202600C4A53680D
:1008E00003F003034360536803F0F003836053682D
:1008F00003F4E063C36052684FF4E06303EAD2029A
:1009000002610448006800F00700086070470000BA
:100910000010024000200240044805490068496870
:10092000044AC1F30221515CC84070471C000020FA
:1009300000100240C02E00080448054900684968BC
:10094000044AC1F3C221515CC84070471C0000201A
:1009500000100240C02E000812A185B00FC98DE81A
:100960000F0014A0144A006804905168134801F065
:100970000C03042B10D0082B0ED1C1F38343C90301
:100980001DF803000AD5516804AAC1F34041515C27
:100990000A4A5043B0FBF1F005B07047084948439C
:1009A000FAE7000002030405060708090A0B0C0D0C
:1009B0000E0F1010010200000010024000127A0019
:1009C00000093D0010B5044CA068000603D5FFF7F0
:1009D000E5FE8020A07210BD001002402DE9F84F06
:1009E000040070D02078C04DC00749D06868C0F3BB
:1009F0008100012807D06868C0F38100022809D16E
:100A00006868C00306D52868800339D56068002867
:100A1000E7D035E06068B0F5803F0BD010B1B0F59D
:100A2000A02F11D0286820F480302860286820F496
:100A3000802002E0286840F480302860606890B12F
:100A4000FFF7F6FC06460AE0286840F4802028609C
:100A5000F0E700BFFFF7ECFC801B642873D8286820
:100A60008003F7D50CE0FFF7E3FC064605E000BF86
:100A7000FFF7DEFC801B6428F0D828688003F7D4D9
:100A800020789A4E80074FF001094FF0000839D5C1
:100A9000686810F00C0F07D06868C0F38100022866
:100AA00009D16868C00306D42868800714D5206976
:100AB000012808D110E02069B0B1C6F80090FFF716
:100AC000B7FC074605E00AE1FFF7B2FCC01B0228AD
:100AD000C4D828688007F7D52868616920F0F80035
:100AE00040EAC10028600DE0C6F80080FFF7A0FCD6
:100AF000074604E0FFF79CFCC01B022823D82868A7
:100B00008007F7D4207800072CD57948A169D9B19E
:100B1000C0F80090FFF78CFC074604E0FFF788FC64
:100B2000C01B02280FD8686A8007F7D571484FF4B8
:100B3000FA510068B0FBF1F0009000BF0098411E30
:100B40000091FAD20EE080E0C0F80080FFF770FC60
:100B5000074604E0FFF76CFCC01B022875D8686AE2
:100B60008007F7D42078400760D5E8690027C000E7
:100B700008D4E86940F08050E861E869012700F096
:100B8000805000905C480168C90513D40168834611
:100B900041F480710160FFF74BFC824606E000BF24
:100BA000FFF746FCA0EB0A0064284ED8DBF80000F3
:100BB000C005F5D5E06801280AD008B1052813D092
:100BC000286A20F001002862286A20F0040002E070
:100BD000286A40F001002862E06841F2883B98B141
:100BE000FFF726FC82460BE0286A40F004002862EA
:100BF000EEE700BFFFF71CFCA0EB0A0159455AD8ED
:100C0000286A8007F6D50CE0FFF712FC824605E063
:100C1000FFF70EFCA0EB0A0159454CD8286A800763
:100C2000F6D41FB1E86920F08050E861E06988B32C
:100C30006968C1F38101022944D00228C6F86080A6
:100C400004D0FFF7F5FB044638E034E0FFF7F0FB93
:100C5000074604E0FFF7ECFBC01B02282BD82868EE
:100C60008001F7D4206AB0F5803F05D16868A1689B
:100C700020F4003008436860D4E90801084369683B
:100C800021F4741108436860C6F86090FFF7D0FB48
:100C9000044606E025E000BFFFF7CAFB001B022860
:100CA00009D828688001F7D51BE000BFFFF7C0FB1B
:100CB000001B022802D90320BDE8F88F28688001B4
:100CC000F4D40EE00128F7D06868226A00F480317D
:100CD000914204D1616A00F47010884201D0012071
:100CE000EAE70020E8E7000000100240000042426E
:100CF000800442421C0000200070004070B50400D7
:100D000009D0606A002540B125616561A56294F84B
:100D1000510040B10CE0012070BD6068B0F5827FE9
:100D2000F4D0E561F2E784F85050204600F040F836
:100D3000022084F851002068016821F04001016020
:100D4000A088218900F4827001F404410843A1893C
:100D500001F400610843217C01F002010843217D78
:100D600001F001010843218B01F400710843217F48
:100D700001F03801084394F8201001F08001084385
:100D8000218D01F40051084321680860A069042105
:100D900001EA1040216848602068C16921F40061BF
:100DA000C1616565012084F85100002070BD00001C
:100DB00030B585B000240094019402940394234D2F
:100DC0000368234802210322AB4216D1836943F40E
:100DD00080538361836903F480530493836943F0F0
:100DE000040383618069039200F004000490A02052
:100DF000CDE900016946174823E0174DAB4222D1E7
:100E0000C36943F48043C361C36903F4804304931B
:100E1000836943F0080383618069104D00F0080086
:100E200004904FF43040CDE9000103926946284612
:100E3000FFF700FA4FF48040CDE9000469462846E8
:100E40000294FFF7F7F905B030BD00000030014013
:100E5000001002400008014000380040000C014032
:100E60007047704710B5040003D094F83D0010B1EE
:100E700007E0012010BD002084F83C00204600F06F
:100E80001EF8022084F83D00211D206800F05EFA63
:100E9000012084F8460084F83E0084F83F0084F87E
:100EA000400084F8410084F8420084F8430084F84C
:100EB000440084F8450084F83D00002010BD7047D0
:100EC00090F83D10012901D001207047022180F8DF
:100ED0003D100168CA6842F00102CA6000680B490F
:100EE000884208D0B0F1804F05D00949884202D02D
:100EF0000849884204D1816801F00701062903D01E
:100F0000016841F00101016000207047002C0140A0
:100F10000004004000080040704770B504460068B7
:100F200001694FF00005C943890715D4C168C94359
:100F3000890711D4E91E01610120207720688069AA
:100F40008007204602D0FFF7E7FF04E000F098F8A2
:100F5000204600F096F8257720680169C9434907C3
:100F600017D4C168C943490713D46FF00401016164
:100F7000022020772068806910F4407F204602D04C
:100F8000FFF7CAFF04E000F07BF8204600F079F894
:100F9000257720680169C943090716D4C168C94388
:100FA000090712D46FF0080101610420207720683E
:100FB000C0698007204602D0FFF7AEFF04E000F0D2
:100FC0005FF8204600F05DF8257720680169C94385
:100FD000C90617D4C168C943C90613D46FF01001FC
:100FE0000161082020772068C06910F4407F204606
:100FF00002D0FFF791FF04E000F042F8204600F035
:1010000040F8257720680169C943C90708D1C1683C
:10101000C943C90704D1891E0161204600F032F896
:1010200020680169C943090609D4C168C943090692
:1010300005D46FF0800101612046FFF711FF2068A1
:101040000169C943490609D4C168C943490605D4A1
:101050006FF040010161204600F01EF82068016930
:10106000C94389060BD4C168C943890607D46FF008
:10107000200101612046BDE87040FFF7F2BE70BD5F
:101080007047704700680349884201D1FFF7D6B91D
:1010900070470000002C0140704770B5040004D078
:1010A00094F83900002510B106E0012070BD84F8E5
:1010B0003850204600F022F8242084F839002068B7
:1010C000C16821F40051C160204600F081F9206818
:1010D000016921F4904101612068416921F02A01F0
:1010E00041612068C16841F40051C160E56320207E
:1010F00084F8390084F83A00002070BD30B585B01E
:1011000000240094019402940394006814498842D6
:1011100024D11448816941F480418161816901F4DD
:1011200080410491816941F00401816180690E4D23
:1011300000F0040004904FF4007000900220019031
:101140000320039069462846FFF774F82815CDE977
:101150000004694628460294FFF76CF805B030BDDC
:10116000003801400010024000080140FEE7000086
:101170002DE9F04186B000242048009401940294A7
:101180000394816941F020018161816901F02001AE
:101190000491816941F004018161816901F00401D8
:1011A0000491816941F0080181618069144F00F068
:1011B00008000490002204213846FFF733F9DFF8D5
:1011C0004480002207214046FFF72CF90420012526
:1011D0000226CDE90005CDE9024669463846FFF70B
:1011E00029F80720CDE90005CDE9024669464046C9
:1011F000FFF720F806B0BDE8F081000000100240C3
:1012000000080140000C01400D480C494FF40072E9
:1012100001604FF4827141604FF400418160002110
:10122000C1600161C0E905121822C0E907214162CD
:1012300081620A21C162FFF761BD000000300140F8
:10124000980000200C480B494FF4802201604FF4B5
:101250008271416000218160C1600161C0E90512B5
:101260001022C0E90721416281620A21C162FFF7B1
:1012700045BD000000380040F0000020FEE7FFF709
:10128000A1BB0000044C04212046FFF7C3F86420F2
:1012900000F08CF9F7E7000000080140012000F0A1
:1012A00085F9FBE7012000F081F9FBE710B550203C
:1012B00080F31188BFF34F8FBFF36F8F01F0E6FB10
:1012C00018B104494FF080500860002080F3118865
:1012D00010BD000004ED00E030B593B02821684651
:1012E000FEF787FF14210AA8FEF783FF00240120E0
:1012F0000F9410941194010412948DE8130004903B
:101300004FF4E010CDE90810022507956846FFF775
:1013100065FB0F20CDE90A056802CDE90C400221EA
:101320000AA80E94FFF73CFA10200F9012940FA811
:10133000FFF7BEF9FFF7CAFA13B030BD70470000DF
:101340000148FFF7EABD000074040020F0B5026810
:10135000164B174C174D4FF08047984205D0B842B6
:1013600003D0A04201D0A84203D122F070064A68FF
:101370003243984205D0B84203D0A04201D0A842DF
:1013800003D122F44074CA6822434C6922F08002DF
:10139000224302608A68C2620A688262984201D16E
:1013A0000969016301214161F0BD0000002C014089
:1013B000000400400008004010B500F011FE0028B5
:1013C00005D0D0E90021BDE810400846104710BD07
:1013D00070B5044600680169E26821F44051114388
:1013E00001612169A0680843616908432168CA68EE
:1013F00041F20C639A430243CA6020684169A269C2
:1014000021F44071114341611E492068884202D194
:10141000FFF792FA01E0FFF77FFA00EBC00101EB62
:101420000012606864218000B2FBF0F3B3FBF1F3BB
:101430006FF018067343B2FBF0F5B2FBF0F605EB64
:101440008305322303EB0515B5FBF1F5B6FBF1F689
:1014500005F0F00505EB0615B2FBF0F6B2FBF0F077
:10146000B0FBF1F06FF01802504306EB800003EB85
:101470000010B0FBF1F0216800F00F0028448860F4
:1014800070BD000000380140002070470020704708
:10149000012120F8401F002101808180018208463F
:1014A000704730F8401F21F43F4101800020704711
:1014B00000207047FEE70907090E002804DB00F151
:1014C000E02080F80014704700F00F0000F1E020E9
:1014D00080F8141D704702E008C8121F08C1002AD6
:1014E000FAD170477047002001E001C1121F002AA5
:1014F000FBD17047FEF7AAFFFFF7EEFEFFF738FEBD
:10150000FFF782FEFFF79EFE20481F49002401607E
:101510004FF4E131C0E901140C21C460C0E9044179
:101520008461C461FFF7B9FD184819494030016072
:10153000082141608461C461022104628160FFF777
:1015400035F800F04DF8134B00220121124800F04D
:10155000D5F8124C0F4A0021E0606C3A104800F0B8
:101560007BF80C4A2060483A00210E4800F074F8DD
:10157000084A6060243A00210B4800F06DF8A06032
:1015800000F04AF8FEE70000003801404801002062
:10159000005C0040A02E00082F0200080000002080
:1015A000851200089D120008A512000810B5EFF37F
:1015B000058149B9EFF3108131B908490968022959
:1015C00005D1EFF3118111B16FF0050403E00024A0
:1015D00008B100F059FE204610BD00007000002048
:1015E000EFF3058058B9EFF3108040B90949086856
:1015F000022801D030B109E0EFF3118030B16FF073
:101600000500704701200860002070474FF0FF3050
:10161000704700007000002010B5EFF3058060B93E
:10162000EFF3108048B90B490868022802D001285E
:1016300006D00BE0EFF3118040B16FF0050010BD54
:101640000220086000F088FE002010BD4FF0FF303F
:1016500010BD000070000020F0B585B04FEA010316
:101660004FF00004EFF305810394A1BBEFF3108169
:1016700089BB21490968022902D1EFF3118151BBCD
:1016800048B3802618218DF8104004AD42B3176886
:1016900007B13D4697691FB139467F1E382F02D2E8
:1016A0001779FF0702D0002005B0F0BD576907B1D8
:1016B000BE08D2F808C0BCF1000F0DD0D4685C2C75
:1016C00018D312693AB137B18DE80610324629466F
:1016D00001F09DF903900DE0D7685FB912694AB92E
:1016E00003AACDE90012B2B2294601F063F901283C
:1016F00000D003940398D7E7700000202DE9FC4147
:101700001C461746884606464FF00005EFF3058055
:1017100078BBEFF3108060BB17480068022802D145
:10172000EFF3118028BB26B3082000F0EDFB030087
:101730001FD0B8F1000FC3E9006711D001220F4E8E
:1017400000208CB1216801B10846A16851B1E4685C
:10175000302C0ED3CDE90061012101F0EFFA07E052
:101760000022ECE7E16821B90121009601F0CCFAF2
:1017700005462846BDE8FC8170000020B91300082A
:101780002DE9F041134C0F46054666692068001D9F
:1017900000F04AFC681C07D137B12168BDE8F04170
:1017A0000D48091D00F090BC20683544B5424560E5
:1017B000216805D2A068BDE8F041091D00F06CBCAD
:1017C0006068091D00F068FC206B854200D225632B
:1017D000BDE8F08120000020AC0900202DE9F04197
:1017E000054600F07DFC2D4C2069401C20612068DE
:1017F0002B4F10B1E06930B32BE025602069012840
:1018000027D1002606EB860007EB800000F036FCAF
:10181000761C382EF6D3234800F030FC21481430D3
:1018200000F02CFC1F48283000F028FC1D483C30FC
:1018300000F024FC1B48503000F020FC1948606088
:101840001430A06005E02068E96AC06A884200D8C8
:101850002560E06A401CE0626864E86AA169884229
:1018600000D9A06100EB800007EB8000291D00F08B
:101870002BFC00F055FCE06900280CD02068E96AD8
:10188000C06A884207D208494FF080500860BFF311
:101890004F8FBFF36F8FBDE8F08100002000002064
:1018A000FC0400205C09002004ED00E038B500F0E5
:1018B00017FC104CA068C8B90F4800F0DFFB0E48B9
:1018C000143000F0DBFB0C482060143060600A4BE1
:1018D00000202833009003F1500210210A2000F06C
:1018E0000DFEA06010B105A100F098FCBDE83840E5
:1018F00000F016BC5C000020C0090020546D72513D
:101900000000000030B4026C0B46002A0BD0C16806
:101910001144C1604468A14201D30168C16030BC78
:101920001846FEF74DBC30BC70472DE9F041856B81
:10193000174604460026026C82B1C7B1E068FEF784
:101940003FFCE168206C091AE1602268914202D2F2
:101950006168081AE060022F16D017E02068A8B965
:10196000606801F0F7F80646002060600EE0A068AD
:10197000FEF726FC216CA0680844A06061688842DC
:1019800004D32068A06001E005B16D1E6D1CA56345
:101990003046BDE8F08110B5044690F8590058B1C2
:1019A00001280CD002280FD0502080F31188BFF3FB
:1019B0004F8FBFF36F8FFEE7206B00F0C5FB204613
:1019C000BDE8104000F0C0BB10BD000010484FF44F
:1019D0004061420706D0C01D0D4920F00700411AA2
:1019E000C1F540610B4A00230144C2E900030839F4
:1019F000103A21F0070111604B600B600B1AC0E92F
:101A0000001393604FF000405360D06070470000B7
:101A10009011002084000020144E154CA6F29C4723
:101A20004FF08058DFF84C9012E000BF00F058FBF8
:101A3000F068C568281D00F0F7FA2069401E206193
:101A4000E068401EE06000F06BFB2846FFF7A3FF54
:101A5000E0680028EAD138680128F9D9C9F800807F
:101A6000BFF34F8FBFF36F8FF2E70000980900209C
:101A70002000002004ED00E070B51D46049C51B12B
:101A8000C4F80020C4E90F010121204600F06AFDDE
:101A900084F84C5070BD2460F4E72DE9F0470E4601
:101AA000DDE909841746824691009946089DA522E2
:101AB000206BFEF797FB6FF00301206B01EB8701B2
:101AC000084420F00707780707D0502080F31188DA
:101AD000BFF34F8FBFF36F8FFEE72218315C82F8A0
:101AE0003410315C11B1401C1028F6D3002684F864
:101AF0004360382D00D33725E562C4E91356201D15
:101B000000F0C7FA04F1180000F0C3FA2461C5F12F
:101B100038006462A061666584F858604A465146A0
:101B2000384600F06FFA2060B8F1000F01D0C8F815
:101B30000040BDE8F0872DE9F0471E46DDE9089436
:101B400017460D0080460ED0002C14D0FFF7AEFED5
:101B5000C4F80080C4E90657C4E90869201DBDE83F
:101B6000F04700F096BA502080F31188BFF34F8FF2
:101B7000BFF36F8FFEE7BDE8F087000030B5114975
:101B800000E011460A688242FBD34B685C1884422D
:101B900003D1406818444860084643681C189442C2
:101BA00009D1084C103C2468A24209D052681A445A
:101BB00042600A6812680260814200D0086030BD4D
:101BC0000460F9E78400002070B5002441600B4DEB
:101BD0000061914206D8D11A8269914206D2011D54
:101BE000686807E09A4203D2994201D3012403E0D6
:101BF000011D286800F050FA204670BD5C000020EE
:101C000010B5044600F06CFAA06B28B15FF0000438
:101C100000F086FA204610BD0124F9E730B589B0FE
:101C2000304D55E00498002806DADDE90601059AF2
:101C30009047049800284BDB069C606910B1201D7A
:101C400000F0F2F902A800F0B9F8024604980A2858
:101C50003ED2DFE800F00505053D263705053D26A7
:101C60000598A169034601442046FFF7ADFF00B384
:101C7000616A20468847E069012829D10020009048
:101C80000598A169002342181946204601F09EF8E4
:101C900078B9502080F31188BFF34F8FBFF36F8F57
:101CA000FEE70598A06128B1811813462046FFF78A
:101CB0008BFF0DE0502080F31188BFF34F8FBFF3EF
:101CC0006F8FFEE794F82C0010B9204600F03CFA24
:101CD000002204A9A86800F097FD0028A2D109B04D
:101CE00030BD00005C0000202DE9FC410F46054698
:101CF00000F076FB01A800F061F80446019818B1E5
:101D000000F0A0FFBDE8FC81224EAFB17068006812
:101D1000A8B30027291B3A46B06800F093FA00F0F8
:101D200091FF0028EED11C494FF080500860BFF3AE
:101D30004F8FBFF36F8FE5E7A542EBD800F082FF2E
:101D400030682746C068C468201D00F06DF9E0695E
:101D5000012810D1A0692B4641193A462046FFF7C9
:101D600033FF40B100200346014600902A4620463A
:101D700001F02CF820B1616A20468847C2E707E0ED
:101D8000502080F31188BFF34F8FBFF36F8FFEE7B2
:101D90000127BFE75C00002004ED00E00648416831
:101DA000096829B14168C968C96849680163704711
:101DB0004FF0FF31FAE700002000002070B5054623
:101DC00000F05EFE064E04463069844203D200F005
:101DD00009F8012000E0002028602046346170BD31
:101DE0005C000020F8B5194D1FE0C068C4680668A3
:101DF000201D00F019F9616A20468847E069012832
:101E000013D1A0693044B04206D924616060211D1D
:101E1000286800F041F908E00020034601460090E0
:101E20003246204600F0D2FF38B128680168002908
:101E3000DBD16968C5E90010F8BD502080F3118836
:101E4000BFF34F8FBFF36F8FFEE700005C000020F1
:101E500008484068401C4FF0500080F3118804D0BF
:101E6000BFF34F8FBFF36F8FFEE7BFF34F8FBFF30B
:101E70006F8FFEE78C000020074C2068016841B19D
:101E8000C0680021D0F80000FFF72EFFFFF7C6FE64
:101E9000F3E701210020F7E75C0000202DE9F04185
:101EA000044600F01DF994F9455004F1240609E0B8
:101EB000606A48B1304600F08DFE08B100F012FAB9
:101EC0006D1E6DB2002DF3DC4FF0FF3684F84560D7
:101ED00000F026F900F004F994F9445004F11007D9
:101EE00009E0206948B1384600F074FE08B100F0FE
:101EF000F9F96D1E6DB2002DF3DC84F84460BDE885
:101F0000F04100F00DB900002DE9F0410546002731
:101F100000F066FA314E306808B9FFF757FDF068F7
:101F200005424BD1C5B3083568070ED005F0070050
:101F3000C0F108000544680707D0502080F31188DD
:101F4000BFF34F8FBFF36F8FFEE72DB370688542ED
:101F500034D82248103001460C6801E020460C4677
:101F60006168A94202D221680029F7D131688C4208
:101F700024D007682168016060680837411B102978
:101F80000FD96019420708D0502080F31188BFF3A1
:101F90004F8FBFF36F8FFEE710E041606560FFF782
:101FA000EDFD61687068401A7060B268904200D2BE
:101FB000B060F06801430020C4E9000100F042FE77
:101FC000780707D0502080F31188BFF34F8FBFF3FD
:101FD0006F8FFEE73846BDE8F081000074000020F6
:101FE00010B5040006D000F07BF8246A00F098F8E1
:101FF000204610BD502080F31188BFF34F8FBFF3F0
:102000006F8FFEE710B5031F4FF080741C601B1F1D
:1020100021F001011960191F024B0B60143940387F
:102020000A6010BD511E0008D0E9013201699A60B2
:10203000D0E901235A604A68824201D182684A602D
:10204000002202610868401E0860086870470000AE
:10205000034B036003F15C00086080201060704750
:10206000D80A0020044B036003F15C0008604FF4C1
:102070008070106070470000340D002000F10801EE
:102080004FF0FF32C0E90112C1600161002101601F
:10209000704700210161704730B50B685A1C02D0AF
:1020A00000F1080202E0026904E022465468256853
:1020B0009D42FAD953684B6099608A60516008610B
:1020C0000168491C016030BD42684A6093688B60BA
:1020D00093685960916008610168491C016070470C
:1020E000502080F31188BFF34F8FBFF36F8F0A49E1
:1020F0004868401C486001280CD10848006810F06E
:10210000FF0F07D0502080F31188BFF34F8FBFF32C
:102110006F8FFEE7704700008C00002004ED00E0A8
:102120000849486828B1401E486001D180F31188F1
:102130007047502080F31188BFF34F8FBFF36F8F2C
:10214000FEE700008C00002070B5002827D0144D59
:10215000A0F108046168E868014207D1502080F3CB
:102160001188BFF34F8FBFF36F8FFEE722683AB13C
:10217000502080F31188BFF34F8FBFF36F8FFEE7BE
:102180008143616000F02CF9606869680844686008
:102190002046FFF7F3FCBDE8704000F053BD70BD72
:1021A000740000204FF0E0200021016181610549A9
:1021B0004FF47A720968B1FBF2F1491E41610721BF
:1021C000016170471C00002010B5FDF7E3FF1149C5
:1021D00010280ED300F1E02090F8F0030A78904226
:1021E00007D2502080F31188BFF34F8FBFF36F8F5A
:1021F000FEE709480068896800F4E060884207D972
:10220000502080F31188BFF34F8FBFF36F8FFEE72D
:1022100010BD00008C0000200CED00E010B5084B54
:10222000002200BF53F832401CB1521C082AF9D3D7
:1022300010BD43F8321003EBC201486010BD00002E
:10224000BC04002070B515460E460446FFF748FF53
:1022500094F944100020491C01D184F8440094F9F9
:102260004510491C01D184F84500FFF759FFA06BC8
:1022700028B92A46314604F1240000F051F82046DE
:10228000BDE87040FFF70ABE10B5020014D00F4839
:10229000806B38B1502080F31188BFF34F8FBFF3AC
:1022A0006F8FFEE700F09CF800211046FFF768FAF8
:1022B00000F0C8FC002807D105494FF080500860A5
:1022C000BFF34F8FBFF36F8F10BD000020000020C1
:1022D00004ED00E002498A6A026049694160704782
:1022E00020000020014901204862704720000020A2
:1022F00010B50C4650B1094909681831FFF7CCFEFA
:102300002046BDE810400121FFF73ABA502080F383
:102310001188BFF34F8FBFF36F8FFEE720000020BF
:1023200070B514460D4668B10A4909681831FFF7BF
:10233000CBFE0CB14FF0FF3521462846BDE870407A
:10234000FFF71EBA502080F31188BFF34F8FBFF301
:102350006F8FFEE72000002030B587B00024039483
:1023600005AA04A903A80494FFF772FEDDE903019E
:102370000094CDE90110002315A11748059A00F03B
:1023800046FB164D002868631FD000F0EFFC0128C3
:1023900009D0401C19D1502080F31188BFF34F8F12
:1023A000BFF36F8FFEE7502080F31188BFF34F8F8C
:1023B000BFF36F8F4FF0FF3028630120E8616C613D
:1023C00007B0BDE8304000F045B807B030BD0000B0
:1023D00049444C4500000000191A00082000002064
:1023E0000248816B491C8163704700002000002077
:1023F000164810B5816B11B10121416210BD002159
:1024000041628169124A01E0B9B1491E01EB8103C1
:1024100052F82330002BF7D001EB810302EB83024B
:1024200002F1080453685B685360A34201D15B6802
:102430005360DA680260816110BD502080F311881A
:10244000BFF34F8FBFF36F8FFEE700002000002027
:10245000FC0400201CB5264908780190FF20087074
:1024600008788DF800009DF800009DF8002000F02D
:10247000F000904207D0502080F31188BFF34F8FB7
:10248000BFF36F8FFEE79DF800001A4B00F050007D
:1024900018700720986005E09DF8002052008DF824
:1024A0000020401E9DF800201206F5D498600328F5
:1024B00007D0502080F31188BFF34F8FBFF36F8F89
:1024C000FEE74FF440709860019808700A48016870
:1024D00041F470010160016841F070410160FFF753
:1024E00061FE00205860FDF71FFE00201CBD0000AB
:1024F00000E400E08C00002020ED00E038B5049DF1
:1025000018B153B1CAB181B120E0502080F31188D5
:10251000BFF34F8FBFF36F8FFEE7502080F311881A
:10252000BFF34F8FBFF36F8FFEE7502080F311880A
:10253000BFF34F8FBFF36F8FFEE739B1502080F3A9
:102540001188BFF34F8FBFF36F8FFEE750241C46F7
:10255000012384F846302B460094FFF78DFA20467D
:1025600038BD000070B50D46040025D0FFF7B8FD5A
:10257000D4E90F20216802FB001161600021A163F2
:102580002168A1600A46D4E90F01401E00FB012129
:10259000E16021464FF0FF3001F8440F487004F12C
:1025A00010008DB1FFF76AFD04F12400FFF766FD0E
:1025B000FFF7B6FD012070BD502080F31188BFF3F6
:1025C0004F8FBFF36F8FFEE721690029F0D000F035
:1025D00001FB0028ECD004494FF080500860BFF3A5
:1025E0004F8FBFF36F8FE3E704ED00E02DE9FF4766
:1025F00082B01D468A464FF00008040003D0BAF1AD
:10260000000F08D011E0502080F31188BFF34F8FE6
:10261000BFF36F8FFEE7206C38B1502080F3118834
:10262000BFF34F8FBFF36F8FFEE7022D0AD1E06B30
:10263000012807D0502080F31188BFF34F8FBFF3DC
:102640006F8FFEE700F00EFA3F4F4FF000094FF09A
:10265000805648B9049838B1502080F31188BFF3F0
:102660004F8FBFF36F8FFEE7FFF73AFDA06BE16B73
:10267000884207D3022D05D00498D0B1B8F1000FDD
:102680001AD01EE02A4651462046FFF74EF9616AED
:1026900019B104F1240000F09DFA20B13E60BFF3AF
:1026A0004F8FBFF36F8FFFF73BFD012006B0BDE8F2
:1026B000F087FFF735FD22E06846FFF70BFE4FF08D
:1026C0000108FFF72DFDFFF78BFEFFF709FD94F9D9
:1026D0004400401C01D184F8449094F94500401C0A
:1026E00001D184F84590FFF71BFD04A9684600F06E
:1026F00027F930B12046FFF7D1FB00F0A3FA002004
:10270000D4E7FFF7EDFCA06BE16B884213D1FFF734
:1027100007FD04F110000499FFF7EAFD2046FFF7DA
:10272000BDFB00F08FFA00289ED13E60BFF34F8FB3
:10273000BFF36F8F98E7FFF7F3FC2046FFF7AEFB80
:1027400000F080FA90E7000004ED00E02DE9F0478A
:102750001F4690468946040003D0B9F1000F08D007
:1027600011E0502080F31188BFF34F8FBFF36F8FBC
:10277000FEE7206C38B1502080F31188BFF34F8FF3
:10278000BFF36F8FFEE7022F0AD1E06B012807D05D
:10279000502080F31188BFF34F8FBFF36F8FFEE798
:1027A000FFF712FD5020EFF3118680F31188BFF37D
:1027B0004F8FBFF36F8FA06BE16B884206D3022F60
:1027C00004D0002086F31188BDE8F08794F94550C5
:1027D0003A4649462046FFF7A8F8681C04D06D1C0D
:1027E00084F845500120EDE7606A0028FAD004F132
:1027F000240000F0EFF90028F4D0B8F1000FF1D078
:102800000121C8F80010EDE72DE9F747002683B055
:102810008A46040003D0BAF1000F08D011E050201E
:1028200080F31188BFF34F8FBFF36F8FFEE7206CEB
:1028300038B1502080F31188BFF34F8FBFF36F8FF3
:10284000FEE700F00FF9DFF8F4804FF000094FF0D9
:10285000805748B9059838B1502080F31188BFF3EC
:102860004F8FBFF36F8FFEE7FFF73AFCA56BC5B143
:1028700051462046FFF746F86D1EA563206950B10A
:1028800004F1100000F0A6F928B1C8F80070BFF3F9
:102890004F8FBFF36F8FFFF743FC012006B0BDE8F9
:1028A000F087059808B11EB106E0FFF739FC27E074
:1028B0006846FFF70FFD0126FFF732FCFFF790FD9A
:1028C000FFF70EFC94F94400401C01D184F84490B9
:1028D00094F94500401C01D184F84590FFF720FC95
:1028E00005A9684600F02CF8002820460AD0FFF71A
:1028F000D5FA00F0A7F92046FFF782F90028B3D0F7
:102900000020CBE7FFF77CF990B104F12400059992
:10291000FFF7EEFC2046FFF7C1FA00F093F900281C
:10292000A2D1C8F80070BFF34F8FBFF36F8F9BE742
:102930002046FFF7B3FA00F085F995E704ED00E0D3
:102940002DE9F0410C46050011D0C4B1FFF7C8FBDA
:10295000174B5A696E682068911B471C17D02F6867
:102960009B6A9F4219D0964217D8012410E050204C
:1029700080F31188BFF34F8FBFF36F8FFEE75020B6
:1029800080F31188BFF34F8FBFF36F8FFEE70024F2
:10299000FFF7C6FB2046BDE8F081884205D9401A02
:1029A00020602846FFF796FCF1E700202060DCE776
:1029B000200000202DE9FF5F8346DDE90E87994660
:1029C00016468A469000FFF79FFA05001CD05C204F
:1029D000FFF79AFA040014D00020256384F8590008
:1029E000CDE90240CDE900874B4632465146584674
:1029F000FFF753F82046FEF7F1FE012004B0BDE8D2
:102A0000F09F2846FFF7A0FB4FF0FF30F6E7F0B548
:102A100085B0DDE90B640A9DA6B1DCB15C270097A7
:102A20002663022684F85960002604AFCDE90246E9
:102A3000CDE90057FFF731F82046FEF7CFFE0498A6
:102A400005B0F0BD502080F31188BFF34F8FBFF366
:102A50006F8FFEE7502080F31188BFF34F8FBFF3D5
:102A60006F8FFEE70548C16919B1806B18B100206E
:102A700070470120704702207047000020000020AE
:102A80000148406970470000200000202DE9F04116
:102A90002E4C0027A06B40B1206A401C2062606A67
:102AA00000B101273846BDE8F0816669761C666191
:102AB00013D16068006838B1502080F31188BFF3EB
:102AC0004F8FBFF36F8FFEE76068A1686160A06001
:102AD000A06A401CA062FFF761F9206BDFF87080EC
:102AE000864209D36068006880B16068C068C568C4
:102AF000686886420DD220632068C06A00EB8001BE
:102B000058F821000128CAD90127C8E74FF0FF3043
:102B1000F1E7281DFFF788FAA86A18B105F1180037
:102B2000FFF782FAE86AA169884200D9A06100EB48
:102B3000800108EB8100291DFFF7C6FAE86A2168C9
:102B4000C96A8842CED30127CCE7000020000020CC
:102B5000FC04002070B504004FF0000133D01B4D81
:102B60002868844207D0502080F31188BFF34F8F2C
:102B7000BFF36F8FFEE7206D38B1401E2065E36C18
:102B8000E26A9A421FD040B11DE0502080F31188C4
:102B9000BFF34F8FBFF36F8FFEE7201DFFF744FA9F
:102BA000E06CE062C0F13800A061E06AA969884287
:102BB00000D9A861064900EB800001EB8000211DCF
:102BC000FFF782FA0121084670BD000020000020B6
:102BD000FC04002070B5C068C46854B104F118004A
:102BE0000646FFF721FA144DA86B50B13146134841
:102BF00015E0502080F31188BFF34F8FBFF36F8F24
:102C0000FEE7201DFFF710FAE06AA969884200D9A3
:102C1000A8610B4900EB800001EB8000211DFFF74C
:102C200053FAE06A2968C96A884202D901206862B9
:102C300070BD002070BD000020000020840900202D
:102C4000FC0400202DE9F0472C4D00242746A86BFA
:102C500038B1FFF745FAA86B401EA863A86B40B1D6
:102C600046E0502080F31188BFF34F8FBFF36F8F82
:102C7000FEE72969224E0120D1B3A6F5916980466D
:102C80003068E0B1F068C46804F11800FFF7CCF9CF
:102C9000201DFFF7C9F9E06AA969884200D9A86137
:102CA00000EB800109EB8100211DFFF70DFAE06ABE
:102CB0002968C96A8842E3D3C5F82480E0E70CB1EB
:102CC000FFF76CF82C6A4CB14FEA0806FFF7DEFEFE
:102CD00000B16E62641EF9D100202862686A38B1C2
:102CE0000849012738070860BFF34F8FBFF36F8F84
:102CF000FFF716FA3846BDE8F087000020000020F4
:102D00008409002004ED00E02DE9FC4781461E46C1
:102D10001746884630200A9DFFF7F6F804000AD0CF
:102D2000CDE9005433463A4641464846FEF703FF94
:102D3000002084F82C002046BDE8FC877CB53026B6
:102D4000DDE90654009644B1CDE90054FEF7F3FEE8
:102D5000012084F82C0020467CBD502080F311888F
:102D6000BFF34F8FBFF36F8FFEE7000010B586B043
:102D7000FEF79CFD114CA068B8B1002003900490B0
:102D800005AA04A903A8FFF76DF9DDE903210220D4
:102D90008DE8070000230AA10B48059AFFF737FECC
:102DA000E06010B106B0012010BD502080F3118802
:102DB000BFF34F8FBFF36F8FFEE700005C00002072
:102DC000546D722053766300791E00082DE9FF418F
:102DD0001E46134602000A9D4FF0000016D0144C08
:102DE000A768002F0FD0CDE900130292062917DA49
:102DF000FFF738FE02284FF000030FD0002269468B
:102E0000A068FFF7F3FB04B0BDE8F081502080F329
:102E10001188BFF34F8FBFF36F8FFEE72A46EEE7AF
:102E20000023324669463846FFF790FCEBE7000086
:102E30005C000020E42E00080000000000000000FC
:102E400000000000000000008000000018000000EA
:102E50000000000000000000D42E00080000000068
:102E600000000000000000000000000080000000E2
:102E7000080000000000000000000000DC2E000838
:102E80000000000000000000000000000000000042
:102E900080000000080000000000000000000000AA
:102EA000C82E000800000000000000000000000024
:102EB00000000000000000000102030406070809EA
:102EC00000000000010203046D7954696D657230E1
:102ED000310000007461736B310000007461736B2A
:102EE0003200000064656661756C745461736B0038
:102EF000102F00080000002098000000D6140008E1
:102F0000A82F000898000020F8200000E614000810
:102F100000000000000000000000000000000000B1
:102F20000100000010000000000000000024F40078
:102F30000000000000000000000000000000000091
:102F40000000000000000000000000000000000081
:102F50000000000000000000000000000000000071
:102F60000000000000000000000000000000000061
:102F70000000000000000000000000000000000051
:102F80000000000000000000000000000000000041
:102F90000000000000000000000000000000000031
:082FA000AAAAAAAA0000000081
:04000005080000ED02
:00000001FF
