:020000040800F2
:10000000B0060020C900000881130008491100084B
:1000100000000000000000000000000000000000E0
:100020000000000000000000000000008513000830
:100030000000000000000000831300088713000880
:10004000DB00000800000000DB000008DB00000807
:10005000DB000008DB000008DB000008DB00000814
:1000600000000000DB000008DB000008DB000008E7
:10007000DB000008DB000008DB00000800000000D7
:10008000DB000008DB00000800000000DB000008C7
:10009000DB000008DB000008DB000008DB000008D4
:1000A000DB000008DB000008DB000008DB000008C4
:1000B000DB0000080348854600F08EF80048004742
:1000C0008B170008B006002004488047044800470A
:1000D000FEE7FEE7FEE7FEE7FEE7FEE7E9130008BE
:1000E000B500000830B50B4601460020202201244F
:1000F00009E00D46D5409D4205D31D469540491B5C
:100100002546954040191546521E002DF1DC30BDA4
:10011000F0B51FB40646002082B005464024019188
:1001200000901BE0019922460F46304600F020F86F
:10013000049A059B801A994110D31046194622460D
:1001400000F039F8361A8F4101972246012000212C
:10015000009F00F030F838184D4100902046641E92
:100160000028DFDC019B00982946324607B0F0BD2D
:1001700010B5202A04DB0846203AD040002110BDEB
:100180000B46D340D0402024A21A91400843194680
:1001900010BDD2B201E00270401C491EFBD2704774
:1001A0000022F6E710B513460A4604461946FFF743
:1001B000F0FF204610BD10B5202A04DB0146203A8E
:1001C0009140002010BD914020239C1A0346E3403B
:1001D0001943904010BD0000064C0125064E05E075
:1001E000E36807CC2B430C3C98471034B442F7D358
:1001F000FFF764FFCC170008EC170008F8B50025DE
:10020000044620340095227D012A39D0012222752E
:1002100003689E68760767D4384F4E68BE424DD05B
:100220009E6A0F78BA4016439E620123C26A1B077A
:100230009A421FD0012A1DD0022A1BD0032A19D0AE
:10024000042A17D0052A15D0062A13D0072A11D060
:1002500002688B6856697607760FB3420AD05369F5
:10026000DB08DB005361006842690B7A5B075B0FB8
:100270001A4342610A68102A04D0112A02D038E0D9
:100280000220F8BD1E488368102A07D0012292057B
:10029000134383600868102803D02AE00122D205A6
:1002A000F6E7194817490068FFF71CFF0A21484381
:1002B00000E0401E00900028FBD11AE0986A0E78FA
:1002C000B240904398620968102901D0112910D1D9
:1002D0000B488268102904D0012189058A43826075
:1002E00007E00121C905F9E7816B202211438163F1
:1002F0000125002020752846F8BD000001100000EF
:100300000027014040420F000C000020F8B50026F5
:100310000446002805D0A06B25462035002802D0D1
:1003200007E00120F8BD0020E0632875204600F0BA
:10033000A9F8A06B1022C006002870DB2068816835
:1003400049076CD4A16B1301994302231943A1639C
:1003500081688907890F012905D10168C9070FD173
:10036000C16809040CD4C16818239943A3681943D0
:10037000C1602068016963688900890819430161C7
:100380002068C1683D4B1940C160207E617E8003BA
:10039000C9030843A17E4B031843A36A012B02D073
:1003A00001231B0300E000231843E368184323697B
:1003B000022B09D0002318432B79E57E5B001843FC
:1003C0000123012D02D00AE00423F4E7002927D0FD
:1003D000A16B20252943A163E16B1943E163E16926
:1003E0000D46FF3DC23D02D0256A294308432168DE
:1003F000CD680543CD600125E16A2D07A94213D0E0
:10040000012911D002290FD003290DD004290BD0C6
:10041000052909D0062907D0072905D010E028E0D2
:10042000012109040843DAE721684D69ED08ED0070
:100430004D6121684D69A78D7F077F0F3D434D6159
:100440002168C9680E4D2940814207D10020E06330
:10045000A06B80088000401CA06308E0A06B022114
:1004600088431043A063E06B1843E06301263046E5
:10047000F8BDA06B1043A063F8E700001902FEFF6F
:10048000E7FF3F8310B586B0044614216846FFF7A6
:1004900087FE0F492068884218D10E4882694115AD
:1004A0000A43826182690A400592426949020A430D
:1004B00042614069084005900120009003200190AE
:1004C000002002906946044800F008F806B010BD0C
:1004D000002401400010024000040048F8B5002349
:1004E0008DE001249C40A44622407DD04C68022C23
:1004F00001D0122C0CD1DC08A40027183C6A5D073F
:10050000ED0E0F26AE40B4430E69AE4026433E6268
:1005100005685E000324B4400F79A543BF07BF0FF1
:10052000B7402F4307604D68012D05D0022D03D041
:10053000112D01D0122D0ED18568CF68A543B7408B
:100540002F43876047686546AF430D79ED06ED0F91
:100550009D403D434560C568A5438C68B4402C432D
:10056000C4604C68E40049D5284CA5690126354390
:10057000A561A4699D0834400094254CAD002F1955
:10058000BC689D072E0F0F25B540AC430925ED062D
:10059000A84201D100250FE01E4DA84201D101253E
:1005A0000AE01D4DA84201D1022505E01B4DA842DD
:1005B00001D1032500E00525B5402543BD60184C59
:1005C00025684E689543F60300D515432560656898
:1005D0004E689543B60300D515436560A5684E681F
:1005E0009543F60202D500E008E01543A560E568F2
:1005F0004E689543B60200D51543E5605B1C0A685A
:100600001446DC4000D06CE7F8BD0000001002404A
:10061000000001400004004800080048000C0048A9
:1006200000040140002A01D0816170478162704757
:1006300001488068704700000000002070B5024645
:1006400040325378202B1CD11378012B19D0012371
:10065000137024245470046825689D432560046841
:1006600025681E03B5432560046825680D43256091
:10067000006801681943016020205070002010704C
:1006800070BD022070BD70B5024640325378202BF9
:100690001BD11378012B18D001241470242353701C
:1006A00003681D68A5431D6005682B680F26360288
:1006B000B3430902194329600068016821430160BE
:1006C000202050700020107070BD022070BD00000E
:1006D00070B5040006D0254640356878002600280D
:1006E00002D005E0012070BD2E70204600F04AF8CF
:1006F00024206870206801684908490001600F21C2
:100700006068090688432168086121688A680120B9
:10071000C00382438A60E1680129A16808D02122D0
:100720009202114322689160E168022902D005E03B
:100730000143F7E701212268C902516021684A6834
:100740000F4B1A434A602168CA688243CA606169D4
:1007500020690843A169090208432168C860216A29
:10076000E06908432168086020680168012211439C
:1007700001606664202068702663AE70002070BD42
:1007800000800002F0B587B0044614216846FFF7E8
:1007900007FD1D4F266801221C4C920412250121E1
:1007A00003231B48BE4212D166691643666166691F
:1007B00002911640902205960491019503930092B0
:1007C0006946FFF78BFEE1690120400515E0114FF6
:1007D000BE4217D16669164366616669029116408A
:1007E00003229202059604910195039300926946B3
:1007F000FFF774FEE169012080050143E161E169D1
:100800000140059107B0F0BD0054004000100240C7
:1008100000040048005800400248816802788918A6
:10082000816070470000002010B506480168102262
:1008300011430160002000F007F800F027F80020C5
:1008400010BD00000020024070B504460D4D7D2013
:100850002978C000FFF746FC01460B480068FFF707
:1008600041FC00F0E1FB002809D1042C07D2002252
:100870002146401E00F01EF800206C6070BD012073
:1008800070BD0000000000200C00002008B50848E2
:100890008169012211438161816911400091C2691E
:1008A00001040A43C261C0690840009008BD00000D
:1008B0000010024010B500F037FF10BDF8B5054636
:1008C0000068354CC00352D5E0690026C00007D44B
:1008D000E16920040143E161E169014001260091E1
:1008E0002E480168C90510D40168821511430160C2
:1008F000FFF79EFE074604E0FFF79AFEC01B642840
:1009000024D826480068C005F6D5206A03273F0290
:10091000384020D06968394081421CD0206A226A60
:10092000B843012109040A432262226A8A432262EF
:100930002062C0070FD0FFF77BFE009008E0FFF7B2
:1009400077FE0099411A1648814201D90320F8BD6B
:10095000206A8007F3D5206A6968B843084320629B
:10096000002E04D0E169012000078143E16128786D
:10097000C00705D0206BA968800880000843206369
:100980002878800605D5206B10218843E968084344
:1009900020630020F8BD00000010024000700040FD
:1009A00088130000F8B50F46060059D03A4D286864
:1009B000C007C00FB84209D2286840084000384339
:1009C00028602868C007C00FB84249D13068334C4E
:1009D00081070CD5400704D5606807210902084348
:1009E00060606068F0218843B168084360603078D7
:1009F000C00726D0706801280ED0216802280ED0CA
:100A0000890700292CDA616889088900014361603F
:100A1000FFF70EFE00900DE021688903F1E78901E0
:100A2000EFE7FFF705FE0099411A1D48814201D901
:100A30000320F8BD60680C21084071688900884275
:100A4000EFD12868C007C00FB8420BD9286840080A
:100A50004000384328602868C007C00FB84201D062
:100A60000120F8BD3078400706D5606807210902EB
:100A70008843F1680843606000F028F86168094A1B
:100A80000906090F515CC840074908600020FFF7BC
:100A9000DBFE0020F8BD00000020024000100240F4
:100AA00088130000B41700080C0000200448054912
:100AB00000684968044A4905490F515CC8407047BD
:100AC0000C00002000100240C417000810B514A349
:100AD0000FCB88B06C460FC415A30FCB0FC4184AB8
:100AE00051680C200B4603401648042B16D0082BE7
:100AF00014D18B021B0F6C46E45CD26A04AB120764
:100B0000120F9A5CC90305D500231946FFF700FBB5
:100B1000214601E020460C4900F0EEFD08B010BD72
:100B200002030405060708090A0B0C0D0E0F10102E
:100B30000102030405060708090A0B0C0D0E0F102D
:100B40000010024000127A0000093D00FEB50400CA
:100B500070D02078DC4DC0074AD068680007800F4D
:100B6000012807D068680007800F022809D168684B
:100B7000C00306D5286880033AD560680028E7D00E
:100B800036E06168012914D001208004002901D0D9
:100B9000052914D02A68012109048A432A6029689A
:100BA000814329606068002816D0FFF741FD0646A2
:100BB0000EE028680121090408432860F2E729684B
:100BC00001432960F5E7FFF733FD801B64286ED8E9
:100BD00028688003F7D50BE0FFF72AFD064604E0FE
:100BE000FFF726FD801B6428F1D828688003F7D41E
:100BF00020780126800700283CDA68680007800F0B
:100C000007D068680007800F022809D16868C00310
:100C100006D42868800716D5E06801280AD112E0BA
:100C2000E0680028286816D030432860FFF700FDF0
:100C3000074605E043E1FFF7FBFCC01B0228C6D8CE
:100C400028688007F7D52868F82188432169C900FA
:100C5000084328600EE0400840002860FFF7E8FCE9
:100C6000074604E0FFF7E4FCC01B0228AFD8286861
:100C70008007F7D42078000722D5E0690028686A49
:100C80000ED030436862FFF7D3FC074604E0FFF75D
:100C9000CFFCC01B02289AD8686A8007F7D50FE0FE
:100CA000400840006862FFF7C3FC074605E09DE08E
:100CB000FFF7BEFCC01B022889D8686A8007F7D4FA
:100CC000207804274007002860DA00200190E869B6
:100CD000C00008D4E969B8060143E961E969014047
:100CE00001200091019079480168C90511D401687B
:100CF000821511430160FFF79BFC009005E0FFF7B0
:100D000097FC0099401A642870D870480068C005A4
:100D1000F5D5A06801280AD0002801D0052810D0F8
:100D2000286A400840002862286AB84301E0286A1F
:100D300030432862A068002812D0FFF779FC0090A9
:100D40000AE0286A38432862F1E7FFF771FC00994E
:100D5000411A5F48814249D8286A8007F5D50DE0DD
:100D6000FFF766FC009006E0FFF762FC0099411A6D
:100D7000574881423AD8286A8007F5D4019800285C
:100D800004D0E969012000078143E9612078C006A9
:100D900035D5606901280CD0401D686B23D03843DD
:100DA0006863686B400840006863FFF741FC0646D3
:100DB00022E0686B38436863686B30436863FFF711
:100DC00037FC064604E0FFF733FC801B02285BD8A3
:100DD000686B8007F7D5686BF8218843A169C90063
:100DE000084368630BE0B8436863F4E74CE0FFF73F
:100DF0001FFC801B022847D8686B8007F7D4206A45
:100E000000285ED069680907890F022942D00126AF
:100E100036060228286805D0B0432860FFF708FC92
:100E2000044633E0B0432860FFF702FC074604E0C5
:100E3000FFF7FEFBC01B022826D828688001F7D4E4
:100E4000E86AE16A000900010843E862616AA06A91
:100E5000084369683D22120491430843686028688A
:100E600030432860FFF7E4FB044604E0FFF7E0FBB3
:100E7000001B022808D828688001F7D521E0FFF779
:100E8000D7FB001B022801D90320FEBD2868800182
:100E9000F5D416E00128F8D06868E96A0122120446
:100EA000636A02409A420AD10907E26A090F914235
:100EB00005D10F2189040840A16A884201D0012090
:100EC000FEBD0020FEBD000000100240007000408A
:100ED00088130000F8B5040007D0002625464035E9
:100EE000A662687F002802D005E00120F8BD2E77B9
:100EF000204600F04BF802236B77206801684022FF
:100F0000914301600721E0680902884201D900226B
:100F100001E0012212030F273F02B84202D08842AB
:100F200000D0A662276B002F05D1884201D9236328
:100F300001E001202063A1686068636908432169BA
:100F4000194308430123A1695B0219400843E16981
:100F50000843216A0843A16A084321680860616B5D
:100F6000606AA36908431B0C0427E1683B401943EE
:100F700008432168104348602068C1697A029143A0
:100F8000C1612666012068770020F8BD30B587B0C2
:100F9000044614216846FFF703F924681E4D00211A
:100FA0001E4802230322AC4217D1856984142543CD
:100FB000856185692540059545691C042543456182
:100FC0004069029120400590F02000900491092092
:100FD000019303926946C00619E0114DAC4218D145
:100FE000C56924142543C561C56925400595456932
:100FF00024012543456140690291204005900F205E
:101000000003049100900193039269460548FFF79D
:1010100065FA07B030BD000000300140001002400A
:101020000038004000040048094910B5401E8842BD
:1010300001D9012010BD074C60610321081F00F099
:1010400073FB0020A06107202061002010BD00007C
:10105000FFFFFF0000E000E010B5040003D0606F68
:10106000002802D007E0012010BD002170200155AA
:10107000204600F027F824206067206801684908AE
:1010800049000160204600F045FA0128ECD0606A72
:10109000002802D0204600F0A8F92068416801220B
:1010A000D2029143416020688168082291438160A7
:1010B00020680168012211430160204600F0FAF91E
:1010C00010BD0000F0B587B0044614216846FFF754
:1010D00067F81A4F012126680022194849040223A3
:1010E00003240125BE420ED18769CE1037438761A4
:1010F00087693740059746690E4346614069084055
:10110000059060020FE00F4FBE4215D1C6690E4335
:10111000C661C6690E40059646690E434661406940
:10112000084005900C200090019302AE34C60920BF
:101130006946C006FFF7D2F907B0F0BD003801409C
:101140000010024000440040FEE700000EB5002100
:101150001348009101910291104A41600260816040
:10116000012204230C300EC0017041708170FF23F6
:10117000C170C23343600346816008331971026154
:101180001838FFF7C3F808200090400201900004CF
:10119000029069460248FFF731F80EBD0024014075
:1011A0001000002070B586B014216846FEF7F8FFE5
:1011B0001A484269012149040A43426142690A40CE
:1011C0000592426949000A4342614069144E084051
:1011D0000590002202213046FFF724FA0120002466
:1011E0000225019002946946009503943046FFF76A
:1011F00075F9042000900194694602943046FFF787
:101200006DF9E80100900920029401956946049562
:101210000394C006FFF762F906B070BD00100240EB
:101220000004004810B50D480B4901600C494160AD
:10123000002181600161416181610122C161C2605F
:101240000162FFF745FA00210448FFF7F7F9002192
:101250000248FFF718FA10BD00540040500000206B
:101260000E09002010B50D480B4901600C49416082
:10127000002181600161416181610122C161C2601F
:101280000162FFF725FA00210448FFF7D7F9002192
:101290000248FFF7F8F910BD005800409C000020FC
:1012A0000E09002010B50F480D490160FF210531DE
:1012B000416000210322816012020161C26041612C
:1012C000C16101220162920441628261816207224E
:1012D000C262016308214163FFF7FCFD10BD0000FD
:1012E00000300140E800002010B50C480A490160B8
:1012F00000214160816001614161816103220162DD
:1013000012024162C260816207220163C2624163CC
:10131000FFF7E0FD10BD0000003800404C01002048
:1013200010B50A48084901604B21C90141600021FC
:101330008160C16001618161C1610C220162426111
:101340004162FFF789FE10BD00380140B001002066
:1013500010B50A4808490160E121490241600021B5
:101360008160C16001618161C1610C2201624261E1
:101370004162FFF771FE10BD0044004030020020C2
:1013800070477047704710B5FFF746FA10BD10B5AB
:1013900094B030216846FEF703FF00240F9412201A
:1013A00000900D9401201294039005900E9410204B
:1013B000109413940C940490069011940894684629
:1013C000FFF7C4FB07200C900D940E9400210F949E
:1013D0000CA8FFF7E7FA212010901294139410A89C
:1013E000FFF76CFA14B010BD704710B5818CC907B7
:1013F00007D001684A6801235B049A43836A1A4351
:101400004A60818C890707D501684A6801231B045B
:101410009A43C36A1A434A60818C490707D5016819
:101420004A6801239B049A43036B1A434A60818CE8
:10143000090707D501684A680123DB039A43436B18
:101440001A434A60818CC90607D502689168012356
:101450001B039943836B19439160818C890607D5DF
:1014600001688A6801235B039A43C36B1A438A604D
:10147000818C490612D503685A6801210905046C5C
:101480008A4322435A60026C8A4207D1026851683B
:1014900003235B059943436C19435160818C090612
:1014A00007D501684A680123DB04806C9A43024334
:1014B0004A6010BDF8B500260446C667FFF7B8F8C5
:1014C000054620680068124F000709D501212B4608
:1014D000002249052046009700F0C0F800280DD1F1
:1014E0002068006840070BD501212B4600228905A2
:1014F0002046009700F0B2F8002801D00320F8BD84
:1015000020206067A067603426740020F8BD0000CA
:10151000FFFFFF0170B5044680682169E269084356
:10152000616900251143226808431168444B194042
:101530000143116021684868032212039043E26866
:1015400010434860A169206A2268084391680B2310
:101550001B029943014391603A492068884210D1A7
:101560003948006B8007800F11D0012805D0022870
:1015700005D003280AD1022009E0042007E0082052
:1015800005E03249884201D1002000E0102001220C
:10159000E169D2032E4E914228D1002806D00228BC
:1015A00007D0042817D0082844D11AE0FFF77EFAA4
:1015B00013E06168274A48088018FEF793FD80B25F
:1015C00001461039B14235D82149491C0140000774
:1015D000400F084321E0FFF779FA616840004A08AC
:1015E000EAE76168012248081204E5E7002806D00E
:1015F000022807D0042813D008281BD116E0FFF7D3
:1016000055FA0FE06168144A480811E0FEF76AFDD8
:1016100080B201461039B1420CD82168C8600AE096
:10162000FFF754FA61684A081018EFE76168480844
:101630008018EBE70125002020666066284670BD13
:10164000F369FFFF003801400010024000440040F1
:10165000EFFF00000024F40000127A00FFB581B013
:1016600005460F46044660350A9E38E0701C36D0A9
:10167000FEF7DEFF0499401AB04221D8002E1FD099
:101680002068016849072AD5C069C043000526D4EF
:1016900001202168C002086220680168FF22A1328F
:1016A00091430160206881684908490081602020D9
:1016B0006067A067E06700202874032005B0F0BDD4
:1016C00020680168FF22A13291430160206881688F
:1016D00049084900816020206067A067EBE7206827
:1016E000C1693846884305D0002103988142BDD0A6
:1016F0000020E3E70121F8E7F8B5040C8BB2264699
:1017000082B25E430D0C1046370C584336048019E4
:101710000021794116466E43370C36048019794111
:1017200026466E438919F8BD8307FF22DB0E9A40D7
:101730008907090E9940002808DB830809489B00A7
:101740001B18186890430843186070470007000F83
:101750000838830804489B001B18D8699043084345
:10176000D861704700E400E000ED00E002E008C846
:10177000121F08C1002AFAD170477047002001E00B
:1017800001C1121F002AFBD17047FFF74DF8FFF788
:10179000FEFDFFF707FDFFF7D9FCFFF743FDFFF75D
:1017A00061FDFFF77FFDFFF79FFDFFF7B9FDFFF735
:1017B000CFFDFEE70000000000000000010203046E
:1017C000060708090000000001020304EC170008E6
:1017D00000000020100000006C170008FC17000833
:1017E00010000020A00600007C1700080100000087
:0C17F000040000000000000000127A005D
:04000005080000B53A
:00000001FF
